{
	"SimpleStorage/SimpleStorage.sol": {
		"SimpleStorage": {
			"abi": [
				{
					"inputs": [],
					"name": "Ali",
					"outputs": [
						{
							"internalType": "uint256",
							"name": "age",
							"type": "uint256"
						},
						{
							"internalType": "string",
							"name": "name",
							"type": "string"
						},
						{
							"internalType": "bool",
							"name": "isCool",
							"type": "bool"
						}
					],
					"stateMutability": "view",
					"type": "function"
				},
				{
					"inputs": [],
					"name": "Anahita",
					"outputs": [
						{
							"internalType": "uint256",
							"name": "age",
							"type": "uint256"
						},
						{
							"internalType": "string",
							"name": "name",
							"type": "string"
						},
						{
							"internalType": "bool",
							"name": "isCool",
							"type": "bool"
						}
					],
					"stateMutability": "view",
					"type": "function"
				},
				{
					"inputs": [
						{
							"internalType": "uint256",
							"name": "_age",
							"type": "uint256"
						},
						{
							"internalType": "string",
							"name": "_name",
							"type": "string"
						},
						{
							"internalType": "bool",
							"name": "_isCool",
							"type": "bool"
						}
					],
					"name": "add_friend",
					"outputs": [
						{
							"internalType": "bool",
							"name": "",
							"type": "bool"
						}
					],
					"stateMutability": "nonpayable",
					"type": "function"
				},
				{
					"inputs": [],
					"name": "getFavoriteNumber",
					"outputs": [
						{
							"internalType": "uint256",
							"name": "",
							"type": "uint256"
						}
					],
					"stateMutability": "view",
					"type": "function"
				},
				{
					"inputs": [
						{
							"internalType": "uint256",
							"name": "",
							"type": "uint256"
						}
					],
					"name": "myFriends",
					"outputs": [
						{
							"internalType": "uint256",
							"name": "age",
							"type": "uint256"
						},
						{
							"internalType": "string",
							"name": "name",
							"type": "string"
						},
						{
							"internalType": "bool",
							"name": "isCool",
							"type": "bool"
						}
					],
					"stateMutability": "view",
					"type": "function"
				},
				{
					"inputs": [
						{
							"internalType": "string",
							"name": "",
							"type": "string"
						}
					],
					"name": "personToNumber",
					"outputs": [
						{
							"internalType": "uint256",
							"name": "",
							"type": "uint256"
						}
					],
					"stateMutability": "view",
					"type": "function"
				},
				{
					"inputs": [
						{
							"internalType": "uint256",
							"name": "",
							"type": "uint256"
						}
					],
					"name": "staticMyFriends",
					"outputs": [
						{
							"internalType": "uint256",
							"name": "age",
							"type": "uint256"
						},
						{
							"internalType": "string",
							"name": "name",
							"type": "string"
						},
						{
							"internalType": "bool",
							"name": "isCool",
							"type": "bool"
						}
					],
					"stateMutability": "view",
					"type": "function"
				},
				{
					"inputs": [
						{
							"internalType": "uint256",
							"name": "_favoriteNumber",
							"type": "uint256"
						}
					],
					"name": "store",
					"outputs": [],
					"stateMutability": "nonpayable",
					"type": "function"
				}
			],
			"devdoc": {
				"kind": "dev",
				"methods": {},
				"version": 1
			},
			"evm": {
				"assembly": "    /* \"SimpleStorage/SimpleStorage.sol\":259:4885  contract SimpleStorage {... */\n  mstore(0x40, 0x80)\n    /* \"SimpleStorage/SimpleStorage.sol\":369:373  true */\n  0x01\n    /* \"SimpleStorage/SimpleStorage.sol\":344:373  bool hasFavoriteNumber = true */\n  0x00\n  dup1\n  0x0100\n  exp\n  dup2\n  sload\n  dup2\n  0xff\n  mul\n  not\n  and\n  swap1\n  dup4\n  iszero\n  iszero\n  mul\n  or\n  swap1\n  sstore\n  pop\n    /* \"SimpleStorage/SimpleStorage.sol\":444:446  88 */\n  0x58\n    /* \"SimpleStorage/SimpleStorage.sol\":417:446  uint256 myFavoriteNumber = 88 */\n  0x01\n  sstore\n    /* \"SimpleStorage/SimpleStorage.sol\":2096:2119  Person(22, \"Ali\", true) */\n  mload(0x40)\n  dup1\n  0x60\n  add\n  0x40\n  mstore\n  dup1\n    /* \"SimpleStorage/SimpleStorage.sol\":2103:2105  22 */\n  0x16\n    /* \"SimpleStorage/SimpleStorage.sol\":2096:2119  Person(22, \"Ali\", true) */\n  dup2\n  mstore\n  0x20\n  add\n  mload(0x40)\n  dup1\n  0x40\n  add\n  0x40\n  mstore\n  dup1\n  0x03\n  dup2\n  mstore\n  0x20\n  add\n  0x416c690000000000000000000000000000000000000000000000000000000000\n  dup2\n  mstore\n  pop\n  dup2\n  mstore\n  0x20\n  add\n    /* \"SimpleStorage/SimpleStorage.sol\":2114:2118  true */\n  0x01\n    /* \"SimpleStorage/SimpleStorage.sol\":2096:2119  Person(22, \"Ali\", true) */\n  iszero\n  iszero\n  dup2\n  mstore\n  pop\n    /* \"SimpleStorage/SimpleStorage.sol\":2076:2119  Person public Ali = Person(22, \"Ali\", true) */\n  0x03\n  0x00\n  dup3\n  add\n  mload\n  dup2\n  0x00\n  add\n  sstore\n  0x20\n  dup3\n  add\n  mload\n  dup2\n  0x01\n  add\n  swap1\n  dup2\n  tag_1\n  swap2\n  swap1\n  tag_2\n  jump\t// in\ntag_1:\n  pop\n  0x40\n  dup3\n  add\n  mload\n  dup2\n  0x02\n  add\n  exp(0x0100, 0x00)\n  dup2\n  sload\n  dup2\n  0xff\n  mul\n  not\n  and\n  swap1\n  dup4\n  iszero\n  iszero\n  mul\n  or\n  swap1\n  sstore\n  pop\n  pop\n  pop\n    /* \"SimpleStorage/SimpleStorage.sol\":2188:2237  Person({age : 27, name: \"Anahita\", isCool: true}) */\n  mload(0x40)\n  dup1\n  0x60\n  add\n  0x40\n  mstore\n  dup1\n    /* \"SimpleStorage/SimpleStorage.sol\":2202:2204  27 */\n  0x1b\n    /* \"SimpleStorage/SimpleStorage.sol\":2188:2237  Person({age : 27, name: \"Anahita\", isCool: true}) */\n  dup2\n  mstore\n  0x20\n  add\n  mload(0x40)\n  dup1\n  0x40\n  add\n  0x40\n  mstore\n  dup1\n  0x07\n  dup2\n  mstore\n  0x20\n  add\n  0x416e616869746100000000000000000000000000000000000000000000000000\n  dup2\n  mstore\n  pop\n  dup2\n  mstore\n  0x20\n  add\n    /* \"SimpleStorage/SimpleStorage.sol\":2231:2235  true */\n  0x01\n    /* \"SimpleStorage/SimpleStorage.sol\":2188:2237  Person({age : 27, name: \"Anahita\", isCool: true}) */\n  iszero\n  iszero\n  dup2\n  mstore\n  pop\n    /* \"SimpleStorage/SimpleStorage.sol\":2164:2237  Person public Anahita = Person({age : 27, name: \"Anahita\", isCool: true}) */\n  0x06\n  0x00\n  dup3\n  add\n  mload\n  dup2\n  0x00\n  add\n  sstore\n  0x20\n  dup3\n  add\n  mload\n  dup2\n  0x01\n  add\n  swap1\n  dup2\n  tag_3\n  swap2\n  swap1\n  tag_2\n  jump\t// in\ntag_3:\n  pop\n  0x40\n  dup3\n  add\n  mload\n  dup2\n  0x02\n  add\n  exp(0x0100, 0x00)\n  dup2\n  sload\n  dup2\n  0xff\n  mul\n  not\n  and\n  swap1\n  dup4\n  iszero\n  iszero\n  mul\n  or\n  swap1\n  sstore\n  pop\n  pop\n  pop\n    /* \"SimpleStorage/SimpleStorage.sol\":259:4885  contract SimpleStorage {... */\n  callvalue\n  dup1\n  iszero\n  tag_4\n  jumpi\n  0x00\n  dup1\n  revert\ntag_4:\n  pop\n  jump(tag_5)\n    /* \"#utility.yul\":7:106   */\ntag_6:\n    /* \"#utility.yul\":59:65   */\n  0x00\n    /* \"#utility.yul\":93:98   */\n  dup2\n    /* \"#utility.yul\":87:99   */\n  mload\n    /* \"#utility.yul\":77:99   */\n  swap1\n  pop\n    /* \"#utility.yul\":7:106   */\n  swap2\n  swap1\n  pop\n  jump\t// out\n    /* \"#utility.yul\":112:292   */\ntag_7:\n    /* \"#utility.yul\":160:237   */\n  0x4e487b7100000000000000000000000000000000000000000000000000000000\n    /* \"#utility.yul\":157:158   */\n  0x00\n    /* \"#utility.yul\":150:238   */\n  mstore\n    /* \"#utility.yul\":257:261   */\n  0x41\n    /* \"#utility.yul\":254:255   */\n  0x04\n    /* \"#utility.yul\":247:262   */\n  mstore\n    /* \"#utility.yul\":281:285   */\n  0x24\n    /* \"#utility.yul\":278:279   */\n  0x00\n    /* \"#utility.yul\":271:286   */\n  revert\n    /* \"#utility.yul\":298:478   */\ntag_8:\n    /* \"#utility.yul\":346:423   */\n  0x4e487b7100000000000000000000000000000000000000000000000000000000\n    /* \"#utility.yul\":343:344   */\n  0x00\n    /* \"#utility.yul\":336:424   */\n  mstore\n    /* \"#utility.yul\":443:447   */\n  0x22\n    /* \"#utility.yul\":440:441   */\n  0x04\n    /* \"#utility.yul\":433:448   */\n  mstore\n    /* \"#utility.yul\":467:471   */\n  0x24\n    /* \"#utility.yul\":464:465   */\n  0x00\n    /* \"#utility.yul\":457:472   */\n  revert\n    /* \"#utility.yul\":484:804   */\ntag_9:\n    /* \"#utility.yul\":528:534   */\n  0x00\n    /* \"#utility.yul\":565:566   */\n  0x02\n    /* \"#utility.yul\":559:563   */\n  dup3\n    /* \"#utility.yul\":555:567   */\n  div\n    /* \"#utility.yul\":545:567   */\n  swap1\n  pop\n    /* \"#utility.yul\":612:613   */\n  0x01\n    /* \"#utility.yul\":606:610   */\n  dup3\n    /* \"#utility.yul\":602:614   */\n  and\n    /* \"#utility.yul\":633:651   */\n  dup1\n    /* \"#utility.yul\":623:704   */\n  tag_31\n  jumpi\n    /* \"#utility.yul\":689:693   */\n  0x7f\n    /* \"#utility.yul\":681:687   */\n  dup3\n    /* \"#utility.yul\":677:694   */\n  and\n    /* \"#utility.yul\":667:694   */\n  swap2\n  pop\n    /* \"#utility.yul\":623:704   */\ntag_31:\n    /* \"#utility.yul\":751:753   */\n  0x20\n    /* \"#utility.yul\":743:749   */\n  dup3\n    /* \"#utility.yul\":740:754   */\n  lt\n    /* \"#utility.yul\":720:738   */\n  dup2\n    /* \"#utility.yul\":717:755   */\n  sub\n    /* \"#utility.yul\":714:798   */\n  tag_32\n  jumpi\n    /* \"#utility.yul\":770:788   */\n  tag_33\n  tag_8\n  jump\t// in\ntag_33:\n    /* \"#utility.yul\":714:798   */\ntag_32:\n    /* \"#utility.yul\":535:804   */\n  pop\n    /* \"#utility.yul\":484:804   */\n  swap2\n  swap1\n  pop\n  jump\t// out\n    /* \"#utility.yul\":810:951   */\ntag_10:\n    /* \"#utility.yul\":859:863   */\n  0x00\n    /* \"#utility.yul\":882:885   */\n  dup2\n    /* \"#utility.yul\":874:885   */\n  swap1\n  pop\n    /* \"#utility.yul\":905:908   */\n  dup2\n    /* \"#utility.yul\":902:903   */\n  0x00\n    /* \"#utility.yul\":895:909   */\n  mstore\n    /* \"#utility.yul\":939:943   */\n  0x20\n    /* \"#utility.yul\":936:937   */\n  0x00\n    /* \"#utility.yul\":926:944   */\n  keccak256\n    /* \"#utility.yul\":918:944   */\n  swap1\n  pop\n    /* \"#utility.yul\":810:951   */\n  swap2\n  swap1\n  pop\n  jump\t// out\n    /* \"#utility.yul\":957:1050   */\ntag_11:\n    /* \"#utility.yul\":994:1000   */\n  0x00\n    /* \"#utility.yul\":1041:1043   */\n  0x20\n    /* \"#utility.yul\":1036:1038   */\n  0x1f\n    /* \"#utility.yul\":1029:1034   */\n  dup4\n    /* \"#utility.yul\":1025:1039   */\n  add\n    /* \"#utility.yul\":1021:1044   */\n  div\n    /* \"#utility.yul\":1011:1044   */\n  swap1\n  pop\n    /* \"#utility.yul\":957:1050   */\n  swap2\n  swap1\n  pop\n  jump\t// out\n    /* \"#utility.yul\":1056:1163   */\ntag_12:\n    /* \"#utility.yul\":1100:1108   */\n  0x00\n    /* \"#utility.yul\":1150:1155   */\n  dup3\n    /* \"#utility.yul\":1144:1148   */\n  dup3\n    /* \"#utility.yul\":1140:1156   */\n  shl\n    /* \"#utility.yul\":1119:1156   */\n  swap1\n  pop\n    /* \"#utility.yul\":1056:1163   */\n  swap3\n  swap2\n  pop\n  pop\n  jump\t// out\n    /* \"#utility.yul\":1169:1562   */\ntag_13:\n    /* \"#utility.yul\":1238:1244   */\n  0x00\n    /* \"#utility.yul\":1288:1289   */\n  0x08\n    /* \"#utility.yul\":1276:1286   */\n  dup4\n    /* \"#utility.yul\":1272:1290   */\n  mul\n    /* \"#utility.yul\":1311:1408   */\n  tag_38\n    /* \"#utility.yul\":1341:1407   */\n  0xffffffffffffffffffffffffffffffffffffffffffffffffffffffffffffffff\n    /* \"#utility.yul\":1330:1339   */\n  dup3\n    /* \"#utility.yul\":1311:1408   */\n  tag_12\n  jump\t// in\ntag_38:\n    /* \"#utility.yul\":1429:1468   */\n  tag_39\n    /* \"#utility.yul\":1459:1467   */\n  dup7\n    /* \"#utility.yul\":1448:1457   */\n  dup4\n    /* \"#utility.yul\":1429:1468   */\n  tag_12\n  jump\t// in\ntag_39:\n    /* \"#utility.yul\":1417:1468   */\n  swap6\n  pop\n    /* \"#utility.yul\":1501:1505   */\n  dup1\n    /* \"#utility.yul\":1497:1506   */\n  not\n    /* \"#utility.yul\":1490:1495   */\n  dup5\n    /* \"#utility.yul\":1486:1507   */\n  and\n    /* \"#utility.yul\":1477:1507   */\n  swap4\n  pop\n    /* \"#utility.yul\":1550:1554   */\n  dup1\n    /* \"#utility.yul\":1540:1548   */\n  dup7\n    /* \"#utility.yul\":1536:1555   */\n  and\n    /* \"#utility.yul\":1529:1534   */\n  dup5\n    /* \"#utility.yul\":1526:1556   */\n  or\n    /* \"#utility.yul\":1516:1556   */\n  swap3\n  pop\n    /* \"#utility.yul\":1245:1562   */\n  pop\n  pop\n    /* \"#utility.yul\":1169:1562   */\n  swap4\n  swap3\n  pop\n  pop\n  pop\n  jump\t// out\n    /* \"#utility.yul\":1568:1645   */\ntag_14:\n    /* \"#utility.yul\":1605:1612   */\n  0x00\n    /* \"#utility.yul\":1634:1639   */\n  dup2\n    /* \"#utility.yul\":1623:1639   */\n  swap1\n  pop\n    /* \"#utility.yul\":1568:1645   */\n  swap2\n  swap1\n  pop\n  jump\t// out\n    /* \"#utility.yul\":1651:1711   */\ntag_15:\n    /* \"#utility.yul\":1679:1682   */\n  0x00\n    /* \"#utility.yul\":1700:1705   */\n  dup2\n    /* \"#utility.yul\":1693:1705   */\n  swap1\n  pop\n    /* \"#utility.yul\":1651:1711   */\n  swap2\n  swap1\n  pop\n  jump\t// out\n    /* \"#utility.yul\":1717:1859   */\ntag_16:\n    /* \"#utility.yul\":1767:1776   */\n  0x00\n    /* \"#utility.yul\":1800:1853   */\n  tag_43\n    /* \"#utility.yul\":1818:1852   */\n  tag_44\n    /* \"#utility.yul\":1827:1851   */\n  tag_45\n    /* \"#utility.yul\":1845:1850   */\n  dup5\n    /* \"#utility.yul\":1827:1851   */\n  tag_14\n  jump\t// in\ntag_45:\n    /* \"#utility.yul\":1818:1852   */\n  tag_15\n  jump\t// in\ntag_44:\n    /* \"#utility.yul\":1800:1853   */\n  tag_14\n  jump\t// in\ntag_43:\n    /* \"#utility.yul\":1787:1853   */\n  swap1\n  pop\n    /* \"#utility.yul\":1717:1859   */\n  swap2\n  swap1\n  pop\n  jump\t// out\n    /* \"#utility.yul\":1865:1940   */\ntag_17:\n    /* \"#utility.yul\":1908:1911   */\n  0x00\n    /* \"#utility.yul\":1929:1934   */\n  dup2\n    /* \"#utility.yul\":1922:1934   */\n  swap1\n  pop\n    /* \"#utility.yul\":1865:1940   */\n  swap2\n  swap1\n  pop\n  jump\t// out\n    /* \"#utility.yul\":1946:2215   */\ntag_18:\n    /* \"#utility.yul\":2056:2095   */\n  tag_48\n    /* \"#utility.yul\":2087:2094   */\n  dup4\n    /* \"#utility.yul\":2056:2095   */\n  tag_16\n  jump\t// in\ntag_48:\n    /* \"#utility.yul\":2117:2208   */\n  tag_49\n    /* \"#utility.yul\":2166:2207   */\n  tag_50\n    /* \"#utility.yul\":2190:2206   */\n  dup3\n    /* \"#utility.yul\":2166:2207   */\n  tag_17\n  jump\t// in\ntag_50:\n    /* \"#utility.yul\":2158:2164   */\n  dup5\n    /* \"#utility.yul\":2151:2155   */\n  dup5\n    /* \"#utility.yul\":2145:2156   */\n  sload\n    /* \"#utility.yul\":2117:2208   */\n  tag_13\n  jump\t// in\ntag_49:\n    /* \"#utility.yul\":2111:2115   */\n  dup3\n    /* \"#utility.yul\":2104:2209   */\n  sstore\n    /* \"#utility.yul\":2022:2215   */\n  pop\n    /* \"#utility.yul\":1946:2215   */\n  pop\n  pop\n  pop\n  jump\t// out\n    /* \"#utility.yul\":2221:2294   */\ntag_19:\n    /* \"#utility.yul\":2266:2269   */\n  0x00\n    /* \"#utility.yul\":2221:2294   */\n  swap1\n  jump\t// out\n    /* \"#utility.yul\":2300:2489   */\ntag_20:\n    /* \"#utility.yul\":2377:2409   */\n  tag_53\n  tag_19\n  jump\t// in\ntag_53:\n    /* \"#utility.yul\":2418:2483   */\n  tag_54\n    /* \"#utility.yul\":2476:2482   */\n  dup2\n    /* \"#utility.yul\":2468:2474   */\n  dup5\n    /* \"#utility.yul\":2462:2466   */\n  dup5\n    /* \"#utility.yul\":2418:2483   */\n  tag_18\n  jump\t// in\ntag_54:\n    /* \"#utility.yul\":2353:2489   */\n  pop\n    /* \"#utility.yul\":2300:2489   */\n  pop\n  pop\n  jump\t// out\n    /* \"#utility.yul\":2495:2681   */\ntag_21:\n    /* \"#utility.yul\":2555:2675   */\ntag_56:\n    /* \"#utility.yul\":2572:2575   */\n  dup2\n    /* \"#utility.yul\":2565:2570   */\n  dup2\n    /* \"#utility.yul\":2562:2576   */\n  lt\n    /* \"#utility.yul\":2555:2675   */\n  iszero\n  tag_58\n  jumpi\n    /* \"#utility.yul\":2626:2665   */\n  tag_59\n    /* \"#utility.yul\":2663:2664   */\n  0x00\n    /* \"#utility.yul\":2656:2661   */\n  dup3\n    /* \"#utility.yul\":2626:2665   */\n  tag_20\n  jump\t// in\ntag_59:\n    /* \"#utility.yul\":2599:2600   */\n  0x01\n    /* \"#utility.yul\":2592:2597   */\n  dup2\n    /* \"#utility.yul\":2588:2601   */\n  add\n    /* \"#utility.yul\":2579:2601   */\n  swap1\n  pop\n    /* \"#utility.yul\":2555:2675   */\n  jump(tag_56)\ntag_58:\n    /* \"#utility.yul\":2495:2681   */\n  pop\n  pop\n  jump\t// out\n    /* \"#utility.yul\":2687:3230   */\ntag_22:\n    /* \"#utility.yul\":2788:2790   */\n  0x1f\n    /* \"#utility.yul\":2783:2786   */\n  dup3\n    /* \"#utility.yul\":2780:2791   */\n  gt\n    /* \"#utility.yul\":2777:3223   */\n  iszero\n  tag_61\n  jumpi\n    /* \"#utility.yul\":2822:2860   */\n  tag_62\n    /* \"#utility.yul\":2854:2859   */\n  dup2\n    /* \"#utility.yul\":2822:2860   */\n  tag_10\n  jump\t// in\ntag_62:\n    /* \"#utility.yul\":2906:2935   */\n  tag_63\n    /* \"#utility.yul\":2924:2934   */\n  dup5\n    /* \"#utility.yul\":2906:2935   */\n  tag_11\n  jump\t// in\ntag_63:\n    /* \"#utility.yul\":2896:2904   */\n  dup2\n    /* \"#utility.yul\":2892:2936   */\n  add\n    /* \"#utility.yul\":3089:3091   */\n  0x20\n    /* \"#utility.yul\":3077:3087   */\n  dup6\n    /* \"#utility.yul\":3074:3092   */\n  lt\n    /* \"#utility.yul\":3071:3120   */\n  iszero\n  tag_64\n  jumpi\n    /* \"#utility.yul\":3110:3118   */\n  dup2\n    /* \"#utility.yul\":3095:3118   */\n  swap1\n  pop\n    /* \"#utility.yul\":3071:3120   */\ntag_64:\n    /* \"#utility.yul\":3133:3213   */\n  tag_65\n    /* \"#utility.yul\":3189:3211   */\n  tag_66\n    /* \"#utility.yul\":3207:3210   */\n  dup6\n    /* \"#utility.yul\":3189:3211   */\n  tag_11\n  jump\t// in\ntag_66:\n    /* \"#utility.yul\":3179:3187   */\n  dup4\n    /* \"#utility.yul\":3175:3212   */\n  add\n    /* \"#utility.yul\":3162:3173   */\n  dup3\n    /* \"#utility.yul\":3133:3213   */\n  tag_21\n  jump\t// in\ntag_65:\n    /* \"#utility.yul\":2792:3223   */\n  pop\n  pop\n    /* \"#utility.yul\":2777:3223   */\ntag_61:\n    /* \"#utility.yul\":2687:3230   */\n  pop\n  pop\n  pop\n  jump\t// out\n    /* \"#utility.yul\":3236:3353   */\ntag_23:\n    /* \"#utility.yul\":3290:3298   */\n  0x00\n    /* \"#utility.yul\":3340:3345   */\n  dup3\n    /* \"#utility.yul\":3334:3338   */\n  dup3\n    /* \"#utility.yul\":3330:3346   */\n  shr\n    /* \"#utility.yul\":3309:3346   */\n  swap1\n  pop\n    /* \"#utility.yul\":3236:3353   */\n  swap3\n  swap2\n  pop\n  pop\n  jump\t// out\n    /* \"#utility.yul\":3359:3528   */\ntag_24:\n    /* \"#utility.yul\":3403:3409   */\n  0x00\n    /* \"#utility.yul\":3436:3487   */\n  tag_69\n    /* \"#utility.yul\":3484:3485   */\n  0x00\n    /* \"#utility.yul\":3480:3486   */\n  not\n    /* \"#utility.yul\":3472:3477   */\n  dup5\n    /* \"#utility.yul\":3469:3470   */\n  0x08\n    /* \"#utility.yul\":3465:3478   */\n  mul\n    /* \"#utility.yul\":3436:3487   */\n  tag_23\n  jump\t// in\ntag_69:\n    /* \"#utility.yul\":3432:3488   */\n  not\n    /* \"#utility.yul\":3517:3521   */\n  dup1\n    /* \"#utility.yul\":3511:3515   */\n  dup4\n    /* \"#utility.yul\":3507:3522   */\n  and\n    /* \"#utility.yul\":3497:3522   */\n  swap2\n  pop\n    /* \"#utility.yul\":3410:3528   */\n  pop\n    /* \"#utility.yul\":3359:3528   */\n  swap3\n  swap2\n  pop\n  pop\n  jump\t// out\n    /* \"#utility.yul\":3533:3828   */\ntag_25:\n    /* \"#utility.yul\":3609:3613   */\n  0x00\n    /* \"#utility.yul\":3755:3784   */\n  tag_71\n    /* \"#utility.yul\":3780:3783   */\n  dup4\n    /* \"#utility.yul\":3774:3778   */\n  dup4\n    /* \"#utility.yul\":3755:3784   */\n  tag_24\n  jump\t// in\ntag_71:\n    /* \"#utility.yul\":3747:3784   */\n  swap2\n  pop\n    /* \"#utility.yul\":3817:3820   */\n  dup3\n    /* \"#utility.yul\":3814:3815   */\n  0x02\n    /* \"#utility.yul\":3810:3821   */\n  mul\n    /* \"#utility.yul\":3804:3808   */\n  dup3\n    /* \"#utility.yul\":3801:3822   */\n  or\n    /* \"#utility.yul\":3793:3822   */\n  swap1\n  pop\n    /* \"#utility.yul\":3533:3828   */\n  swap3\n  swap2\n  pop\n  pop\n  jump\t// out\n    /* \"#utility.yul\":3833:5228   */\ntag_2:\n    /* \"#utility.yul\":3950:3987   */\n  tag_73\n    /* \"#utility.yul\":3983:3986   */\n  dup3\n    /* \"#utility.yul\":3950:3987   */\n  tag_6\n  jump\t// in\ntag_73:\n    /* \"#utility.yul\":4052:4070   */\n  0xffffffffffffffff\n    /* \"#utility.yul\":4044:4050   */\n  dup2\n    /* \"#utility.yul\":4041:4071   */\n  gt\n    /* \"#utility.yul\":4038:4094   */\n  iszero\n  tag_74\n  jumpi\n    /* \"#utility.yul\":4074:4092   */\n  tag_75\n  tag_7\n  jump\t// in\ntag_75:\n    /* \"#utility.yul\":4038:4094   */\ntag_74:\n    /* \"#utility.yul\":4118:4156   */\n  tag_76\n    /* \"#utility.yul\":4150:4154   */\n  dup3\n    /* \"#utility.yul\":4144:4155   */\n  sload\n    /* \"#utility.yul\":4118:4156   */\n  tag_9\n  jump\t// in\ntag_76:\n    /* \"#utility.yul\":4203:4270   */\n  tag_77\n    /* \"#utility.yul\":4263:4269   */\n  dup3\n    /* \"#utility.yul\":4255:4261   */\n  dup3\n    /* \"#utility.yul\":4249:4253   */\n  dup6\n    /* \"#utility.yul\":4203:4270   */\n  tag_22\n  jump\t// in\ntag_77:\n    /* \"#utility.yul\":4297:4298   */\n  0x00\n    /* \"#utility.yul\":4321:4325   */\n  0x20\n    /* \"#utility.yul\":4308:4325   */\n  swap1\n  pop\n    /* \"#utility.yul\":4353:4355   */\n  0x1f\n    /* \"#utility.yul\":4345:4351   */\n  dup4\n    /* \"#utility.yul\":4342:4356   */\n  gt\n    /* \"#utility.yul\":4370:4371   */\n  0x01\n    /* \"#utility.yul\":4365:4983   */\n  dup2\n  eq\n  tag_79\n  jumpi\n    /* \"#utility.yul\":5027:5028   */\n  0x00\n    /* \"#utility.yul\":5044:5050   */\n  dup5\n    /* \"#utility.yul\":5041:5118   */\n  iszero\n  tag_80\n  jumpi\n    /* \"#utility.yul\":5093:5102   */\n  dup3\n    /* \"#utility.yul\":5088:5091   */\n  dup8\n    /* \"#utility.yul\":5084:5103   */\n  add\n    /* \"#utility.yul\":5078:5104   */\n  mload\n    /* \"#utility.yul\":5069:5104   */\n  swap1\n  pop\n    /* \"#utility.yul\":5041:5118   */\ntag_80:\n    /* \"#utility.yul\":5144:5211   */\n  tag_81\n    /* \"#utility.yul\":5204:5210   */\n  dup6\n    /* \"#utility.yul\":5197:5202   */\n  dup3\n    /* \"#utility.yul\":5144:5211   */\n  tag_25\n  jump\t// in\ntag_81:\n    /* \"#utility.yul\":5138:5142   */\n  dup7\n    /* \"#utility.yul\":5131:5212   */\n  sstore\n    /* \"#utility.yul\":5000:5222   */\n  pop\n    /* \"#utility.yul\":4335:5222   */\n  jump(tag_78)\n    /* \"#utility.yul\":4365:4983   */\ntag_79:\n    /* \"#utility.yul\":4417:4421   */\n  0x1f\n    /* \"#utility.yul\":4413:4422   */\n  not\n    /* \"#utility.yul\":4405:4411   */\n  dup5\n    /* \"#utility.yul\":4401:4423   */\n  and\n    /* \"#utility.yul\":4451:4488   */\n  tag_82\n    /* \"#utility.yul\":4483:4487   */\n  dup7\n    /* \"#utility.yul\":4451:4488   */\n  tag_10\n  jump\t// in\ntag_82:\n    /* \"#utility.yul\":4510:4511   */\n  0x00\n    /* \"#utility.yul\":4524:4732   */\ntag_83:\n    /* \"#utility.yul\":4538:4545   */\n  dup3\n    /* \"#utility.yul\":4535:4536   */\n  dup2\n    /* \"#utility.yul\":4532:4546   */\n  lt\n    /* \"#utility.yul\":4524:4732   */\n  iszero\n  tag_85\n  jumpi\n    /* \"#utility.yul\":4617:4626   */\n  dup5\n    /* \"#utility.yul\":4612:4615   */\n  dup10\n    /* \"#utility.yul\":4608:4627   */\n  add\n    /* \"#utility.yul\":4602:4628   */\n  mload\n    /* \"#utility.yul\":4594:4600   */\n  dup3\n    /* \"#utility.yul\":4587:4629   */\n  sstore\n    /* \"#utility.yul\":4668:4669   */\n  0x01\n    /* \"#utility.yul\":4660:4666   */\n  dup3\n    /* \"#utility.yul\":4656:4670   */\n  add\n    /* \"#utility.yul\":4646:4670   */\n  swap2\n  pop\n    /* \"#utility.yul\":4715:4717   */\n  0x20\n    /* \"#utility.yul\":4704:4713   */\n  dup6\n    /* \"#utility.yul\":4700:4718   */\n  add\n    /* \"#utility.yul\":4687:4718   */\n  swap5\n  pop\n    /* \"#utility.yul\":4561:4565   */\n  0x20\n    /* \"#utility.yul\":4558:4559   */\n  dup2\n    /* \"#utility.yul\":4554:4566   */\n  add\n    /* \"#utility.yul\":4549:4566   */\n  swap1\n  pop\n    /* \"#utility.yul\":4524:4732   */\n  jump(tag_83)\ntag_85:\n    /* \"#utility.yul\":4760:4766   */\n  dup7\n    /* \"#utility.yul\":4751:4758   */\n  dup4\n    /* \"#utility.yul\":4748:4767   */\n  lt\n    /* \"#utility.yul\":4745:4924   */\n  iszero\n  tag_86\n  jumpi\n    /* \"#utility.yul\":4818:4827   */\n  dup5\n    /* \"#utility.yul\":4813:4816   */\n  dup10\n    /* \"#utility.yul\":4809:4828   */\n  add\n    /* \"#utility.yul\":4803:4829   */\n  mload\n    /* \"#utility.yul\":4861:4909   */\n  tag_87\n    /* \"#utility.yul\":4903:4907   */\n  0x1f\n    /* \"#utility.yul\":4895:4901   */\n  dup10\n    /* \"#utility.yul\":4891:4908   */\n  and\n    /* \"#utility.yul\":4880:4889   */\n  dup3\n    /* \"#utility.yul\":4861:4909   */\n  tag_24\n  jump\t// in\ntag_87:\n    /* \"#utility.yul\":4853:4859   */\n  dup4\n    /* \"#utility.yul\":4846:4910   */\n  sstore\n    /* \"#utility.yul\":4768:4924   */\n  pop\n    /* \"#utility.yul\":4745:4924   */\ntag_86:\n    /* \"#utility.yul\":4970:4971   */\n  0x01\n    /* \"#utility.yul\":4966:4967   */\n  0x02\n    /* \"#utility.yul\":4958:4964   */\n  dup9\n    /* \"#utility.yul\":4954:4968   */\n  mul\n    /* \"#utility.yul\":4950:4972   */\n  add\n    /* \"#utility.yul\":4944:4948   */\n  dup9\n    /* \"#utility.yul\":4937:4973   */\n  sstore\n    /* \"#utility.yul\":4372:4983   */\n  pop\n  pop\n  pop\n    /* \"#utility.yul\":4335:5222   */\ntag_78:\n  pop\n    /* \"#utility.yul\":3925:5228   */\n  pop\n  pop\n  pop\n    /* \"#utility.yul\":3833:5228   */\n  pop\n  pop\n  jump\t// out\n    /* \"SimpleStorage/SimpleStorage.sol\":259:4885  contract SimpleStorage {... */\ntag_5:\n  dataSize(sub_0)\n  dup1\n  dataOffset(sub_0)\n  0x00\n  codecopy\n  0x00\n  return\nstop\n\nsub_0: assembly {\n        /* \"SimpleStorage/SimpleStorage.sol\":259:4885  contract SimpleStorage {... */\n      mstore(0x40, 0x80)\n      callvalue\n      dup1\n      iszero\n      tag_1\n      jumpi\n      0x00\n      dup1\n      revert\n    tag_1:\n      pop\n      jumpi(tag_2, lt(calldatasize, 0x04))\n      shr(0xe0, calldataload(0x00))\n      dup1\n      0x8ae6ccb4\n      gt\n      tag_11\n      jumpi\n      dup1\n      0x8ae6ccb4\n      eq\n      tag_7\n      jumpi\n      dup1\n      0x8ca98874\n      eq\n      tag_8\n      jumpi\n      dup1\n      0xa621d15e\n      eq\n      tag_9\n      jumpi\n      dup1\n      0xdacb88e2\n      eq\n      tag_10\n      jumpi\n      jump(tag_2)\n    tag_11:\n      dup1\n      0x07511978\n      eq\n      tag_3\n      jumpi\n      dup1\n      0x48a7ffb7\n      eq\n      tag_4\n      jumpi\n      dup1\n      0x6057361d\n      eq\n      tag_5\n      jumpi\n      dup1\n      0x6663e66d\n      eq\n      tag_6\n      jumpi\n    tag_2:\n      0x00\n      dup1\n      revert\n        /* \"SimpleStorage/SimpleStorage.sol\":2422:2454  Person[3] public staticMyFriends */\n    tag_3:\n      tag_12\n      0x04\n      dup1\n      calldatasize\n      sub\n      dup2\n      add\n      swap1\n      tag_13\n      swap2\n      swap1\n      tag_14\n      jump\t// in\n    tag_13:\n      tag_15\n      jump\t// in\n    tag_12:\n      mload(0x40)\n      tag_16\n      swap4\n      swap3\n      swap2\n      swap1\n      tag_17\n      jump\t// in\n    tag_16:\n      mload(0x40)\n      dup1\n      swap2\n      sub\n      swap1\n      return\n        /* \"SimpleStorage/SimpleStorage.sol\":4005:4736  function add_friend(uint256 _age, string memory _name, bool _isCool) public returns(bool) {... */\n    tag_4:\n      tag_18\n      0x04\n      dup1\n      calldatasize\n      sub\n      dup2\n      add\n      swap1\n      tag_19\n      swap2\n      swap1\n      tag_20\n      jump\t// in\n    tag_19:\n      tag_21\n      jump\t// in\n    tag_18:\n      mload(0x40)\n      tag_22\n      swap2\n      swap1\n      tag_23\n      jump\t// in\n    tag_22:\n      mload(0x40)\n      dup1\n      swap2\n      sub\n      swap1\n      return\n        /* \"SimpleStorage/SimpleStorage.sol\":1000:1095  function store(uint _favoriteNumber) public {... */\n    tag_5:\n      tag_24\n      0x04\n      dup1\n      calldatasize\n      sub\n      dup2\n      add\n      swap1\n      tag_25\n      swap2\n      swap1\n      tag_14\n      jump\t// in\n    tag_25:\n      tag_26\n      jump\t// in\n    tag_24:\n      stop\n        /* \"SimpleStorage/SimpleStorage.sol\":2304:2329  Person[] public myFriends */\n    tag_6:\n      tag_27\n      0x04\n      dup1\n      calldatasize\n      sub\n      dup2\n      add\n      swap1\n      tag_28\n      swap2\n      swap1\n      tag_14\n      jump\t// in\n    tag_28:\n      tag_29\n      jump\t// in\n    tag_27:\n      mload(0x40)\n      tag_30\n      swap4\n      swap3\n      swap2\n      swap1\n      tag_17\n      jump\t// in\n    tag_30:\n      mload(0x40)\n      dup1\n      swap2\n      sub\n      swap1\n      return\n        /* \"SimpleStorage/SimpleStorage.sol\":4829:4877  mapping(string => uint256) public personToNumber */\n    tag_7:\n      tag_31\n      0x04\n      dup1\n      calldatasize\n      sub\n      dup2\n      add\n      swap1\n      tag_32\n      swap2\n      swap1\n      tag_33\n      jump\t// in\n    tag_32:\n      tag_34\n      jump\t// in\n    tag_31:\n      mload(0x40)\n      tag_35\n      swap2\n      swap1\n      tag_36\n      jump\t// in\n    tag_35:\n      mload(0x40)\n      dup1\n      swap2\n      sub\n      swap1\n      return\n        /* \"SimpleStorage/SimpleStorage.sol\":2164:2237  Person public Anahita = Person({age : 27, name: \"Anahita\", isCool: true}) */\n    tag_8:\n      tag_37\n      tag_38\n      jump\t// in\n    tag_37:\n      mload(0x40)\n      tag_39\n      swap4\n      swap3\n      swap2\n      swap1\n      tag_17\n      jump\t// in\n    tag_39:\n      mload(0x40)\n      dup1\n      swap2\n      sub\n      swap1\n      return\n        /* \"SimpleStorage/SimpleStorage.sol\":1463:1562  function getFavoriteNumber() public view returns (uint256) {... */\n    tag_9:\n      tag_40\n      tag_41\n      jump\t// in\n    tag_40:\n      mload(0x40)\n      tag_42\n      swap2\n      swap1\n      tag_36\n      jump\t// in\n    tag_42:\n      mload(0x40)\n      dup1\n      swap2\n      sub\n      swap1\n      return\n        /* \"SimpleStorage/SimpleStorage.sol\":2076:2119  Person public Ali = Person(22, \"Ali\", true) */\n    tag_10:\n      tag_43\n      tag_44\n      jump\t// in\n    tag_43:\n      mload(0x40)\n      tag_45\n      swap4\n      swap3\n      swap2\n      swap1\n      tag_17\n      jump\t// in\n    tag_45:\n      mload(0x40)\n      dup1\n      swap2\n      sub\n      swap1\n      return\n        /* \"SimpleStorage/SimpleStorage.sol\":2422:2454  Person[3] public staticMyFriends */\n    tag_15:\n      0x0a\n      dup2\n      0x03\n      dup2\n      lt\n      tag_46\n      jumpi\n      0x00\n      dup1\n      revert\n    tag_46:\n      0x03\n      mul\n      add\n      0x00\n      swap2\n      pop\n      swap1\n      pop\n      dup1\n      0x00\n      add\n      sload\n      swap1\n      dup1\n      0x01\n      add\n      dup1\n      sload\n      tag_48\n      swap1\n      tag_49\n      jump\t// in\n    tag_48:\n      dup1\n      0x1f\n      add\n      0x20\n      dup1\n      swap2\n      div\n      mul\n      0x20\n      add\n      mload(0x40)\n      swap1\n      dup2\n      add\n      0x40\n      mstore\n      dup1\n      swap3\n      swap2\n      swap1\n      dup2\n      dup2\n      mstore\n      0x20\n      add\n      dup3\n      dup1\n      sload\n      tag_50\n      swap1\n      tag_49\n      jump\t// in\n    tag_50:\n      dup1\n      iszero\n      tag_51\n      jumpi\n      dup1\n      0x1f\n      lt\n      tag_52\n      jumpi\n      0x0100\n      dup1\n      dup4\n      sload\n      div\n      mul\n      dup4\n      mstore\n      swap2\n      0x20\n      add\n      swap2\n      jump(tag_51)\n    tag_52:\n      dup3\n      add\n      swap2\n      swap1\n      0x00\n      mstore\n      keccak256(0x00, 0x20)\n      swap1\n    tag_53:\n      dup2\n      sload\n      dup2\n      mstore\n      swap1\n      0x01\n      add\n      swap1\n      0x20\n      add\n      dup1\n      dup4\n      gt\n      tag_53\n      jumpi\n      dup3\n      swap1\n      sub\n      0x1f\n      and\n      dup3\n      add\n      swap2\n    tag_51:\n      pop\n      pop\n      pop\n      pop\n      pop\n      swap1\n      dup1\n      0x02\n      add\n      0x00\n      swap1\n      sload\n      swap1\n      0x0100\n      exp\n      swap1\n      div\n      0xff\n      and\n      swap1\n      pop\n      dup4\n      jump\t// out\n        /* \"SimpleStorage/SimpleStorage.sol\":4005:4736  function add_friend(uint256 _age, string memory _name, bool _isCool) public returns(bool) {... */\n    tag_21:\n        /* \"SimpleStorage/SimpleStorage.sol\":4089:4093  bool */\n      0x00\n        /* \"SimpleStorage/SimpleStorage.sol\":4339:4348  myFriends */\n      0x09\n        /* \"SimpleStorage/SimpleStorage.sol\":4354:4403  Person({age: _age, name: _name, isCool: _isCool}) */\n      mload(0x40)\n      dup1\n      0x60\n      add\n      0x40\n      mstore\n      dup1\n        /* \"SimpleStorage/SimpleStorage.sol\":4367:4371  _age */\n      dup7\n        /* \"SimpleStorage/SimpleStorage.sol\":4354:4403  Person({age: _age, name: _name, isCool: _isCool}) */\n      dup2\n      mstore\n      0x20\n      add\n        /* \"SimpleStorage/SimpleStorage.sol\":4379:4384  _name */\n      dup6\n        /* \"SimpleStorage/SimpleStorage.sol\":4354:4403  Person({age: _age, name: _name, isCool: _isCool}) */\n      dup2\n      mstore\n      0x20\n      add\n        /* \"SimpleStorage/SimpleStorage.sol\":4394:4401  _isCool */\n      dup5\n        /* \"SimpleStorage/SimpleStorage.sol\":4354:4403  Person({age: _age, name: _name, isCool: _isCool}) */\n      iszero\n      iszero\n      dup2\n      mstore\n      pop\n        /* \"SimpleStorage/SimpleStorage.sol\":4339:4404  myFriends.push(Person({age: _age, name: _name, isCool: _isCool})) */\n      swap1\n      dup1\n      0x01\n      dup2\n      sload\n      add\n      dup1\n      dup3\n      sstore\n      dup1\n      swap2\n      pop\n      pop\n      0x01\n      swap1\n      sub\n      swap1\n      0x00\n      mstore\n      keccak256(0x00, 0x20)\n      swap1\n      0x03\n      mul\n      add\n      0x00\n      swap1\n      swap2\n      swap1\n      swap2\n      swap1\n      swap2\n      pop\n      0x00\n      dup3\n      add\n      mload\n      dup2\n      0x00\n      add\n      sstore\n      0x20\n      dup3\n      add\n      mload\n      dup2\n      0x01\n      add\n      swap1\n      dup2\n      tag_56\n      swap2\n      swap1\n      tag_57\n      jump\t// in\n    tag_56:\n      pop\n      0x40\n      dup3\n      add\n      mload\n      dup2\n      0x02\n      add\n      exp(0x0100, 0x00)\n      dup2\n      sload\n      dup2\n      0xff\n      mul\n      not\n      and\n      swap1\n      dup4\n      iszero\n      iszero\n      mul\n      or\n      swap1\n      sstore\n      pop\n      pop\n      pop\n        /* \"SimpleStorage/SimpleStorage.sol\":4601:4605  _age */\n      dup4\n        /* \"SimpleStorage/SimpleStorage.sol\":4577:4591  personToNumber */\n      0x13\n        /* \"SimpleStorage/SimpleStorage.sol\":4592:4597  _name */\n      dup5\n        /* \"SimpleStorage/SimpleStorage.sol\":4577:4598  personToNumber[_name] */\n      mload(0x40)\n      tag_58\n      swap2\n      swap1\n      tag_59\n      jump\t// in\n    tag_58:\n      swap1\n      dup2\n      mstore\n      0x20\n      add\n      mload(0x40)\n      dup1\n      swap2\n      sub\n      swap1\n      keccak256\n        /* \"SimpleStorage/SimpleStorage.sol\":4577:4605  personToNumber[_name] = _age */\n      dup2\n      swap1\n      sstore\n      pop\n        /* \"SimpleStorage/SimpleStorage.sol\":4615:4628  _name = \"ALI\" */\n      mload(0x40)\n      dup1\n      0x40\n      add\n      0x40\n      mstore\n      dup1\n      0x03\n      dup2\n      mstore\n      0x20\n      add\n      0x414c490000000000000000000000000000000000000000000000000000000000\n      dup2\n      mstore\n      pop\n      swap3\n      pop\n        /* \"SimpleStorage/SimpleStorage.sol\":4725:4729  true */\n      0x01\n        /* \"SimpleStorage/SimpleStorage.sol\":4718:4729  return true */\n      swap1\n      pop\n        /* \"SimpleStorage/SimpleStorage.sol\":4005:4736  function add_friend(uint256 _age, string memory _name, bool _isCool) public returns(bool) {... */\n      swap4\n      swap3\n      pop\n      pop\n      pop\n      jump\t// out\n        /* \"SimpleStorage/SimpleStorage.sol\":1000:1095  function store(uint _favoriteNumber) public {... */\n    tag_26:\n        /* \"SimpleStorage/SimpleStorage.sol\":1073:1088  _favoriteNumber */\n      dup1\n        /* \"SimpleStorage/SimpleStorage.sol\":1054:1070  myFavoriteNumber */\n      0x01\n        /* \"SimpleStorage/SimpleStorage.sol\":1054:1088  myFavoriteNumber = _favoriteNumber */\n      dup2\n      swap1\n      sstore\n      pop\n        /* \"SimpleStorage/SimpleStorage.sol\":1000:1095  function store(uint _favoriteNumber) public {... */\n      pop\n      jump\t// out\n        /* \"SimpleStorage/SimpleStorage.sol\":2304:2329  Person[] public myFriends */\n    tag_29:\n      0x09\n      dup2\n      dup2\n      sload\n      dup2\n      lt\n      tag_61\n      jumpi\n      0x00\n      dup1\n      revert\n    tag_61:\n      swap1\n      0x00\n      mstore\n      keccak256(0x00, 0x20)\n      swap1\n      0x03\n      mul\n      add\n      0x00\n      swap2\n      pop\n      swap1\n      pop\n      dup1\n      0x00\n      add\n      sload\n      swap1\n      dup1\n      0x01\n      add\n      dup1\n      sload\n      tag_63\n      swap1\n      tag_49\n      jump\t// in\n    tag_63:\n      dup1\n      0x1f\n      add\n      0x20\n      dup1\n      swap2\n      div\n      mul\n      0x20\n      add\n      mload(0x40)\n      swap1\n      dup2\n      add\n      0x40\n      mstore\n      dup1\n      swap3\n      swap2\n      swap1\n      dup2\n      dup2\n      mstore\n      0x20\n      add\n      dup3\n      dup1\n      sload\n      tag_64\n      swap1\n      tag_49\n      jump\t// in\n    tag_64:\n      dup1\n      iszero\n      tag_65\n      jumpi\n      dup1\n      0x1f\n      lt\n      tag_66\n      jumpi\n      0x0100\n      dup1\n      dup4\n      sload\n      div\n      mul\n      dup4\n      mstore\n      swap2\n      0x20\n      add\n      swap2\n      jump(tag_65)\n    tag_66:\n      dup3\n      add\n      swap2\n      swap1\n      0x00\n      mstore\n      keccak256(0x00, 0x20)\n      swap1\n    tag_67:\n      dup2\n      sload\n      dup2\n      mstore\n      swap1\n      0x01\n      add\n      swap1\n      0x20\n      add\n      dup1\n      dup4\n      gt\n      tag_67\n      jumpi\n      dup3\n      swap1\n      sub\n      0x1f\n      and\n      dup3\n      add\n      swap2\n    tag_65:\n      pop\n      pop\n      pop\n      pop\n      pop\n      swap1\n      dup1\n      0x02\n      add\n      0x00\n      swap1\n      sload\n      swap1\n      0x0100\n      exp\n      swap1\n      div\n      0xff\n      and\n      swap1\n      pop\n      dup4\n      jump\t// out\n        /* \"SimpleStorage/SimpleStorage.sol\":4829:4877  mapping(string => uint256) public personToNumber */\n    tag_34:\n      0x13\n      dup2\n      dup1\n      mload\n      0x20\n      dup2\n      add\n      dup3\n      add\n      dup1\n      mload\n      dup5\n      dup3\n      mstore\n      0x20\n      dup4\n      add\n      0x20\n      dup6\n      add\n      keccak256\n      dup2\n      dup4\n      mstore\n      dup1\n      swap6\n      pop\n      pop\n      pop\n      pop\n      pop\n      pop\n      0x00\n      swap2\n      pop\n      swap1\n      pop\n      sload\n      dup2\n      jump\t// out\n        /* \"SimpleStorage/SimpleStorage.sol\":2164:2237  Person public Anahita = Person({age : 27, name: \"Anahita\", isCool: true}) */\n    tag_38:\n      0x06\n      dup1\n      0x00\n      add\n      sload\n      swap1\n      dup1\n      0x01\n      add\n      dup1\n      sload\n      tag_68\n      swap1\n      tag_49\n      jump\t// in\n    tag_68:\n      dup1\n      0x1f\n      add\n      0x20\n      dup1\n      swap2\n      div\n      mul\n      0x20\n      add\n      mload(0x40)\n      swap1\n      dup2\n      add\n      0x40\n      mstore\n      dup1\n      swap3\n      swap2\n      swap1\n      dup2\n      dup2\n      mstore\n      0x20\n      add\n      dup3\n      dup1\n      sload\n      tag_69\n      swap1\n      tag_49\n      jump\t// in\n    tag_69:\n      dup1\n      iszero\n      tag_70\n      jumpi\n      dup1\n      0x1f\n      lt\n      tag_71\n      jumpi\n      0x0100\n      dup1\n      dup4\n      sload\n      div\n      mul\n      dup4\n      mstore\n      swap2\n      0x20\n      add\n      swap2\n      jump(tag_70)\n    tag_71:\n      dup3\n      add\n      swap2\n      swap1\n      0x00\n      mstore\n      keccak256(0x00, 0x20)\n      swap1\n    tag_72:\n      dup2\n      sload\n      dup2\n      mstore\n      swap1\n      0x01\n      add\n      swap1\n      0x20\n      add\n      dup1\n      dup4\n      gt\n      tag_72\n      jumpi\n      dup3\n      swap1\n      sub\n      0x1f\n      and\n      dup3\n      add\n      swap2\n    tag_70:\n      pop\n      pop\n      pop\n      pop\n      pop\n      swap1\n      dup1\n      0x02\n      add\n      0x00\n      swap1\n      sload\n      swap1\n      0x0100\n      exp\n      swap1\n      div\n      0xff\n      and\n      swap1\n      pop\n      dup4\n      jump\t// out\n        /* \"SimpleStorage/SimpleStorage.sol\":1463:1562  function getFavoriteNumber() public view returns (uint256) {... */\n    tag_41:\n        /* \"SimpleStorage/SimpleStorage.sol\":1513:1520  uint256 */\n      0x00\n        /* \"SimpleStorage/SimpleStorage.sol\":1539:1555  myFavoriteNumber */\n      sload(0x01)\n        /* \"SimpleStorage/SimpleStorage.sol\":1532:1555  return myFavoriteNumber */\n      swap1\n      pop\n        /* \"SimpleStorage/SimpleStorage.sol\":1463:1562  function getFavoriteNumber() public view returns (uint256) {... */\n      swap1\n      jump\t// out\n        /* \"SimpleStorage/SimpleStorage.sol\":2076:2119  Person public Ali = Person(22, \"Ali\", true) */\n    tag_44:\n      0x03\n      dup1\n      0x00\n      add\n      sload\n      swap1\n      dup1\n      0x01\n      add\n      dup1\n      sload\n      tag_74\n      swap1\n      tag_49\n      jump\t// in\n    tag_74:\n      dup1\n      0x1f\n      add\n      0x20\n      dup1\n      swap2\n      div\n      mul\n      0x20\n      add\n      mload(0x40)\n      swap1\n      dup2\n      add\n      0x40\n      mstore\n      dup1\n      swap3\n      swap2\n      swap1\n      dup2\n      dup2\n      mstore\n      0x20\n      add\n      dup3\n      dup1\n      sload\n      tag_75\n      swap1\n      tag_49\n      jump\t// in\n    tag_75:\n      dup1\n      iszero\n      tag_76\n      jumpi\n      dup1\n      0x1f\n      lt\n      tag_77\n      jumpi\n      0x0100\n      dup1\n      dup4\n      sload\n      div\n      mul\n      dup4\n      mstore\n      swap2\n      0x20\n      add\n      swap2\n      jump(tag_76)\n    tag_77:\n      dup3\n      add\n      swap2\n      swap1\n      0x00\n      mstore\n      keccak256(0x00, 0x20)\n      swap1\n    tag_78:\n      dup2\n      sload\n      dup2\n      mstore\n      swap1\n      0x01\n      add\n      swap1\n      0x20\n      add\n      dup1\n      dup4\n      gt\n      tag_78\n      jumpi\n      dup3\n      swap1\n      sub\n      0x1f\n      and\n      dup3\n      add\n      swap2\n    tag_76:\n      pop\n      pop\n      pop\n      pop\n      pop\n      swap1\n      dup1\n      0x02\n      add\n      0x00\n      swap1\n      sload\n      swap1\n      0x0100\n      exp\n      swap1\n      div\n      0xff\n      and\n      swap1\n      pop\n      dup4\n      jump\t// out\n        /* \"#utility.yul\":7:82   */\n    tag_79:\n        /* \"#utility.yul\":40:46   */\n      0x00\n        /* \"#utility.yul\":73:75   */\n      0x40\n        /* \"#utility.yul\":67:76   */\n      mload\n        /* \"#utility.yul\":57:76   */\n      swap1\n      pop\n        /* \"#utility.yul\":7:82   */\n      swap1\n      jump\t// out\n        /* \"#utility.yul\":88:205   */\n    tag_80:\n        /* \"#utility.yul\":197:198   */\n      0x00\n        /* \"#utility.yul\":194:195   */\n      dup1\n        /* \"#utility.yul\":187:199   */\n      revert\n        /* \"#utility.yul\":211:328   */\n    tag_81:\n        /* \"#utility.yul\":320:321   */\n      0x00\n        /* \"#utility.yul\":317:318   */\n      dup1\n        /* \"#utility.yul\":310:322   */\n      revert\n        /* \"#utility.yul\":334:411   */\n    tag_82:\n        /* \"#utility.yul\":371:378   */\n      0x00\n        /* \"#utility.yul\":400:405   */\n      dup2\n        /* \"#utility.yul\":389:405   */\n      swap1\n      pop\n        /* \"#utility.yul\":334:411   */\n      swap2\n      swap1\n      pop\n      jump\t// out\n        /* \"#utility.yul\":417:539   */\n    tag_83:\n        /* \"#utility.yul\":490:514   */\n      tag_128\n        /* \"#utility.yul\":508:513   */\n      dup2\n        /* \"#utility.yul\":490:514   */\n      tag_82\n      jump\t// in\n    tag_128:\n        /* \"#utility.yul\":483:488   */\n      dup2\n        /* \"#utility.yul\":480:515   */\n      eq\n        /* \"#utility.yul\":470:533   */\n      tag_129\n      jumpi\n        /* \"#utility.yul\":529:530   */\n      0x00\n        /* \"#utility.yul\":526:527   */\n      dup1\n        /* \"#utility.yul\":519:531   */\n      revert\n        /* \"#utility.yul\":470:533   */\n    tag_129:\n        /* \"#utility.yul\":417:539   */\n      pop\n      jump\t// out\n        /* \"#utility.yul\":545:684   */\n    tag_84:\n        /* \"#utility.yul\":591:596   */\n      0x00\n        /* \"#utility.yul\":629:635   */\n      dup2\n        /* \"#utility.yul\":616:636   */\n      calldataload\n        /* \"#utility.yul\":607:636   */\n      swap1\n      pop\n        /* \"#utility.yul\":645:678   */\n      tag_131\n        /* \"#utility.yul\":672:677   */\n      dup2\n        /* \"#utility.yul\":645:678   */\n      tag_83\n      jump\t// in\n    tag_131:\n        /* \"#utility.yul\":545:684   */\n      swap3\n      swap2\n      pop\n      pop\n      jump\t// out\n        /* \"#utility.yul\":690:1019   */\n    tag_14:\n        /* \"#utility.yul\":749:755   */\n      0x00\n        /* \"#utility.yul\":798:800   */\n      0x20\n        /* \"#utility.yul\":786:795   */\n      dup3\n        /* \"#utility.yul\":777:784   */\n      dup5\n        /* \"#utility.yul\":773:796   */\n      sub\n        /* \"#utility.yul\":769:801   */\n      slt\n        /* \"#utility.yul\":766:885   */\n      iszero\n      tag_133\n      jumpi\n        /* \"#utility.yul\":804:883   */\n      tag_134\n      tag_80\n      jump\t// in\n    tag_134:\n        /* \"#utility.yul\":766:885   */\n    tag_133:\n        /* \"#utility.yul\":924:925   */\n      0x00\n        /* \"#utility.yul\":949:1002   */\n      tag_135\n        /* \"#utility.yul\":994:1001   */\n      dup5\n        /* \"#utility.yul\":985:991   */\n      dup3\n        /* \"#utility.yul\":974:983   */\n      dup6\n        /* \"#utility.yul\":970:992   */\n      add\n        /* \"#utility.yul\":949:1002   */\n      tag_84\n      jump\t// in\n    tag_135:\n        /* \"#utility.yul\":939:1002   */\n      swap2\n      pop\n        /* \"#utility.yul\":895:1012   */\n      pop\n        /* \"#utility.yul\":690:1019   */\n      swap3\n      swap2\n      pop\n      pop\n      jump\t// out\n        /* \"#utility.yul\":1025:1143   */\n    tag_85:\n        /* \"#utility.yul\":1112:1136   */\n      tag_137\n        /* \"#utility.yul\":1130:1135   */\n      dup2\n        /* \"#utility.yul\":1112:1136   */\n      tag_82\n      jump\t// in\n    tag_137:\n        /* \"#utility.yul\":1107:1110   */\n      dup3\n        /* \"#utility.yul\":1100:1137   */\n      mstore\n        /* \"#utility.yul\":1025:1143   */\n      pop\n      pop\n      jump\t// out\n        /* \"#utility.yul\":1149:1248   */\n    tag_86:\n        /* \"#utility.yul\":1201:1207   */\n      0x00\n        /* \"#utility.yul\":1235:1240   */\n      dup2\n        /* \"#utility.yul\":1229:1241   */\n      mload\n        /* \"#utility.yul\":1219:1241   */\n      swap1\n      pop\n        /* \"#utility.yul\":1149:1248   */\n      swap2\n      swap1\n      pop\n      jump\t// out\n        /* \"#utility.yul\":1254:1423   */\n    tag_87:\n        /* \"#utility.yul\":1338:1349   */\n      0x00\n        /* \"#utility.yul\":1372:1378   */\n      dup3\n        /* \"#utility.yul\":1367:1370   */\n      dup3\n        /* \"#utility.yul\":1360:1379   */\n      mstore\n        /* \"#utility.yul\":1412:1416   */\n      0x20\n        /* \"#utility.yul\":1407:1410   */\n      dup3\n        /* \"#utility.yul\":1403:1417   */\n      add\n        /* \"#utility.yul\":1388:1417   */\n      swap1\n      pop\n        /* \"#utility.yul\":1254:1423   */\n      swap3\n      swap2\n      pop\n      pop\n      jump\t// out\n        /* \"#utility.yul\":1429:1675   */\n    tag_88:\n        /* \"#utility.yul\":1510:1511   */\n      0x00\n        /* \"#utility.yul\":1520:1633   */\n    tag_141:\n        /* \"#utility.yul\":1534:1540   */\n      dup4\n        /* \"#utility.yul\":1531:1532   */\n      dup2\n        /* \"#utility.yul\":1528:1541   */\n      lt\n        /* \"#utility.yul\":1520:1633   */\n      iszero\n      tag_143\n      jumpi\n        /* \"#utility.yul\":1619:1620   */\n      dup1\n        /* \"#utility.yul\":1614:1617   */\n      dup3\n        /* \"#utility.yul\":1610:1621   */\n      add\n        /* \"#utility.yul\":1604:1622   */\n      mload\n        /* \"#utility.yul\":1600:1601   */\n      dup2\n        /* \"#utility.yul\":1595:1598   */\n      dup5\n        /* \"#utility.yul\":1591:1602   */\n      add\n        /* \"#utility.yul\":1584:1623   */\n      mstore\n        /* \"#utility.yul\":1556:1558   */\n      0x20\n        /* \"#utility.yul\":1553:1554   */\n      dup2\n        /* \"#utility.yul\":1549:1559   */\n      add\n        /* \"#utility.yul\":1544:1559   */\n      swap1\n      pop\n        /* \"#utility.yul\":1520:1633   */\n      jump(tag_141)\n    tag_143:\n        /* \"#utility.yul\":1667:1668   */\n      0x00\n        /* \"#utility.yul\":1658:1664   */\n      dup5\n        /* \"#utility.yul\":1653:1656   */\n      dup5\n        /* \"#utility.yul\":1649:1665   */\n      add\n        /* \"#utility.yul\":1642:1669   */\n      mstore\n        /* \"#utility.yul\":1491:1675   */\n      pop\n        /* \"#utility.yul\":1429:1675   */\n      pop\n      pop\n      pop\n      jump\t// out\n        /* \"#utility.yul\":1681:1783   */\n    tag_89:\n        /* \"#utility.yul\":1722:1728   */\n      0x00\n        /* \"#utility.yul\":1773:1775   */\n      0x1f\n        /* \"#utility.yul\":1769:1776   */\n      not\n        /* \"#utility.yul\":1764:1766   */\n      0x1f\n        /* \"#utility.yul\":1757:1762   */\n      dup4\n        /* \"#utility.yul\":1753:1767   */\n      add\n        /* \"#utility.yul\":1749:1777   */\n      and\n        /* \"#utility.yul\":1739:1777   */\n      swap1\n      pop\n        /* \"#utility.yul\":1681:1783   */\n      swap2\n      swap1\n      pop\n      jump\t// out\n        /* \"#utility.yul\":1789:2166   */\n    tag_90:\n        /* \"#utility.yul\":1877:1880   */\n      0x00\n        /* \"#utility.yul\":1905:1944   */\n      tag_146\n        /* \"#utility.yul\":1938:1943   */\n      dup3\n        /* \"#utility.yul\":1905:1944   */\n      tag_86\n      jump\t// in\n    tag_146:\n        /* \"#utility.yul\":1960:2031   */\n      tag_147\n        /* \"#utility.yul\":2024:2030   */\n      dup2\n        /* \"#utility.yul\":2019:2022   */\n      dup6\n        /* \"#utility.yul\":1960:2031   */\n      tag_87\n      jump\t// in\n    tag_147:\n        /* \"#utility.yul\":1953:2031   */\n      swap4\n      pop\n        /* \"#utility.yul\":2040:2105   */\n      tag_148\n        /* \"#utility.yul\":2098:2104   */\n      dup2\n        /* \"#utility.yul\":2093:2096   */\n      dup6\n        /* \"#utility.yul\":2086:2090   */\n      0x20\n        /* \"#utility.yul\":2079:2084   */\n      dup7\n        /* \"#utility.yul\":2075:2091   */\n      add\n        /* \"#utility.yul\":2040:2105   */\n      tag_88\n      jump\t// in\n    tag_148:\n        /* \"#utility.yul\":2130:2159   */\n      tag_149\n        /* \"#utility.yul\":2152:2158   */\n      dup2\n        /* \"#utility.yul\":2130:2159   */\n      tag_89\n      jump\t// in\n    tag_149:\n        /* \"#utility.yul\":2125:2128   */\n      dup5\n        /* \"#utility.yul\":2121:2160   */\n      add\n        /* \"#utility.yul\":2114:2160   */\n      swap2\n      pop\n        /* \"#utility.yul\":1881:2166   */\n      pop\n        /* \"#utility.yul\":1789:2166   */\n      swap3\n      swap2\n      pop\n      pop\n      jump\t// out\n        /* \"#utility.yul\":2172:2262   */\n    tag_91:\n        /* \"#utility.yul\":2206:2213   */\n      0x00\n        /* \"#utility.yul\":2249:2254   */\n      dup2\n        /* \"#utility.yul\":2242:2255   */\n      iszero\n        /* \"#utility.yul\":2235:2256   */\n      iszero\n        /* \"#utility.yul\":2224:2256   */\n      swap1\n      pop\n        /* \"#utility.yul\":2172:2262   */\n      swap2\n      swap1\n      pop\n      jump\t// out\n        /* \"#utility.yul\":2268:2377   */\n    tag_92:\n        /* \"#utility.yul\":2349:2370   */\n      tag_152\n        /* \"#utility.yul\":2364:2369   */\n      dup2\n        /* \"#utility.yul\":2349:2370   */\n      tag_91\n      jump\t// in\n    tag_152:\n        /* \"#utility.yul\":2344:2347   */\n      dup3\n        /* \"#utility.yul\":2337:2371   */\n      mstore\n        /* \"#utility.yul\":2268:2377   */\n      pop\n      pop\n      jump\t// out\n        /* \"#utility.yul\":2383:2904   */\n    tag_17:\n        /* \"#utility.yul\":2546:2550   */\n      0x00\n        /* \"#utility.yul\":2584:2586   */\n      0x60\n        /* \"#utility.yul\":2573:2582   */\n      dup3\n        /* \"#utility.yul\":2569:2587   */\n      add\n        /* \"#utility.yul\":2561:2587   */\n      swap1\n      pop\n        /* \"#utility.yul\":2597:2668   */\n      tag_154\n        /* \"#utility.yul\":2665:2666   */\n      0x00\n        /* \"#utility.yul\":2654:2663   */\n      dup4\n        /* \"#utility.yul\":2650:2667   */\n      add\n        /* \"#utility.yul\":2641:2647   */\n      dup7\n        /* \"#utility.yul\":2597:2668   */\n      tag_85\n      jump\t// in\n    tag_154:\n        /* \"#utility.yul\":2715:2724   */\n      dup2\n        /* \"#utility.yul\":2709:2713   */\n      dup2\n        /* \"#utility.yul\":2705:2725   */\n      sub\n        /* \"#utility.yul\":2700:2702   */\n      0x20\n        /* \"#utility.yul\":2689:2698   */\n      dup4\n        /* \"#utility.yul\":2685:2703   */\n      add\n        /* \"#utility.yul\":2678:2726   */\n      mstore\n        /* \"#utility.yul\":2743:2821   */\n      tag_155\n        /* \"#utility.yul\":2816:2820   */\n      dup2\n        /* \"#utility.yul\":2807:2813   */\n      dup6\n        /* \"#utility.yul\":2743:2821   */\n      tag_90\n      jump\t// in\n    tag_155:\n        /* \"#utility.yul\":2735:2821   */\n      swap1\n      pop\n        /* \"#utility.yul\":2831:2897   */\n      tag_156\n        /* \"#utility.yul\":2893:2895   */\n      0x40\n        /* \"#utility.yul\":2882:2891   */\n      dup4\n        /* \"#utility.yul\":2878:2896   */\n      add\n        /* \"#utility.yul\":2869:2875   */\n      dup5\n        /* \"#utility.yul\":2831:2897   */\n      tag_92\n      jump\t// in\n    tag_156:\n        /* \"#utility.yul\":2383:2904   */\n      swap5\n      swap4\n      pop\n      pop\n      pop\n      pop\n      jump\t// out\n        /* \"#utility.yul\":2910:3027   */\n    tag_93:\n        /* \"#utility.yul\":3019:3020   */\n      0x00\n        /* \"#utility.yul\":3016:3017   */\n      dup1\n        /* \"#utility.yul\":3009:3021   */\n      revert\n        /* \"#utility.yul\":3033:3150   */\n    tag_94:\n        /* \"#utility.yul\":3142:3143   */\n      0x00\n        /* \"#utility.yul\":3139:3140   */\n      dup1\n        /* \"#utility.yul\":3132:3144   */\n      revert\n        /* \"#utility.yul\":3156:3336   */\n    tag_95:\n        /* \"#utility.yul\":3204:3281   */\n      0x4e487b7100000000000000000000000000000000000000000000000000000000\n        /* \"#utility.yul\":3201:3202   */\n      0x00\n        /* \"#utility.yul\":3194:3282   */\n      mstore\n        /* \"#utility.yul\":3301:3305   */\n      0x41\n        /* \"#utility.yul\":3298:3299   */\n      0x04\n        /* \"#utility.yul\":3291:3306   */\n      mstore\n        /* \"#utility.yul\":3325:3329   */\n      0x24\n        /* \"#utility.yul\":3322:3323   */\n      0x00\n        /* \"#utility.yul\":3315:3330   */\n      revert\n        /* \"#utility.yul\":3342:3623   */\n    tag_96:\n        /* \"#utility.yul\":3425:3452   */\n      tag_161\n        /* \"#utility.yul\":3447:3451   */\n      dup3\n        /* \"#utility.yul\":3425:3452   */\n      tag_89\n      jump\t// in\n    tag_161:\n        /* \"#utility.yul\":3417:3423   */\n      dup2\n        /* \"#utility.yul\":3413:3453   */\n      add\n        /* \"#utility.yul\":3555:3561   */\n      dup2\n        /* \"#utility.yul\":3543:3553   */\n      dup2\n        /* \"#utility.yul\":3540:3562   */\n      lt\n        /* \"#utility.yul\":3519:3537   */\n      0xffffffffffffffff\n        /* \"#utility.yul\":3507:3517   */\n      dup3\n        /* \"#utility.yul\":3504:3538   */\n      gt\n        /* \"#utility.yul\":3501:3563   */\n      or\n        /* \"#utility.yul\":3498:3586   */\n      iszero\n      tag_162\n      jumpi\n        /* \"#utility.yul\":3566:3584   */\n      tag_163\n      tag_95\n      jump\t// in\n    tag_163:\n        /* \"#utility.yul\":3498:3586   */\n    tag_162:\n        /* \"#utility.yul\":3606:3616   */\n      dup1\n        /* \"#utility.yul\":3602:3604   */\n      0x40\n        /* \"#utility.yul\":3595:3617   */\n      mstore\n        /* \"#utility.yul\":3385:3623   */\n      pop\n        /* \"#utility.yul\":3342:3623   */\n      pop\n      pop\n      jump\t// out\n        /* \"#utility.yul\":3629:3758   */\n    tag_97:\n        /* \"#utility.yul\":3663:3669   */\n      0x00\n        /* \"#utility.yul\":3690:3710   */\n      tag_165\n      tag_79\n      jump\t// in\n    tag_165:\n        /* \"#utility.yul\":3680:3710   */\n      swap1\n      pop\n        /* \"#utility.yul\":3719:3752   */\n      tag_166\n        /* \"#utility.yul\":3747:3751   */\n      dup3\n        /* \"#utility.yul\":3739:3745   */\n      dup3\n        /* \"#utility.yul\":3719:3752   */\n      tag_96\n      jump\t// in\n    tag_166:\n        /* \"#utility.yul\":3629:3758   */\n      swap2\n      swap1\n      pop\n      jump\t// out\n        /* \"#utility.yul\":3764:4072   */\n    tag_98:\n        /* \"#utility.yul\":3826:3830   */\n      0x00\n        /* \"#utility.yul\":3916:3934   */\n      0xffffffffffffffff\n        /* \"#utility.yul\":3908:3914   */\n      dup3\n        /* \"#utility.yul\":3905:3935   */\n      gt\n        /* \"#utility.yul\":3902:3958   */\n      iszero\n      tag_168\n      jumpi\n        /* \"#utility.yul\":3938:3956   */\n      tag_169\n      tag_95\n      jump\t// in\n    tag_169:\n        /* \"#utility.yul\":3902:3958   */\n    tag_168:\n        /* \"#utility.yul\":3976:4005   */\n      tag_170\n        /* \"#utility.yul\":3998:4004   */\n      dup3\n        /* \"#utility.yul\":3976:4005   */\n      tag_89\n      jump\t// in\n    tag_170:\n        /* \"#utility.yul\":3968:4005   */\n      swap1\n      pop\n        /* \"#utility.yul\":4060:4064   */\n      0x20\n        /* \"#utility.yul\":4054:4058   */\n      dup2\n        /* \"#utility.yul\":4050:4065   */\n      add\n        /* \"#utility.yul\":4042:4065   */\n      swap1\n      pop\n        /* \"#utility.yul\":3764:4072   */\n      swap2\n      swap1\n      pop\n      jump\t// out\n        /* \"#utility.yul\":4078:4224   */\n    tag_99:\n        /* \"#utility.yul\":4175:4181   */\n      dup3\n        /* \"#utility.yul\":4170:4173   */\n      dup2\n        /* \"#utility.yul\":4165:4168   */\n      dup4\n        /* \"#utility.yul\":4152:4182   */\n      calldatacopy\n        /* \"#utility.yul\":4216:4217   */\n      0x00\n        /* \"#utility.yul\":4207:4213   */\n      dup4\n        /* \"#utility.yul\":4202:4205   */\n      dup4\n        /* \"#utility.yul\":4198:4214   */\n      add\n        /* \"#utility.yul\":4191:4218   */\n      mstore\n        /* \"#utility.yul\":4078:4224   */\n      pop\n      pop\n      pop\n      jump\t// out\n        /* \"#utility.yul\":4230:4655   */\n    tag_100:\n        /* \"#utility.yul\":4308:4313   */\n      0x00\n        /* \"#utility.yul\":4333:4399   */\n      tag_173\n        /* \"#utility.yul\":4349:4398   */\n      tag_174\n        /* \"#utility.yul\":4391:4397   */\n      dup5\n        /* \"#utility.yul\":4349:4398   */\n      tag_98\n      jump\t// in\n    tag_174:\n        /* \"#utility.yul\":4333:4399   */\n      tag_97\n      jump\t// in\n    tag_173:\n        /* \"#utility.yul\":4324:4399   */\n      swap1\n      pop\n        /* \"#utility.yul\":4422:4428   */\n      dup3\n        /* \"#utility.yul\":4415:4420   */\n      dup2\n        /* \"#utility.yul\":4408:4429   */\n      mstore\n        /* \"#utility.yul\":4460:4464   */\n      0x20\n        /* \"#utility.yul\":4453:4458   */\n      dup2\n        /* \"#utility.yul\":4449:4465   */\n      add\n        /* \"#utility.yul\":4498:4501   */\n      dup5\n        /* \"#utility.yul\":4489:4495   */\n      dup5\n        /* \"#utility.yul\":4484:4487   */\n      dup5\n        /* \"#utility.yul\":4480:4496   */\n      add\n        /* \"#utility.yul\":4477:4502   */\n      gt\n        /* \"#utility.yul\":4474:4586   */\n      iszero\n      tag_175\n      jumpi\n        /* \"#utility.yul\":4505:4584   */\n      tag_176\n      tag_94\n      jump\t// in\n    tag_176:\n        /* \"#utility.yul\":4474:4586   */\n    tag_175:\n        /* \"#utility.yul\":4595:4649   */\n      tag_177\n        /* \"#utility.yul\":4642:4648   */\n      dup5\n        /* \"#utility.yul\":4637:4640   */\n      dup3\n        /* \"#utility.yul\":4632:4635   */\n      dup6\n        /* \"#utility.yul\":4595:4649   */\n      tag_99\n      jump\t// in\n    tag_177:\n        /* \"#utility.yul\":4314:4655   */\n      pop\n        /* \"#utility.yul\":4230:4655   */\n      swap4\n      swap3\n      pop\n      pop\n      pop\n      jump\t// out\n        /* \"#utility.yul\":4675:5015   */\n    tag_101:\n        /* \"#utility.yul\":4731:4736   */\n      0x00\n        /* \"#utility.yul\":4780:4783   */\n      dup3\n        /* \"#utility.yul\":4773:4777   */\n      0x1f\n        /* \"#utility.yul\":4765:4771   */\n      dup4\n        /* \"#utility.yul\":4761:4778   */\n      add\n        /* \"#utility.yul\":4757:4784   */\n      slt\n        /* \"#utility.yul\":4747:4869   */\n      tag_179\n      jumpi\n        /* \"#utility.yul\":4788:4867   */\n      tag_180\n      tag_93\n      jump\t// in\n    tag_180:\n        /* \"#utility.yul\":4747:4869   */\n    tag_179:\n        /* \"#utility.yul\":4905:4911   */\n      dup2\n        /* \"#utility.yul\":4892:4912   */\n      calldataload\n        /* \"#utility.yul\":4930:5009   */\n      tag_181\n        /* \"#utility.yul\":5005:5008   */\n      dup5\n        /* \"#utility.yul\":4997:5003   */\n      dup3\n        /* \"#utility.yul\":4990:4994   */\n      0x20\n        /* \"#utility.yul\":4982:4988   */\n      dup7\n        /* \"#utility.yul\":4978:4995   */\n      add\n        /* \"#utility.yul\":4930:5009   */\n      tag_100\n      jump\t// in\n    tag_181:\n        /* \"#utility.yul\":4921:5009   */\n      swap2\n      pop\n        /* \"#utility.yul\":4737:5015   */\n      pop\n        /* \"#utility.yul\":4675:5015   */\n      swap3\n      swap2\n      pop\n      pop\n      jump\t// out\n        /* \"#utility.yul\":5021:5137   */\n    tag_102:\n        /* \"#utility.yul\":5091:5112   */\n      tag_183\n        /* \"#utility.yul\":5106:5111   */\n      dup2\n        /* \"#utility.yul\":5091:5112   */\n      tag_91\n      jump\t// in\n    tag_183:\n        /* \"#utility.yul\":5084:5089   */\n      dup2\n        /* \"#utility.yul\":5081:5113   */\n      eq\n        /* \"#utility.yul\":5071:5131   */\n      tag_184\n      jumpi\n        /* \"#utility.yul\":5127:5128   */\n      0x00\n        /* \"#utility.yul\":5124:5125   */\n      dup1\n        /* \"#utility.yul\":5117:5129   */\n      revert\n        /* \"#utility.yul\":5071:5131   */\n    tag_184:\n        /* \"#utility.yul\":5021:5137   */\n      pop\n      jump\t// out\n        /* \"#utility.yul\":5143:5276   */\n    tag_103:\n        /* \"#utility.yul\":5186:5191   */\n      0x00\n        /* \"#utility.yul\":5224:5230   */\n      dup2\n        /* \"#utility.yul\":5211:5231   */\n      calldataload\n        /* \"#utility.yul\":5202:5231   */\n      swap1\n      pop\n        /* \"#utility.yul\":5240:5270   */\n      tag_186\n        /* \"#utility.yul\":5264:5269   */\n      dup2\n        /* \"#utility.yul\":5240:5270   */\n      tag_102\n      jump\t// in\n    tag_186:\n        /* \"#utility.yul\":5143:5276   */\n      swap3\n      swap2\n      pop\n      pop\n      jump\t// out\n        /* \"#utility.yul\":5282:6075   */\n    tag_20:\n        /* \"#utility.yul\":5366:5372   */\n      0x00\n        /* \"#utility.yul\":5374:5380   */\n      dup1\n        /* \"#utility.yul\":5382:5388   */\n      0x00\n        /* \"#utility.yul\":5431:5433   */\n      0x60\n        /* \"#utility.yul\":5419:5428   */\n      dup5\n        /* \"#utility.yul\":5410:5417   */\n      dup7\n        /* \"#utility.yul\":5406:5429   */\n      sub\n        /* \"#utility.yul\":5402:5434   */\n      slt\n        /* \"#utility.yul\":5399:5518   */\n      iszero\n      tag_188\n      jumpi\n        /* \"#utility.yul\":5437:5516   */\n      tag_189\n      tag_80\n      jump\t// in\n    tag_189:\n        /* \"#utility.yul\":5399:5518   */\n    tag_188:\n        /* \"#utility.yul\":5557:5558   */\n      0x00\n        /* \"#utility.yul\":5582:5635   */\n      tag_190\n        /* \"#utility.yul\":5627:5634   */\n      dup7\n        /* \"#utility.yul\":5618:5624   */\n      dup3\n        /* \"#utility.yul\":5607:5616   */\n      dup8\n        /* \"#utility.yul\":5603:5625   */\n      add\n        /* \"#utility.yul\":5582:5635   */\n      tag_84\n      jump\t// in\n    tag_190:\n        /* \"#utility.yul\":5572:5635   */\n      swap4\n      pop\n        /* \"#utility.yul\":5528:5645   */\n      pop\n        /* \"#utility.yul\":5712:5714   */\n      0x20\n        /* \"#utility.yul\":5701:5710   */\n      dup5\n        /* \"#utility.yul\":5697:5715   */\n      add\n        /* \"#utility.yul\":5684:5716   */\n      calldataload\n        /* \"#utility.yul\":5743:5761   */\n      0xffffffffffffffff\n        /* \"#utility.yul\":5735:5741   */\n      dup2\n        /* \"#utility.yul\":5732:5762   */\n      gt\n        /* \"#utility.yul\":5729:5846   */\n      iszero\n      tag_191\n      jumpi\n        /* \"#utility.yul\":5765:5844   */\n      tag_192\n      tag_81\n      jump\t// in\n    tag_192:\n        /* \"#utility.yul\":5729:5846   */\n    tag_191:\n        /* \"#utility.yul\":5870:5933   */\n      tag_193\n        /* \"#utility.yul\":5925:5932   */\n      dup7\n        /* \"#utility.yul\":5916:5922   */\n      dup3\n        /* \"#utility.yul\":5905:5914   */\n      dup8\n        /* \"#utility.yul\":5901:5923   */\n      add\n        /* \"#utility.yul\":5870:5933   */\n      tag_101\n      jump\t// in\n    tag_193:\n        /* \"#utility.yul\":5860:5933   */\n      swap3\n      pop\n        /* \"#utility.yul\":5655:5943   */\n      pop\n        /* \"#utility.yul\":5982:5984   */\n      0x40\n        /* \"#utility.yul\":6008:6058   */\n      tag_194\n        /* \"#utility.yul\":6050:6057   */\n      dup7\n        /* \"#utility.yul\":6041:6047   */\n      dup3\n        /* \"#utility.yul\":6030:6039   */\n      dup8\n        /* \"#utility.yul\":6026:6048   */\n      add\n        /* \"#utility.yul\":6008:6058   */\n      tag_103\n      jump\t// in\n    tag_194:\n        /* \"#utility.yul\":5998:6058   */\n      swap2\n      pop\n        /* \"#utility.yul\":5953:6068   */\n      pop\n        /* \"#utility.yul\":5282:6075   */\n      swap3\n      pop\n      swap3\n      pop\n      swap3\n      jump\t// out\n        /* \"#utility.yul\":6081:6291   */\n    tag_23:\n        /* \"#utility.yul\":6168:6172   */\n      0x00\n        /* \"#utility.yul\":6206:6208   */\n      0x20\n        /* \"#utility.yul\":6195:6204   */\n      dup3\n        /* \"#utility.yul\":6191:6209   */\n      add\n        /* \"#utility.yul\":6183:6209   */\n      swap1\n      pop\n        /* \"#utility.yul\":6219:6284   */\n      tag_196\n        /* \"#utility.yul\":6281:6282   */\n      0x00\n        /* \"#utility.yul\":6270:6279   */\n      dup4\n        /* \"#utility.yul\":6266:6283   */\n      add\n        /* \"#utility.yul\":6257:6263   */\n      dup5\n        /* \"#utility.yul\":6219:6284   */\n      tag_92\n      jump\t// in\n    tag_196:\n        /* \"#utility.yul\":6081:6291   */\n      swap3\n      swap2\n      pop\n      pop\n      jump\t// out\n        /* \"#utility.yul\":6297:6806   */\n    tag_33:\n        /* \"#utility.yul\":6366:6372   */\n      0x00\n        /* \"#utility.yul\":6415:6417   */\n      0x20\n        /* \"#utility.yul\":6403:6412   */\n      dup3\n        /* \"#utility.yul\":6394:6401   */\n      dup5\n        /* \"#utility.yul\":6390:6413   */\n      sub\n        /* \"#utility.yul\":6386:6418   */\n      slt\n        /* \"#utility.yul\":6383:6502   */\n      iszero\n      tag_198\n      jumpi\n        /* \"#utility.yul\":6421:6500   */\n      tag_199\n      tag_80\n      jump\t// in\n    tag_199:\n        /* \"#utility.yul\":6383:6502   */\n    tag_198:\n        /* \"#utility.yul\":6569:6570   */\n      0x00\n        /* \"#utility.yul\":6558:6567   */\n      dup3\n        /* \"#utility.yul\":6554:6571   */\n      add\n        /* \"#utility.yul\":6541:6572   */\n      calldataload\n        /* \"#utility.yul\":6599:6617   */\n      0xffffffffffffffff\n        /* \"#utility.yul\":6591:6597   */\n      dup2\n        /* \"#utility.yul\":6588:6618   */\n      gt\n        /* \"#utility.yul\":6585:6702   */\n      iszero\n      tag_200\n      jumpi\n        /* \"#utility.yul\":6621:6700   */\n      tag_201\n      tag_81\n      jump\t// in\n    tag_201:\n        /* \"#utility.yul\":6585:6702   */\n    tag_200:\n        /* \"#utility.yul\":6726:6789   */\n      tag_202\n        /* \"#utility.yul\":6781:6788   */\n      dup5\n        /* \"#utility.yul\":6772:6778   */\n      dup3\n        /* \"#utility.yul\":6761:6770   */\n      dup6\n        /* \"#utility.yul\":6757:6779   */\n      add\n        /* \"#utility.yul\":6726:6789   */\n      tag_101\n      jump\t// in\n    tag_202:\n        /* \"#utility.yul\":6716:6789   */\n      swap2\n      pop\n        /* \"#utility.yul\":6512:6799   */\n      pop\n        /* \"#utility.yul\":6297:6806   */\n      swap3\n      swap2\n      pop\n      pop\n      jump\t// out\n        /* \"#utility.yul\":6812:7034   */\n    tag_36:\n        /* \"#utility.yul\":6905:6909   */\n      0x00\n        /* \"#utility.yul\":6943:6945   */\n      0x20\n        /* \"#utility.yul\":6932:6941   */\n      dup3\n        /* \"#utility.yul\":6928:6946   */\n      add\n        /* \"#utility.yul\":6920:6946   */\n      swap1\n      pop\n        /* \"#utility.yul\":6956:7027   */\n      tag_204\n        /* \"#utility.yul\":7024:7025   */\n      0x00\n        /* \"#utility.yul\":7013:7022   */\n      dup4\n        /* \"#utility.yul\":7009:7026   */\n      add\n        /* \"#utility.yul\":7000:7006   */\n      dup5\n        /* \"#utility.yul\":6956:7027   */\n      tag_85\n      jump\t// in\n    tag_204:\n        /* \"#utility.yul\":6812:7034   */\n      swap3\n      swap2\n      pop\n      pop\n      jump\t// out\n        /* \"#utility.yul\":7040:7220   */\n    tag_104:\n        /* \"#utility.yul\":7088:7165   */\n      0x4e487b7100000000000000000000000000000000000000000000000000000000\n        /* \"#utility.yul\":7085:7086   */\n      0x00\n        /* \"#utility.yul\":7078:7166   */\n      mstore\n        /* \"#utility.yul\":7185:7189   */\n      0x22\n        /* \"#utility.yul\":7182:7183   */\n      0x04\n        /* \"#utility.yul\":7175:7190   */\n      mstore\n        /* \"#utility.yul\":7209:7213   */\n      0x24\n        /* \"#utility.yul\":7206:7207   */\n      0x00\n        /* \"#utility.yul\":7199:7214   */\n      revert\n        /* \"#utility.yul\":7226:7546   */\n    tag_49:\n        /* \"#utility.yul\":7270:7276   */\n      0x00\n        /* \"#utility.yul\":7307:7308   */\n      0x02\n        /* \"#utility.yul\":7301:7305   */\n      dup3\n        /* \"#utility.yul\":7297:7309   */\n      div\n        /* \"#utility.yul\":7287:7309   */\n      swap1\n      pop\n        /* \"#utility.yul\":7354:7355   */\n      0x01\n        /* \"#utility.yul\":7348:7352   */\n      dup3\n        /* \"#utility.yul\":7344:7356   */\n      and\n        /* \"#utility.yul\":7375:7393   */\n      dup1\n        /* \"#utility.yul\":7365:7446   */\n      tag_207\n      jumpi\n        /* \"#utility.yul\":7431:7435   */\n      0x7f\n        /* \"#utility.yul\":7423:7429   */\n      dup3\n        /* \"#utility.yul\":7419:7436   */\n      and\n        /* \"#utility.yul\":7409:7436   */\n      swap2\n      pop\n        /* \"#utility.yul\":7365:7446   */\n    tag_207:\n        /* \"#utility.yul\":7493:7495   */\n      0x20\n        /* \"#utility.yul\":7485:7491   */\n      dup3\n        /* \"#utility.yul\":7482:7496   */\n      lt\n        /* \"#utility.yul\":7462:7480   */\n      dup2\n        /* \"#utility.yul\":7459:7497   */\n      sub\n        /* \"#utility.yul\":7456:7540   */\n      tag_208\n      jumpi\n        /* \"#utility.yul\":7512:7530   */\n      tag_209\n      tag_104\n      jump\t// in\n    tag_209:\n        /* \"#utility.yul\":7456:7540   */\n    tag_208:\n        /* \"#utility.yul\":7277:7546   */\n      pop\n        /* \"#utility.yul\":7226:7546   */\n      swap2\n      swap1\n      pop\n      jump\t// out\n        /* \"#utility.yul\":7552:7693   */\n    tag_105:\n        /* \"#utility.yul\":7601:7605   */\n      0x00\n        /* \"#utility.yul\":7624:7627   */\n      dup2\n        /* \"#utility.yul\":7616:7627   */\n      swap1\n      pop\n        /* \"#utility.yul\":7647:7650   */\n      dup2\n        /* \"#utility.yul\":7644:7645   */\n      0x00\n        /* \"#utility.yul\":7637:7651   */\n      mstore\n        /* \"#utility.yul\":7681:7685   */\n      0x20\n        /* \"#utility.yul\":7678:7679   */\n      0x00\n        /* \"#utility.yul\":7668:7686   */\n      keccak256\n        /* \"#utility.yul\":7660:7686   */\n      swap1\n      pop\n        /* \"#utility.yul\":7552:7693   */\n      swap2\n      swap1\n      pop\n      jump\t// out\n        /* \"#utility.yul\":7699:7792   */\n    tag_106:\n        /* \"#utility.yul\":7736:7742   */\n      0x00\n        /* \"#utility.yul\":7783:7785   */\n      0x20\n        /* \"#utility.yul\":7778:7780   */\n      0x1f\n        /* \"#utility.yul\":7771:7776   */\n      dup4\n        /* \"#utility.yul\":7767:7781   */\n      add\n        /* \"#utility.yul\":7763:7786   */\n      div\n        /* \"#utility.yul\":7753:7786   */\n      swap1\n      pop\n        /* \"#utility.yul\":7699:7792   */\n      swap2\n      swap1\n      pop\n      jump\t// out\n        /* \"#utility.yul\":7798:7905   */\n    tag_107:\n        /* \"#utility.yul\":7842:7850   */\n      0x00\n        /* \"#utility.yul\":7892:7897   */\n      dup3\n        /* \"#utility.yul\":7886:7890   */\n      dup3\n        /* \"#utility.yul\":7882:7898   */\n      shl\n        /* \"#utility.yul\":7861:7898   */\n      swap1\n      pop\n        /* \"#utility.yul\":7798:7905   */\n      swap3\n      swap2\n      pop\n      pop\n      jump\t// out\n        /* \"#utility.yul\":7911:8304   */\n    tag_108:\n        /* \"#utility.yul\":7980:7986   */\n      0x00\n        /* \"#utility.yul\":8030:8031   */\n      0x08\n        /* \"#utility.yul\":8018:8028   */\n      dup4\n        /* \"#utility.yul\":8014:8032   */\n      mul\n        /* \"#utility.yul\":8053:8150   */\n      tag_214\n        /* \"#utility.yul\":8083:8149   */\n      0xffffffffffffffffffffffffffffffffffffffffffffffffffffffffffffffff\n        /* \"#utility.yul\":8072:8081   */\n      dup3\n        /* \"#utility.yul\":8053:8150   */\n      tag_107\n      jump\t// in\n    tag_214:\n        /* \"#utility.yul\":8171:8210   */\n      tag_215\n        /* \"#utility.yul\":8201:8209   */\n      dup7\n        /* \"#utility.yul\":8190:8199   */\n      dup4\n        /* \"#utility.yul\":8171:8210   */\n      tag_107\n      jump\t// in\n    tag_215:\n        /* \"#utility.yul\":8159:8210   */\n      swap6\n      pop\n        /* \"#utility.yul\":8243:8247   */\n      dup1\n        /* \"#utility.yul\":8239:8248   */\n      not\n        /* \"#utility.yul\":8232:8237   */\n      dup5\n        /* \"#utility.yul\":8228:8249   */\n      and\n        /* \"#utility.yul\":8219:8249   */\n      swap4\n      pop\n        /* \"#utility.yul\":8292:8296   */\n      dup1\n        /* \"#utility.yul\":8282:8290   */\n      dup7\n        /* \"#utility.yul\":8278:8297   */\n      and\n        /* \"#utility.yul\":8271:8276   */\n      dup5\n        /* \"#utility.yul\":8268:8298   */\n      or\n        /* \"#utility.yul\":8258:8298   */\n      swap3\n      pop\n        /* \"#utility.yul\":7987:8304   */\n      pop\n      pop\n        /* \"#utility.yul\":7911:8304   */\n      swap4\n      swap3\n      pop\n      pop\n      pop\n      jump\t// out\n        /* \"#utility.yul\":8310:8370   */\n    tag_109:\n        /* \"#utility.yul\":8338:8341   */\n      0x00\n        /* \"#utility.yul\":8359:8364   */\n      dup2\n        /* \"#utility.yul\":8352:8364   */\n      swap1\n      pop\n        /* \"#utility.yul\":8310:8370   */\n      swap2\n      swap1\n      pop\n      jump\t// out\n        /* \"#utility.yul\":8376:8518   */\n    tag_110:\n        /* \"#utility.yul\":8426:8435   */\n      0x00\n        /* \"#utility.yul\":8459:8512   */\n      tag_218\n        /* \"#utility.yul\":8477:8511   */\n      tag_219\n        /* \"#utility.yul\":8486:8510   */\n      tag_220\n        /* \"#utility.yul\":8504:8509   */\n      dup5\n        /* \"#utility.yul\":8486:8510   */\n      tag_82\n      jump\t// in\n    tag_220:\n        /* \"#utility.yul\":8477:8511   */\n      tag_109\n      jump\t// in\n    tag_219:\n        /* \"#utility.yul\":8459:8512   */\n      tag_82\n      jump\t// in\n    tag_218:\n        /* \"#utility.yul\":8446:8512   */\n      swap1\n      pop\n        /* \"#utility.yul\":8376:8518   */\n      swap2\n      swap1\n      pop\n      jump\t// out\n        /* \"#utility.yul\":8524:8599   */\n    tag_111:\n        /* \"#utility.yul\":8567:8570   */\n      0x00\n        /* \"#utility.yul\":8588:8593   */\n      dup2\n        /* \"#utility.yul\":8581:8593   */\n      swap1\n      pop\n        /* \"#utility.yul\":8524:8599   */\n      swap2\n      swap1\n      pop\n      jump\t// out\n        /* \"#utility.yul\":8605:8874   */\n    tag_112:\n        /* \"#utility.yul\":8715:8754   */\n      tag_223\n        /* \"#utility.yul\":8746:8753   */\n      dup4\n        /* \"#utility.yul\":8715:8754   */\n      tag_110\n      jump\t// in\n    tag_223:\n        /* \"#utility.yul\":8776:8867   */\n      tag_224\n        /* \"#utility.yul\":8825:8866   */\n      tag_225\n        /* \"#utility.yul\":8849:8865   */\n      dup3\n        /* \"#utility.yul\":8825:8866   */\n      tag_111\n      jump\t// in\n    tag_225:\n        /* \"#utility.yul\":8817:8823   */\n      dup5\n        /* \"#utility.yul\":8810:8814   */\n      dup5\n        /* \"#utility.yul\":8804:8815   */\n      sload\n        /* \"#utility.yul\":8776:8867   */\n      tag_108\n      jump\t// in\n    tag_224:\n        /* \"#utility.yul\":8770:8774   */\n      dup3\n        /* \"#utility.yul\":8763:8868   */\n      sstore\n        /* \"#utility.yul\":8681:8874   */\n      pop\n        /* \"#utility.yul\":8605:8874   */\n      pop\n      pop\n      pop\n      jump\t// out\n        /* \"#utility.yul\":8880:8953   */\n    tag_113:\n        /* \"#utility.yul\":8925:8928   */\n      0x00\n        /* \"#utility.yul\":8880:8953   */\n      swap1\n      jump\t// out\n        /* \"#utility.yul\":8959:9148   */\n    tag_114:\n        /* \"#utility.yul\":9036:9068   */\n      tag_228\n      tag_113\n      jump\t// in\n    tag_228:\n        /* \"#utility.yul\":9077:9142   */\n      tag_229\n        /* \"#utility.yul\":9135:9141   */\n      dup2\n        /* \"#utility.yul\":9127:9133   */\n      dup5\n        /* \"#utility.yul\":9121:9125   */\n      dup5\n        /* \"#utility.yul\":9077:9142   */\n      tag_112\n      jump\t// in\n    tag_229:\n        /* \"#utility.yul\":9012:9148   */\n      pop\n        /* \"#utility.yul\":8959:9148   */\n      pop\n      pop\n      jump\t// out\n        /* \"#utility.yul\":9154:9340   */\n    tag_115:\n        /* \"#utility.yul\":9214:9334   */\n    tag_231:\n        /* \"#utility.yul\":9231:9234   */\n      dup2\n        /* \"#utility.yul\":9224:9229   */\n      dup2\n        /* \"#utility.yul\":9221:9235   */\n      lt\n        /* \"#utility.yul\":9214:9334   */\n      iszero\n      tag_233\n      jumpi\n        /* \"#utility.yul\":9285:9324   */\n      tag_234\n        /* \"#utility.yul\":9322:9323   */\n      0x00\n        /* \"#utility.yul\":9315:9320   */\n      dup3\n        /* \"#utility.yul\":9285:9324   */\n      tag_114\n      jump\t// in\n    tag_234:\n        /* \"#utility.yul\":9258:9259   */\n      0x01\n        /* \"#utility.yul\":9251:9256   */\n      dup2\n        /* \"#utility.yul\":9247:9260   */\n      add\n        /* \"#utility.yul\":9238:9260   */\n      swap1\n      pop\n        /* \"#utility.yul\":9214:9334   */\n      jump(tag_231)\n    tag_233:\n        /* \"#utility.yul\":9154:9340   */\n      pop\n      pop\n      jump\t// out\n        /* \"#utility.yul\":9346:9889   */\n    tag_116:\n        /* \"#utility.yul\":9447:9449   */\n      0x1f\n        /* \"#utility.yul\":9442:9445   */\n      dup3\n        /* \"#utility.yul\":9439:9450   */\n      gt\n        /* \"#utility.yul\":9436:9882   */\n      iszero\n      tag_236\n      jumpi\n        /* \"#utility.yul\":9481:9519   */\n      tag_237\n        /* \"#utility.yul\":9513:9518   */\n      dup2\n        /* \"#utility.yul\":9481:9519   */\n      tag_105\n      jump\t// in\n    tag_237:\n        /* \"#utility.yul\":9565:9594   */\n      tag_238\n        /* \"#utility.yul\":9583:9593   */\n      dup5\n        /* \"#utility.yul\":9565:9594   */\n      tag_106\n      jump\t// in\n    tag_238:\n        /* \"#utility.yul\":9555:9563   */\n      dup2\n        /* \"#utility.yul\":9551:9595   */\n      add\n        /* \"#utility.yul\":9748:9750   */\n      0x20\n        /* \"#utility.yul\":9736:9746   */\n      dup6\n        /* \"#utility.yul\":9733:9751   */\n      lt\n        /* \"#utility.yul\":9730:9779   */\n      iszero\n      tag_239\n      jumpi\n        /* \"#utility.yul\":9769:9777   */\n      dup2\n        /* \"#utility.yul\":9754:9777   */\n      swap1\n      pop\n        /* \"#utility.yul\":9730:9779   */\n    tag_239:\n        /* \"#utility.yul\":9792:9872   */\n      tag_240\n        /* \"#utility.yul\":9848:9870   */\n      tag_241\n        /* \"#utility.yul\":9866:9869   */\n      dup6\n        /* \"#utility.yul\":9848:9870   */\n      tag_106\n      jump\t// in\n    tag_241:\n        /* \"#utility.yul\":9838:9846   */\n      dup4\n        /* \"#utility.yul\":9834:9871   */\n      add\n        /* \"#utility.yul\":9821:9832   */\n      dup3\n        /* \"#utility.yul\":9792:9872   */\n      tag_115\n      jump\t// in\n    tag_240:\n        /* \"#utility.yul\":9451:9882   */\n      pop\n      pop\n        /* \"#utility.yul\":9436:9882   */\n    tag_236:\n        /* \"#utility.yul\":9346:9889   */\n      pop\n      pop\n      pop\n      jump\t// out\n        /* \"#utility.yul\":9895:10012   */\n    tag_117:\n        /* \"#utility.yul\":9949:9957   */\n      0x00\n        /* \"#utility.yul\":9999:10004   */\n      dup3\n        /* \"#utility.yul\":9993:9997   */\n      dup3\n        /* \"#utility.yul\":9989:10005   */\n      shr\n        /* \"#utility.yul\":9968:10005   */\n      swap1\n      pop\n        /* \"#utility.yul\":9895:10012   */\n      swap3\n      swap2\n      pop\n      pop\n      jump\t// out\n        /* \"#utility.yul\":10018:10187   */\n    tag_118:\n        /* \"#utility.yul\":10062:10068   */\n      0x00\n        /* \"#utility.yul\":10095:10146   */\n      tag_244\n        /* \"#utility.yul\":10143:10144   */\n      0x00\n        /* \"#utility.yul\":10139:10145   */\n      not\n        /* \"#utility.yul\":10131:10136   */\n      dup5\n        /* \"#utility.yul\":10128:10129   */\n      0x08\n        /* \"#utility.yul\":10124:10137   */\n      mul\n        /* \"#utility.yul\":10095:10146   */\n      tag_117\n      jump\t// in\n    tag_244:\n        /* \"#utility.yul\":10091:10147   */\n      not\n        /* \"#utility.yul\":10176:10180   */\n      dup1\n        /* \"#utility.yul\":10170:10174   */\n      dup4\n        /* \"#utility.yul\":10166:10181   */\n      and\n        /* \"#utility.yul\":10156:10181   */\n      swap2\n      pop\n        /* \"#utility.yul\":10069:10187   */\n      pop\n        /* \"#utility.yul\":10018:10187   */\n      swap3\n      swap2\n      pop\n      pop\n      jump\t// out\n        /* \"#utility.yul\":10192:10487   */\n    tag_119:\n        /* \"#utility.yul\":10268:10272   */\n      0x00\n        /* \"#utility.yul\":10414:10443   */\n      tag_246\n        /* \"#utility.yul\":10439:10442   */\n      dup4\n        /* \"#utility.yul\":10433:10437   */\n      dup4\n        /* \"#utility.yul\":10414:10443   */\n      tag_118\n      jump\t// in\n    tag_246:\n        /* \"#utility.yul\":10406:10443   */\n      swap2\n      pop\n        /* \"#utility.yul\":10476:10479   */\n      dup3\n        /* \"#utility.yul\":10473:10474   */\n      0x02\n        /* \"#utility.yul\":10469:10480   */\n      mul\n        /* \"#utility.yul\":10463:10467   */\n      dup3\n        /* \"#utility.yul\":10460:10481   */\n      or\n        /* \"#utility.yul\":10452:10481   */\n      swap1\n      pop\n        /* \"#utility.yul\":10192:10487   */\n      swap3\n      swap2\n      pop\n      pop\n      jump\t// out\n        /* \"#utility.yul\":10492:11887   */\n    tag_57:\n        /* \"#utility.yul\":10609:10646   */\n      tag_248\n        /* \"#utility.yul\":10642:10645   */\n      dup3\n        /* \"#utility.yul\":10609:10646   */\n      tag_86\n      jump\t// in\n    tag_248:\n        /* \"#utility.yul\":10711:10729   */\n      0xffffffffffffffff\n        /* \"#utility.yul\":10703:10709   */\n      dup2\n        /* \"#utility.yul\":10700:10730   */\n      gt\n        /* \"#utility.yul\":10697:10753   */\n      iszero\n      tag_249\n      jumpi\n        /* \"#utility.yul\":10733:10751   */\n      tag_250\n      tag_95\n      jump\t// in\n    tag_250:\n        /* \"#utility.yul\":10697:10753   */\n    tag_249:\n        /* \"#utility.yul\":10777:10815   */\n      tag_251\n        /* \"#utility.yul\":10809:10813   */\n      dup3\n        /* \"#utility.yul\":10803:10814   */\n      sload\n        /* \"#utility.yul\":10777:10815   */\n      tag_49\n      jump\t// in\n    tag_251:\n        /* \"#utility.yul\":10862:10929   */\n      tag_252\n        /* \"#utility.yul\":10922:10928   */\n      dup3\n        /* \"#utility.yul\":10914:10920   */\n      dup3\n        /* \"#utility.yul\":10908:10912   */\n      dup6\n        /* \"#utility.yul\":10862:10929   */\n      tag_116\n      jump\t// in\n    tag_252:\n        /* \"#utility.yul\":10956:10957   */\n      0x00\n        /* \"#utility.yul\":10980:10984   */\n      0x20\n        /* \"#utility.yul\":10967:10984   */\n      swap1\n      pop\n        /* \"#utility.yul\":11012:11014   */\n      0x1f\n        /* \"#utility.yul\":11004:11010   */\n      dup4\n        /* \"#utility.yul\":11001:11015   */\n      gt\n        /* \"#utility.yul\":11029:11030   */\n      0x01\n        /* \"#utility.yul\":11024:11642   */\n      dup2\n      eq\n      tag_254\n      jumpi\n        /* \"#utility.yul\":11686:11687   */\n      0x00\n        /* \"#utility.yul\":11703:11709   */\n      dup5\n        /* \"#utility.yul\":11700:11777   */\n      iszero\n      tag_255\n      jumpi\n        /* \"#utility.yul\":11752:11761   */\n      dup3\n        /* \"#utility.yul\":11747:11750   */\n      dup8\n        /* \"#utility.yul\":11743:11762   */\n      add\n        /* \"#utility.yul\":11737:11763   */\n      mload\n        /* \"#utility.yul\":11728:11763   */\n      swap1\n      pop\n        /* \"#utility.yul\":11700:11777   */\n    tag_255:\n        /* \"#utility.yul\":11803:11870   */\n      tag_256\n        /* \"#utility.yul\":11863:11869   */\n      dup6\n        /* \"#utility.yul\":11856:11861   */\n      dup3\n        /* \"#utility.yul\":11803:11870   */\n      tag_119\n      jump\t// in\n    tag_256:\n        /* \"#utility.yul\":11797:11801   */\n      dup7\n        /* \"#utility.yul\":11790:11871   */\n      sstore\n        /* \"#utility.yul\":11659:11881   */\n      pop\n        /* \"#utility.yul\":10994:11881   */\n      jump(tag_253)\n        /* \"#utility.yul\":11024:11642   */\n    tag_254:\n        /* \"#utility.yul\":11076:11080   */\n      0x1f\n        /* \"#utility.yul\":11072:11081   */\n      not\n        /* \"#utility.yul\":11064:11070   */\n      dup5\n        /* \"#utility.yul\":11060:11082   */\n      and\n        /* \"#utility.yul\":11110:11147   */\n      tag_257\n        /* \"#utility.yul\":11142:11146   */\n      dup7\n        /* \"#utility.yul\":11110:11147   */\n      tag_105\n      jump\t// in\n    tag_257:\n        /* \"#utility.yul\":11169:11170   */\n      0x00\n        /* \"#utility.yul\":11183:11391   */\n    tag_258:\n        /* \"#utility.yul\":11197:11204   */\n      dup3\n        /* \"#utility.yul\":11194:11195   */\n      dup2\n        /* \"#utility.yul\":11191:11205   */\n      lt\n        /* \"#utility.yul\":11183:11391   */\n      iszero\n      tag_260\n      jumpi\n        /* \"#utility.yul\":11276:11285   */\n      dup5\n        /* \"#utility.yul\":11271:11274   */\n      dup10\n        /* \"#utility.yul\":11267:11286   */\n      add\n        /* \"#utility.yul\":11261:11287   */\n      mload\n        /* \"#utility.yul\":11253:11259   */\n      dup3\n        /* \"#utility.yul\":11246:11288   */\n      sstore\n        /* \"#utility.yul\":11327:11328   */\n      0x01\n        /* \"#utility.yul\":11319:11325   */\n      dup3\n        /* \"#utility.yul\":11315:11329   */\n      add\n        /* \"#utility.yul\":11305:11329   */\n      swap2\n      pop\n        /* \"#utility.yul\":11374:11376   */\n      0x20\n        /* \"#utility.yul\":11363:11372   */\n      dup6\n        /* \"#utility.yul\":11359:11377   */\n      add\n        /* \"#utility.yul\":11346:11377   */\n      swap5\n      pop\n        /* \"#utility.yul\":11220:11224   */\n      0x20\n        /* \"#utility.yul\":11217:11218   */\n      dup2\n        /* \"#utility.yul\":11213:11225   */\n      add\n        /* \"#utility.yul\":11208:11225   */\n      swap1\n      pop\n        /* \"#utility.yul\":11183:11391   */\n      jump(tag_258)\n    tag_260:\n        /* \"#utility.yul\":11419:11425   */\n      dup7\n        /* \"#utility.yul\":11410:11417   */\n      dup4\n        /* \"#utility.yul\":11407:11426   */\n      lt\n        /* \"#utility.yul\":11404:11583   */\n      iszero\n      tag_261\n      jumpi\n        /* \"#utility.yul\":11477:11486   */\n      dup5\n        /* \"#utility.yul\":11472:11475   */\n      dup10\n        /* \"#utility.yul\":11468:11487   */\n      add\n        /* \"#utility.yul\":11462:11488   */\n      mload\n        /* \"#utility.yul\":11520:11568   */\n      tag_262\n        /* \"#utility.yul\":11562:11566   */\n      0x1f\n        /* \"#utility.yul\":11554:11560   */\n      dup10\n        /* \"#utility.yul\":11550:11567   */\n      and\n        /* \"#utility.yul\":11539:11548   */\n      dup3\n        /* \"#utility.yul\":11520:11568   */\n      tag_118\n      jump\t// in\n    tag_262:\n        /* \"#utility.yul\":11512:11518   */\n      dup4\n        /* \"#utility.yul\":11505:11569   */\n      sstore\n        /* \"#utility.yul\":11427:11583   */\n      pop\n        /* \"#utility.yul\":11404:11583   */\n    tag_261:\n        /* \"#utility.yul\":11629:11630   */\n      0x01\n        /* \"#utility.yul\":11625:11626   */\n      0x02\n        /* \"#utility.yul\":11617:11623   */\n      dup9\n        /* \"#utility.yul\":11613:11627   */\n      mul\n        /* \"#utility.yul\":11609:11631   */\n      add\n        /* \"#utility.yul\":11603:11607   */\n      dup9\n        /* \"#utility.yul\":11596:11632   */\n      sstore\n        /* \"#utility.yul\":11031:11642   */\n      pop\n      pop\n      pop\n        /* \"#utility.yul\":10994:11881   */\n    tag_253:\n      pop\n        /* \"#utility.yul\":10584:11887   */\n      pop\n      pop\n      pop\n        /* \"#utility.yul\":10492:11887   */\n      pop\n      pop\n      jump\t// out\n        /* \"#utility.yul\":11893:12041   */\n    tag_120:\n        /* \"#utility.yul\":11995:12006   */\n      0x00\n        /* \"#utility.yul\":12032:12035   */\n      dup2\n        /* \"#utility.yul\":12017:12035   */\n      swap1\n      pop\n        /* \"#utility.yul\":11893:12041   */\n      swap3\n      swap2\n      pop\n      pop\n      jump\t// out\n        /* \"#utility.yul\":12047:12437   */\n    tag_121:\n        /* \"#utility.yul\":12153:12156   */\n      0x00\n        /* \"#utility.yul\":12181:12220   */\n      tag_265\n        /* \"#utility.yul\":12214:12219   */\n      dup3\n        /* \"#utility.yul\":12181:12220   */\n      tag_86\n      jump\t// in\n    tag_265:\n        /* \"#utility.yul\":12236:12325   */\n      tag_266\n        /* \"#utility.yul\":12318:12324   */\n      dup2\n        /* \"#utility.yul\":12313:12316   */\n      dup6\n        /* \"#utility.yul\":12236:12325   */\n      tag_120\n      jump\t// in\n    tag_266:\n        /* \"#utility.yul\":12229:12325   */\n      swap4\n      pop\n        /* \"#utility.yul\":12334:12399   */\n      tag_267\n        /* \"#utility.yul\":12392:12398   */\n      dup2\n        /* \"#utility.yul\":12387:12390   */\n      dup6\n        /* \"#utility.yul\":12380:12384   */\n      0x20\n        /* \"#utility.yul\":12373:12378   */\n      dup7\n        /* \"#utility.yul\":12369:12385   */\n      add\n        /* \"#utility.yul\":12334:12399   */\n      tag_88\n      jump\t// in\n    tag_267:\n        /* \"#utility.yul\":12424:12430   */\n      dup1\n        /* \"#utility.yul\":12419:12422   */\n      dup5\n        /* \"#utility.yul\":12415:12431   */\n      add\n        /* \"#utility.yul\":12408:12431   */\n      swap2\n      pop\n        /* \"#utility.yul\":12157:12437   */\n      pop\n        /* \"#utility.yul\":12047:12437   */\n      swap3\n      swap2\n      pop\n      pop\n      jump\t// out\n        /* \"#utility.yul\":12443:12718   */\n    tag_59:\n        /* \"#utility.yul\":12575:12578   */\n      0x00\n        /* \"#utility.yul\":12597:12692   */\n      tag_269\n        /* \"#utility.yul\":12688:12691   */\n      dup3\n        /* \"#utility.yul\":12679:12685   */\n      dup5\n        /* \"#utility.yul\":12597:12692   */\n      tag_121\n      jump\t// in\n    tag_269:\n        /* \"#utility.yul\":12590:12692   */\n      swap2\n      pop\n        /* \"#utility.yul\":12709:12712   */\n      dup2\n        /* \"#utility.yul\":12702:12712   */\n      swap1\n      pop\n        /* \"#utility.yul\":12443:12718   */\n      swap3\n      swap2\n      pop\n      pop\n      jump\t// out\n\n    auxdata: 0xa2646970667358221220a9e2f37f5468d13a28bd8256a57024ec1e78f727dc1b6fff8cbdb495ab9649ea64736f6c63430008130033\n}\n",
				"bytecode": {
					"linkReferences": {},
					"object": "608060405260016000806101000a81548160ff02191690831515021790555060586001556040518060600160405280601681526020016040518060400160405280600381526020017f416c69000000000000000000000000000000000000000000000000000000000081525081526020016001151581525060036000820151816000015560208201518160010190816200009a9190620003e5565b5060408201518160020160006101000a81548160ff02191690831515021790555050506040518060600160405280601b81526020016040518060400160405280600781526020017f416e6168697461000000000000000000000000000000000000000000000000008152508152602001600115158152506006600082015181600001556020820151816001019081620001349190620003e5565b5060408201518160020160006101000a81548160ff02191690831515021790555050503480156200016457600080fd5b50620004cc565b600081519050919050565b7f4e487b7100000000000000000000000000000000000000000000000000000000600052604160045260246000fd5b7f4e487b7100000000000000000000000000000000000000000000000000000000600052602260045260246000fd5b60006002820490506001821680620001ed57607f821691505b602082108103620002035762000202620001a5565b5b50919050565b60008190508160005260206000209050919050565b60006020601f8301049050919050565b600082821b905092915050565b6000600883026200026d7fffffffffffffffffffffffffffffffffffffffffffffffffffffffffffffffff826200022e565b6200027986836200022e565b95508019841693508086168417925050509392505050565b6000819050919050565b6000819050919050565b6000620002c6620002c0620002ba8462000291565b6200029b565b62000291565b9050919050565b6000819050919050565b620002e283620002a5565b620002fa620002f182620002cd565b8484546200023b565b825550505050565b600090565b6200031162000302565b6200031e818484620002d7565b505050565b5b8181101562000346576200033a60008262000307565b60018101905062000324565b5050565b601f82111562000395576200035f8162000209565b6200036a846200021e565b810160208510156200037a578190505b6200039262000389856200021e565b83018262000323565b50505b505050565b600082821c905092915050565b6000620003ba600019846008026200039a565b1980831691505092915050565b6000620003d58383620003a7565b9150826002028217905092915050565b620003f0826200016b565b67ffffffffffffffff8111156200040c576200040b62000176565b5b620004188254620001d4565b620004258282856200034a565b600060209050601f8311600181146200045d576000841562000448578287015190505b620004548582620003c7565b865550620004c4565b601f1984166200046d8662000209565b60005b82811015620004975784890151825560018201915060208501945060208101905062000470565b86831015620004b75784890151620004b3601f891682620003a7565b8355505b6001600288020188555050505b505050505050565b610d1280620004dc6000396000f3fe608060405234801561001057600080fd5b50600436106100885760003560e01c80638ae6ccb41161005b5780638ae6ccb41461013d5780638ca988741461016d578063a621d15e1461018d578063dacb88e2146101ab57610088565b8063075119781461008d57806348a7ffb7146100bf5780636057361d146100ef5780636663e66d1461010b575b600080fd5b6100a760048036038101906100a29190610637565b6101cb565b6040516100b69392919061071e565b60405180910390f35b6100d960048036038101906100d491906108bd565b610290565b6040516100e6919061092c565b60405180910390f35b61010960048036038101906101049190610637565b610382565b005b61012560048036038101906101209190610637565b61038c565b6040516101349392919061071e565b60405180910390f35b61015760048036038101906101529190610947565b61045b565b6040516101649190610990565b60405180910390f35b610175610489565b6040516101849392919061071e565b60405180910390f35b610195610536565b6040516101a29190610990565b60405180910390f35b6101b3610540565b6040516101c29392919061071e565b60405180910390f35b600a81600381106101db57600080fd5b600302016000915090508060000154908060010180546101fa906109da565b80601f0160208091040260200160405190810160405280929190818152602001828054610226906109da565b80156102735780601f1061024857610100808354040283529160200191610273565b820191906000526020600020905b81548152906001019060200180831161025657829003601f168201915b5050505050908060020160009054906101000a900460ff16905083565b60006009604051806060016040528086815260200185815260200184151581525090806001815401808255809150506001900390600052602060002090600302016000909190919091506000820151816000015560208201518160010190816102f99190610bb7565b5060408201518160020160006101000a81548160ff02191690831515021790555050508360138460405161032d9190610cc5565b9081526020016040518091039020819055506040518060400160405280600381526020017f414c4900000000000000000000000000000000000000000000000000000000008152509250600190509392505050565b8060018190555050565b6009818154811061039c57600080fd5b90600052602060002090600302016000915090508060000154908060010180546103c5906109da565b80601f01602080910402602001604051908101604052809291908181526020018280546103f1906109da565b801561043e5780601f106104135761010080835404028352916020019161043e565b820191906000526020600020905b81548152906001019060200180831161042157829003601f168201915b5050505050908060020160009054906101000a900460ff16905083565b6013818051602081018201805184825260208301602085012081835280955050505050506000915090505481565b60068060000154908060010180546104a0906109da565b80601f01602080910402602001604051908101604052809291908181526020018280546104cc906109da565b80156105195780601f106104ee57610100808354040283529160200191610519565b820191906000526020600020905b8154815290600101906020018083116104fc57829003601f168201915b5050505050908060020160009054906101000a900460ff16905083565b6000600154905090565b6003806000015490806001018054610557906109da565b80601f0160208091040260200160405190810160405280929190818152602001828054610583906109da565b80156105d05780601f106105a5576101008083540402835291602001916105d0565b820191906000526020600020905b8154815290600101906020018083116105b357829003601f168201915b5050505050908060020160009054906101000a900460ff16905083565b6000604051905090565b600080fd5b600080fd5b6000819050919050565b61061481610601565b811461061f57600080fd5b50565b6000813590506106318161060b565b92915050565b60006020828403121561064d5761064c6105f7565b5b600061065b84828501610622565b91505092915050565b61066d81610601565b82525050565b600081519050919050565b600082825260208201905092915050565b60005b838110156106ad578082015181840152602081019050610692565b60008484015250505050565b6000601f19601f8301169050919050565b60006106d582610673565b6106df818561067e565b93506106ef81856020860161068f565b6106f8816106b9565b840191505092915050565b60008115159050919050565b61071881610703565b82525050565b60006060820190506107336000830186610664565b818103602083015261074581856106ca565b9050610754604083018461070f565b949350505050565b600080fd5b600080fd5b7f4e487b7100000000000000000000000000000000000000000000000000000000600052604160045260246000fd5b61079e826106b9565b810181811067ffffffffffffffff821117156107bd576107bc610766565b5b80604052505050565b60006107d06105ed565b90506107dc8282610795565b919050565b600067ffffffffffffffff8211156107fc576107fb610766565b5b610805826106b9565b9050602081019050919050565b82818337600083830152505050565b600061083461082f846107e1565b6107c6565b9050828152602081018484840111156108505761084f610761565b5b61085b848285610812565b509392505050565b600082601f8301126108785761087761075c565b5b8135610888848260208601610821565b91505092915050565b61089a81610703565b81146108a557600080fd5b50565b6000813590506108b781610891565b92915050565b6000806000606084860312156108d6576108d56105f7565b5b60006108e486828701610622565b935050602084013567ffffffffffffffff811115610905576109046105fc565b5b61091186828701610863565b9250506040610922868287016108a8565b9150509250925092565b6000602082019050610941600083018461070f565b92915050565b60006020828403121561095d5761095c6105f7565b5b600082013567ffffffffffffffff81111561097b5761097a6105fc565b5b61098784828501610863565b91505092915050565b60006020820190506109a56000830184610664565b92915050565b7f4e487b7100000000000000000000000000000000000000000000000000000000600052602260045260246000fd5b600060028204905060018216806109f257607f821691505b602082108103610a0557610a046109ab565b5b50919050565b60008190508160005260206000209050919050565b60006020601f8301049050919050565b600082821b905092915050565b600060088302610a6d7fffffffffffffffffffffffffffffffffffffffffffffffffffffffffffffffff82610a30565b610a778683610a30565b95508019841693508086168417925050509392505050565b6000819050919050565b6000610ab4610aaf610aaa84610601565b610a8f565b610601565b9050919050565b6000819050919050565b610ace83610a99565b610ae2610ada82610abb565b848454610a3d565b825550505050565b600090565b610af7610aea565b610b02818484610ac5565b505050565b5b81811015610b2657610b1b600082610aef565b600181019050610b08565b5050565b601f821115610b6b57610b3c81610a0b565b610b4584610a20565b81016020851015610b54578190505b610b68610b6085610a20565b830182610b07565b50505b505050565b600082821c905092915050565b6000610b8e60001984600802610b70565b1980831691505092915050565b6000610ba78383610b7d565b9150826002028217905092915050565b610bc082610673565b67ffffffffffffffff811115610bd957610bd8610766565b5b610be382546109da565b610bee828285610b2a565b600060209050601f831160018114610c215760008415610c0f578287015190505b610c198582610b9b565b865550610c81565b601f198416610c2f86610a0b565b60005b82811015610c5757848901518255600182019150602085019450602081019050610c32565b86831015610c745784890151610c70601f891682610b7d565b8355505b6001600288020188555050505b505050505050565b600081905092915050565b6000610c9f82610673565b610ca98185610c89565b9350610cb981856020860161068f565b80840191505092915050565b6000610cd18284610c94565b91508190509291505056fea2646970667358221220a9e2f37f5468d13a28bd8256a57024ec1e78f727dc1b6fff8cbdb495ab9649ea64736f6c63430008130033",
					"opcodes": "PUSH1 0x80 PUSH1 0x40 MSTORE PUSH1 0x1 PUSH1 0x0 DUP1 PUSH2 0x100 EXP DUP2 SLOAD DUP2 PUSH1 0xFF MUL NOT AND SWAP1 DUP4 ISZERO ISZERO MUL OR SWAP1 SSTORE POP PUSH1 0x58 PUSH1 0x1 SSTORE PUSH1 0x40 MLOAD DUP1 PUSH1 0x60 ADD PUSH1 0x40 MSTORE DUP1 PUSH1 0x16 DUP2 MSTORE PUSH1 0x20 ADD PUSH1 0x40 MLOAD DUP1 PUSH1 0x40 ADD PUSH1 0x40 MSTORE DUP1 PUSH1 0x3 DUP2 MSTORE PUSH1 0x20 ADD PUSH32 0x416C690000000000000000000000000000000000000000000000000000000000 DUP2 MSTORE POP DUP2 MSTORE PUSH1 0x20 ADD PUSH1 0x1 ISZERO ISZERO DUP2 MSTORE POP PUSH1 0x3 PUSH1 0x0 DUP3 ADD MLOAD DUP2 PUSH1 0x0 ADD SSTORE PUSH1 0x20 DUP3 ADD MLOAD DUP2 PUSH1 0x1 ADD SWAP1 DUP2 PUSH3 0x9A SWAP2 SWAP1 PUSH3 0x3E5 JUMP JUMPDEST POP PUSH1 0x40 DUP3 ADD MLOAD DUP2 PUSH1 0x2 ADD PUSH1 0x0 PUSH2 0x100 EXP DUP2 SLOAD DUP2 PUSH1 0xFF MUL NOT AND SWAP1 DUP4 ISZERO ISZERO MUL OR SWAP1 SSTORE POP POP POP PUSH1 0x40 MLOAD DUP1 PUSH1 0x60 ADD PUSH1 0x40 MSTORE DUP1 PUSH1 0x1B DUP2 MSTORE PUSH1 0x20 ADD PUSH1 0x40 MLOAD DUP1 PUSH1 0x40 ADD PUSH1 0x40 MSTORE DUP1 PUSH1 0x7 DUP2 MSTORE PUSH1 0x20 ADD PUSH32 0x416E616869746100000000000000000000000000000000000000000000000000 DUP2 MSTORE POP DUP2 MSTORE PUSH1 0x20 ADD PUSH1 0x1 ISZERO ISZERO DUP2 MSTORE POP PUSH1 0x6 PUSH1 0x0 DUP3 ADD MLOAD DUP2 PUSH1 0x0 ADD SSTORE PUSH1 0x20 DUP3 ADD MLOAD DUP2 PUSH1 0x1 ADD SWAP1 DUP2 PUSH3 0x134 SWAP2 SWAP1 PUSH3 0x3E5 JUMP JUMPDEST POP PUSH1 0x40 DUP3 ADD MLOAD DUP2 PUSH1 0x2 ADD PUSH1 0x0 PUSH2 0x100 EXP DUP2 SLOAD DUP2 PUSH1 0xFF MUL NOT AND SWAP1 DUP4 ISZERO ISZERO MUL OR SWAP1 SSTORE POP POP POP CALLVALUE DUP1 ISZERO PUSH3 0x164 JUMPI PUSH1 0x0 DUP1 REVERT JUMPDEST POP PUSH3 0x4CC JUMP JUMPDEST PUSH1 0x0 DUP2 MLOAD SWAP1 POP SWAP2 SWAP1 POP JUMP JUMPDEST PUSH32 0x4E487B7100000000000000000000000000000000000000000000000000000000 PUSH1 0x0 MSTORE PUSH1 0x41 PUSH1 0x4 MSTORE PUSH1 0x24 PUSH1 0x0 REVERT JUMPDEST PUSH32 0x4E487B7100000000000000000000000000000000000000000000000000000000 PUSH1 0x0 MSTORE PUSH1 0x22 PUSH1 0x4 MSTORE PUSH1 0x24 PUSH1 0x0 REVERT JUMPDEST PUSH1 0x0 PUSH1 0x2 DUP3 DIV SWAP1 POP PUSH1 0x1 DUP3 AND DUP1 PUSH3 0x1ED JUMPI PUSH1 0x7F DUP3 AND SWAP2 POP JUMPDEST PUSH1 0x20 DUP3 LT DUP2 SUB PUSH3 0x203 JUMPI PUSH3 0x202 PUSH3 0x1A5 JUMP JUMPDEST JUMPDEST POP SWAP2 SWAP1 POP JUMP JUMPDEST PUSH1 0x0 DUP2 SWAP1 POP DUP2 PUSH1 0x0 MSTORE PUSH1 0x20 PUSH1 0x0 KECCAK256 SWAP1 POP SWAP2 SWAP1 POP JUMP JUMPDEST PUSH1 0x0 PUSH1 0x20 PUSH1 0x1F DUP4 ADD DIV SWAP1 POP SWAP2 SWAP1 POP JUMP JUMPDEST PUSH1 0x0 DUP3 DUP3 SHL SWAP1 POP SWAP3 SWAP2 POP POP JUMP JUMPDEST PUSH1 0x0 PUSH1 0x8 DUP4 MUL PUSH3 0x26D PUSH32 0xFFFFFFFFFFFFFFFFFFFFFFFFFFFFFFFFFFFFFFFFFFFFFFFFFFFFFFFFFFFFFFFF DUP3 PUSH3 0x22E JUMP JUMPDEST PUSH3 0x279 DUP7 DUP4 PUSH3 0x22E JUMP JUMPDEST SWAP6 POP DUP1 NOT DUP5 AND SWAP4 POP DUP1 DUP7 AND DUP5 OR SWAP3 POP POP POP SWAP4 SWAP3 POP POP POP JUMP JUMPDEST PUSH1 0x0 DUP2 SWAP1 POP SWAP2 SWAP1 POP JUMP JUMPDEST PUSH1 0x0 DUP2 SWAP1 POP SWAP2 SWAP1 POP JUMP JUMPDEST PUSH1 0x0 PUSH3 0x2C6 PUSH3 0x2C0 PUSH3 0x2BA DUP5 PUSH3 0x291 JUMP JUMPDEST PUSH3 0x29B JUMP JUMPDEST PUSH3 0x291 JUMP JUMPDEST SWAP1 POP SWAP2 SWAP1 POP JUMP JUMPDEST PUSH1 0x0 DUP2 SWAP1 POP SWAP2 SWAP1 POP JUMP JUMPDEST PUSH3 0x2E2 DUP4 PUSH3 0x2A5 JUMP JUMPDEST PUSH3 0x2FA PUSH3 0x2F1 DUP3 PUSH3 0x2CD JUMP JUMPDEST DUP5 DUP5 SLOAD PUSH3 0x23B JUMP JUMPDEST DUP3 SSTORE POP POP POP POP JUMP JUMPDEST PUSH1 0x0 SWAP1 JUMP JUMPDEST PUSH3 0x311 PUSH3 0x302 JUMP JUMPDEST PUSH3 0x31E DUP2 DUP5 DUP5 PUSH3 0x2D7 JUMP JUMPDEST POP POP POP JUMP JUMPDEST JUMPDEST DUP2 DUP2 LT ISZERO PUSH3 0x346 JUMPI PUSH3 0x33A PUSH1 0x0 DUP3 PUSH3 0x307 JUMP JUMPDEST PUSH1 0x1 DUP2 ADD SWAP1 POP PUSH3 0x324 JUMP JUMPDEST POP POP JUMP JUMPDEST PUSH1 0x1F DUP3 GT ISZERO PUSH3 0x395 JUMPI PUSH3 0x35F DUP2 PUSH3 0x209 JUMP JUMPDEST PUSH3 0x36A DUP5 PUSH3 0x21E JUMP JUMPDEST DUP2 ADD PUSH1 0x20 DUP6 LT ISZERO PUSH3 0x37A JUMPI DUP2 SWAP1 POP JUMPDEST PUSH3 0x392 PUSH3 0x389 DUP6 PUSH3 0x21E JUMP JUMPDEST DUP4 ADD DUP3 PUSH3 0x323 JUMP JUMPDEST POP POP JUMPDEST POP POP POP JUMP JUMPDEST PUSH1 0x0 DUP3 DUP3 SHR SWAP1 POP SWAP3 SWAP2 POP POP JUMP JUMPDEST PUSH1 0x0 PUSH3 0x3BA PUSH1 0x0 NOT DUP5 PUSH1 0x8 MUL PUSH3 0x39A JUMP JUMPDEST NOT DUP1 DUP4 AND SWAP2 POP POP SWAP3 SWAP2 POP POP JUMP JUMPDEST PUSH1 0x0 PUSH3 0x3D5 DUP4 DUP4 PUSH3 0x3A7 JUMP JUMPDEST SWAP2 POP DUP3 PUSH1 0x2 MUL DUP3 OR SWAP1 POP SWAP3 SWAP2 POP POP JUMP JUMPDEST PUSH3 0x3F0 DUP3 PUSH3 0x16B JUMP JUMPDEST PUSH8 0xFFFFFFFFFFFFFFFF DUP2 GT ISZERO PUSH3 0x40C JUMPI PUSH3 0x40B PUSH3 0x176 JUMP JUMPDEST JUMPDEST PUSH3 0x418 DUP3 SLOAD PUSH3 0x1D4 JUMP JUMPDEST PUSH3 0x425 DUP3 DUP3 DUP6 PUSH3 0x34A JUMP JUMPDEST PUSH1 0x0 PUSH1 0x20 SWAP1 POP PUSH1 0x1F DUP4 GT PUSH1 0x1 DUP2 EQ PUSH3 0x45D JUMPI PUSH1 0x0 DUP5 ISZERO PUSH3 0x448 JUMPI DUP3 DUP8 ADD MLOAD SWAP1 POP JUMPDEST PUSH3 0x454 DUP6 DUP3 PUSH3 0x3C7 JUMP JUMPDEST DUP7 SSTORE POP PUSH3 0x4C4 JUMP JUMPDEST PUSH1 0x1F NOT DUP5 AND PUSH3 0x46D DUP7 PUSH3 0x209 JUMP JUMPDEST PUSH1 0x0 JUMPDEST DUP3 DUP2 LT ISZERO PUSH3 0x497 JUMPI DUP5 DUP10 ADD MLOAD DUP3 SSTORE PUSH1 0x1 DUP3 ADD SWAP2 POP PUSH1 0x20 DUP6 ADD SWAP5 POP PUSH1 0x20 DUP2 ADD SWAP1 POP PUSH3 0x470 JUMP JUMPDEST DUP7 DUP4 LT ISZERO PUSH3 0x4B7 JUMPI DUP5 DUP10 ADD MLOAD PUSH3 0x4B3 PUSH1 0x1F DUP10 AND DUP3 PUSH3 0x3A7 JUMP JUMPDEST DUP4 SSTORE POP JUMPDEST PUSH1 0x1 PUSH1 0x2 DUP9 MUL ADD DUP9 SSTORE POP POP POP JUMPDEST POP POP POP POP POP POP JUMP JUMPDEST PUSH2 0xD12 DUP1 PUSH3 0x4DC PUSH1 0x0 CODECOPY PUSH1 0x0 RETURN INVALID PUSH1 0x80 PUSH1 0x40 MSTORE CALLVALUE DUP1 ISZERO PUSH2 0x10 JUMPI PUSH1 0x0 DUP1 REVERT JUMPDEST POP PUSH1 0x4 CALLDATASIZE LT PUSH2 0x88 JUMPI PUSH1 0x0 CALLDATALOAD PUSH1 0xE0 SHR DUP1 PUSH4 0x8AE6CCB4 GT PUSH2 0x5B JUMPI DUP1 PUSH4 0x8AE6CCB4 EQ PUSH2 0x13D JUMPI DUP1 PUSH4 0x8CA98874 EQ PUSH2 0x16D JUMPI DUP1 PUSH4 0xA621D15E EQ PUSH2 0x18D JUMPI DUP1 PUSH4 0xDACB88E2 EQ PUSH2 0x1AB JUMPI PUSH2 0x88 JUMP JUMPDEST DUP1 PUSH4 0x7511978 EQ PUSH2 0x8D JUMPI DUP1 PUSH4 0x48A7FFB7 EQ PUSH2 0xBF JUMPI DUP1 PUSH4 0x6057361D EQ PUSH2 0xEF JUMPI DUP1 PUSH4 0x6663E66D EQ PUSH2 0x10B JUMPI JUMPDEST PUSH1 0x0 DUP1 REVERT JUMPDEST PUSH2 0xA7 PUSH1 0x4 DUP1 CALLDATASIZE SUB DUP2 ADD SWAP1 PUSH2 0xA2 SWAP2 SWAP1 PUSH2 0x637 JUMP JUMPDEST PUSH2 0x1CB JUMP JUMPDEST PUSH1 0x40 MLOAD PUSH2 0xB6 SWAP4 SWAP3 SWAP2 SWAP1 PUSH2 0x71E JUMP JUMPDEST PUSH1 0x40 MLOAD DUP1 SWAP2 SUB SWAP1 RETURN JUMPDEST PUSH2 0xD9 PUSH1 0x4 DUP1 CALLDATASIZE SUB DUP2 ADD SWAP1 PUSH2 0xD4 SWAP2 SWAP1 PUSH2 0x8BD JUMP JUMPDEST PUSH2 0x290 JUMP JUMPDEST PUSH1 0x40 MLOAD PUSH2 0xE6 SWAP2 SWAP1 PUSH2 0x92C JUMP JUMPDEST PUSH1 0x40 MLOAD DUP1 SWAP2 SUB SWAP1 RETURN JUMPDEST PUSH2 0x109 PUSH1 0x4 DUP1 CALLDATASIZE SUB DUP2 ADD SWAP1 PUSH2 0x104 SWAP2 SWAP1 PUSH2 0x637 JUMP JUMPDEST PUSH2 0x382 JUMP JUMPDEST STOP JUMPDEST PUSH2 0x125 PUSH1 0x4 DUP1 CALLDATASIZE SUB DUP2 ADD SWAP1 PUSH2 0x120 SWAP2 SWAP1 PUSH2 0x637 JUMP JUMPDEST PUSH2 0x38C JUMP JUMPDEST PUSH1 0x40 MLOAD PUSH2 0x134 SWAP4 SWAP3 SWAP2 SWAP1 PUSH2 0x71E JUMP JUMPDEST PUSH1 0x40 MLOAD DUP1 SWAP2 SUB SWAP1 RETURN JUMPDEST PUSH2 0x157 PUSH1 0x4 DUP1 CALLDATASIZE SUB DUP2 ADD SWAP1 PUSH2 0x152 SWAP2 SWAP1 PUSH2 0x947 JUMP JUMPDEST PUSH2 0x45B JUMP JUMPDEST PUSH1 0x40 MLOAD PUSH2 0x164 SWAP2 SWAP1 PUSH2 0x990 JUMP JUMPDEST PUSH1 0x40 MLOAD DUP1 SWAP2 SUB SWAP1 RETURN JUMPDEST PUSH2 0x175 PUSH2 0x489 JUMP JUMPDEST PUSH1 0x40 MLOAD PUSH2 0x184 SWAP4 SWAP3 SWAP2 SWAP1 PUSH2 0x71E JUMP JUMPDEST PUSH1 0x40 MLOAD DUP1 SWAP2 SUB SWAP1 RETURN JUMPDEST PUSH2 0x195 PUSH2 0x536 JUMP JUMPDEST PUSH1 0x40 MLOAD PUSH2 0x1A2 SWAP2 SWAP1 PUSH2 0x990 JUMP JUMPDEST PUSH1 0x40 MLOAD DUP1 SWAP2 SUB SWAP1 RETURN JUMPDEST PUSH2 0x1B3 PUSH2 0x540 JUMP JUMPDEST PUSH1 0x40 MLOAD PUSH2 0x1C2 SWAP4 SWAP3 SWAP2 SWAP1 PUSH2 0x71E JUMP JUMPDEST PUSH1 0x40 MLOAD DUP1 SWAP2 SUB SWAP1 RETURN JUMPDEST PUSH1 0xA DUP2 PUSH1 0x3 DUP2 LT PUSH2 0x1DB JUMPI PUSH1 0x0 DUP1 REVERT JUMPDEST PUSH1 0x3 MUL ADD PUSH1 0x0 SWAP2 POP SWAP1 POP DUP1 PUSH1 0x0 ADD SLOAD SWAP1 DUP1 PUSH1 0x1 ADD DUP1 SLOAD PUSH2 0x1FA SWAP1 PUSH2 0x9DA JUMP JUMPDEST DUP1 PUSH1 0x1F ADD PUSH1 0x20 DUP1 SWAP2 DIV MUL PUSH1 0x20 ADD PUSH1 0x40 MLOAD SWAP1 DUP2 ADD PUSH1 0x40 MSTORE DUP1 SWAP3 SWAP2 SWAP1 DUP2 DUP2 MSTORE PUSH1 0x20 ADD DUP3 DUP1 SLOAD PUSH2 0x226 SWAP1 PUSH2 0x9DA JUMP JUMPDEST DUP1 ISZERO PUSH2 0x273 JUMPI DUP1 PUSH1 0x1F LT PUSH2 0x248 JUMPI PUSH2 0x100 DUP1 DUP4 SLOAD DIV MUL DUP4 MSTORE SWAP2 PUSH1 0x20 ADD SWAP2 PUSH2 0x273 JUMP JUMPDEST DUP3 ADD SWAP2 SWAP1 PUSH1 0x0 MSTORE PUSH1 0x20 PUSH1 0x0 KECCAK256 SWAP1 JUMPDEST DUP2 SLOAD DUP2 MSTORE SWAP1 PUSH1 0x1 ADD SWAP1 PUSH1 0x20 ADD DUP1 DUP4 GT PUSH2 0x256 JUMPI DUP3 SWAP1 SUB PUSH1 0x1F AND DUP3 ADD SWAP2 JUMPDEST POP POP POP POP POP SWAP1 DUP1 PUSH1 0x2 ADD PUSH1 0x0 SWAP1 SLOAD SWAP1 PUSH2 0x100 EXP SWAP1 DIV PUSH1 0xFF AND SWAP1 POP DUP4 JUMP JUMPDEST PUSH1 0x0 PUSH1 0x9 PUSH1 0x40 MLOAD DUP1 PUSH1 0x60 ADD PUSH1 0x40 MSTORE DUP1 DUP7 DUP2 MSTORE PUSH1 0x20 ADD DUP6 DUP2 MSTORE PUSH1 0x20 ADD DUP5 ISZERO ISZERO DUP2 MSTORE POP SWAP1 DUP1 PUSH1 0x1 DUP2 SLOAD ADD DUP1 DUP3 SSTORE DUP1 SWAP2 POP POP PUSH1 0x1 SWAP1 SUB SWAP1 PUSH1 0x0 MSTORE PUSH1 0x20 PUSH1 0x0 KECCAK256 SWAP1 PUSH1 0x3 MUL ADD PUSH1 0x0 SWAP1 SWAP2 SWAP1 SWAP2 SWAP1 SWAP2 POP PUSH1 0x0 DUP3 ADD MLOAD DUP2 PUSH1 0x0 ADD SSTORE PUSH1 0x20 DUP3 ADD MLOAD DUP2 PUSH1 0x1 ADD SWAP1 DUP2 PUSH2 0x2F9 SWAP2 SWAP1 PUSH2 0xBB7 JUMP JUMPDEST POP PUSH1 0x40 DUP3 ADD MLOAD DUP2 PUSH1 0x2 ADD PUSH1 0x0 PUSH2 0x100 EXP DUP2 SLOAD DUP2 PUSH1 0xFF MUL NOT AND SWAP1 DUP4 ISZERO ISZERO MUL OR SWAP1 SSTORE POP POP POP DUP4 PUSH1 0x13 DUP5 PUSH1 0x40 MLOAD PUSH2 0x32D SWAP2 SWAP1 PUSH2 0xCC5 JUMP JUMPDEST SWAP1 DUP2 MSTORE PUSH1 0x20 ADD PUSH1 0x40 MLOAD DUP1 SWAP2 SUB SWAP1 KECCAK256 DUP2 SWAP1 SSTORE POP PUSH1 0x40 MLOAD DUP1 PUSH1 0x40 ADD PUSH1 0x40 MSTORE DUP1 PUSH1 0x3 DUP2 MSTORE PUSH1 0x20 ADD PUSH32 0x414C490000000000000000000000000000000000000000000000000000000000 DUP2 MSTORE POP SWAP3 POP PUSH1 0x1 SWAP1 POP SWAP4 SWAP3 POP POP POP JUMP JUMPDEST DUP1 PUSH1 0x1 DUP2 SWAP1 SSTORE POP POP JUMP JUMPDEST PUSH1 0x9 DUP2 DUP2 SLOAD DUP2 LT PUSH2 0x39C JUMPI PUSH1 0x0 DUP1 REVERT JUMPDEST SWAP1 PUSH1 0x0 MSTORE PUSH1 0x20 PUSH1 0x0 KECCAK256 SWAP1 PUSH1 0x3 MUL ADD PUSH1 0x0 SWAP2 POP SWAP1 POP DUP1 PUSH1 0x0 ADD SLOAD SWAP1 DUP1 PUSH1 0x1 ADD DUP1 SLOAD PUSH2 0x3C5 SWAP1 PUSH2 0x9DA JUMP JUMPDEST DUP1 PUSH1 0x1F ADD PUSH1 0x20 DUP1 SWAP2 DIV MUL PUSH1 0x20 ADD PUSH1 0x40 MLOAD SWAP1 DUP2 ADD PUSH1 0x40 MSTORE DUP1 SWAP3 SWAP2 SWAP1 DUP2 DUP2 MSTORE PUSH1 0x20 ADD DUP3 DUP1 SLOAD PUSH2 0x3F1 SWAP1 PUSH2 0x9DA JUMP JUMPDEST DUP1 ISZERO PUSH2 0x43E JUMPI DUP1 PUSH1 0x1F LT PUSH2 0x413 JUMPI PUSH2 0x100 DUP1 DUP4 SLOAD DIV MUL DUP4 MSTORE SWAP2 PUSH1 0x20 ADD SWAP2 PUSH2 0x43E JUMP JUMPDEST DUP3 ADD SWAP2 SWAP1 PUSH1 0x0 MSTORE PUSH1 0x20 PUSH1 0x0 KECCAK256 SWAP1 JUMPDEST DUP2 SLOAD DUP2 MSTORE SWAP1 PUSH1 0x1 ADD SWAP1 PUSH1 0x20 ADD DUP1 DUP4 GT PUSH2 0x421 JUMPI DUP3 SWAP1 SUB PUSH1 0x1F AND DUP3 ADD SWAP2 JUMPDEST POP POP POP POP POP SWAP1 DUP1 PUSH1 0x2 ADD PUSH1 0x0 SWAP1 SLOAD SWAP1 PUSH2 0x100 EXP SWAP1 DIV PUSH1 0xFF AND SWAP1 POP DUP4 JUMP JUMPDEST PUSH1 0x13 DUP2 DUP1 MLOAD PUSH1 0x20 DUP2 ADD DUP3 ADD DUP1 MLOAD DUP5 DUP3 MSTORE PUSH1 0x20 DUP4 ADD PUSH1 0x20 DUP6 ADD KECCAK256 DUP2 DUP4 MSTORE DUP1 SWAP6 POP POP POP POP POP POP PUSH1 0x0 SWAP2 POP SWAP1 POP SLOAD DUP2 JUMP JUMPDEST PUSH1 0x6 DUP1 PUSH1 0x0 ADD SLOAD SWAP1 DUP1 PUSH1 0x1 ADD DUP1 SLOAD PUSH2 0x4A0 SWAP1 PUSH2 0x9DA JUMP JUMPDEST DUP1 PUSH1 0x1F ADD PUSH1 0x20 DUP1 SWAP2 DIV MUL PUSH1 0x20 ADD PUSH1 0x40 MLOAD SWAP1 DUP2 ADD PUSH1 0x40 MSTORE DUP1 SWAP3 SWAP2 SWAP1 DUP2 DUP2 MSTORE PUSH1 0x20 ADD DUP3 DUP1 SLOAD PUSH2 0x4CC SWAP1 PUSH2 0x9DA JUMP JUMPDEST DUP1 ISZERO PUSH2 0x519 JUMPI DUP1 PUSH1 0x1F LT PUSH2 0x4EE JUMPI PUSH2 0x100 DUP1 DUP4 SLOAD DIV MUL DUP4 MSTORE SWAP2 PUSH1 0x20 ADD SWAP2 PUSH2 0x519 JUMP JUMPDEST DUP3 ADD SWAP2 SWAP1 PUSH1 0x0 MSTORE PUSH1 0x20 PUSH1 0x0 KECCAK256 SWAP1 JUMPDEST DUP2 SLOAD DUP2 MSTORE SWAP1 PUSH1 0x1 ADD SWAP1 PUSH1 0x20 ADD DUP1 DUP4 GT PUSH2 0x4FC JUMPI DUP3 SWAP1 SUB PUSH1 0x1F AND DUP3 ADD SWAP2 JUMPDEST POP POP POP POP POP SWAP1 DUP1 PUSH1 0x2 ADD PUSH1 0x0 SWAP1 SLOAD SWAP1 PUSH2 0x100 EXP SWAP1 DIV PUSH1 0xFF AND SWAP1 POP DUP4 JUMP JUMPDEST PUSH1 0x0 PUSH1 0x1 SLOAD SWAP1 POP SWAP1 JUMP JUMPDEST PUSH1 0x3 DUP1 PUSH1 0x0 ADD SLOAD SWAP1 DUP1 PUSH1 0x1 ADD DUP1 SLOAD PUSH2 0x557 SWAP1 PUSH2 0x9DA JUMP JUMPDEST DUP1 PUSH1 0x1F ADD PUSH1 0x20 DUP1 SWAP2 DIV MUL PUSH1 0x20 ADD PUSH1 0x40 MLOAD SWAP1 DUP2 ADD PUSH1 0x40 MSTORE DUP1 SWAP3 SWAP2 SWAP1 DUP2 DUP2 MSTORE PUSH1 0x20 ADD DUP3 DUP1 SLOAD PUSH2 0x583 SWAP1 PUSH2 0x9DA JUMP JUMPDEST DUP1 ISZERO PUSH2 0x5D0 JUMPI DUP1 PUSH1 0x1F LT PUSH2 0x5A5 JUMPI PUSH2 0x100 DUP1 DUP4 SLOAD DIV MUL DUP4 MSTORE SWAP2 PUSH1 0x20 ADD SWAP2 PUSH2 0x5D0 JUMP JUMPDEST DUP3 ADD SWAP2 SWAP1 PUSH1 0x0 MSTORE PUSH1 0x20 PUSH1 0x0 KECCAK256 SWAP1 JUMPDEST DUP2 SLOAD DUP2 MSTORE SWAP1 PUSH1 0x1 ADD SWAP1 PUSH1 0x20 ADD DUP1 DUP4 GT PUSH2 0x5B3 JUMPI DUP3 SWAP1 SUB PUSH1 0x1F AND DUP3 ADD SWAP2 JUMPDEST POP POP POP POP POP SWAP1 DUP1 PUSH1 0x2 ADD PUSH1 0x0 SWAP1 SLOAD SWAP1 PUSH2 0x100 EXP SWAP1 DIV PUSH1 0xFF AND SWAP1 POP DUP4 JUMP JUMPDEST PUSH1 0x0 PUSH1 0x40 MLOAD SWAP1 POP SWAP1 JUMP JUMPDEST PUSH1 0x0 DUP1 REVERT JUMPDEST PUSH1 0x0 DUP1 REVERT JUMPDEST PUSH1 0x0 DUP2 SWAP1 POP SWAP2 SWAP1 POP JUMP JUMPDEST PUSH2 0x614 DUP2 PUSH2 0x601 JUMP JUMPDEST DUP2 EQ PUSH2 0x61F JUMPI PUSH1 0x0 DUP1 REVERT JUMPDEST POP JUMP JUMPDEST PUSH1 0x0 DUP2 CALLDATALOAD SWAP1 POP PUSH2 0x631 DUP2 PUSH2 0x60B JUMP JUMPDEST SWAP3 SWAP2 POP POP JUMP JUMPDEST PUSH1 0x0 PUSH1 0x20 DUP3 DUP5 SUB SLT ISZERO PUSH2 0x64D JUMPI PUSH2 0x64C PUSH2 0x5F7 JUMP JUMPDEST JUMPDEST PUSH1 0x0 PUSH2 0x65B DUP5 DUP3 DUP6 ADD PUSH2 0x622 JUMP JUMPDEST SWAP2 POP POP SWAP3 SWAP2 POP POP JUMP JUMPDEST PUSH2 0x66D DUP2 PUSH2 0x601 JUMP JUMPDEST DUP3 MSTORE POP POP JUMP JUMPDEST PUSH1 0x0 DUP2 MLOAD SWAP1 POP SWAP2 SWAP1 POP JUMP JUMPDEST PUSH1 0x0 DUP3 DUP3 MSTORE PUSH1 0x20 DUP3 ADD SWAP1 POP SWAP3 SWAP2 POP POP JUMP JUMPDEST PUSH1 0x0 JUMPDEST DUP4 DUP2 LT ISZERO PUSH2 0x6AD JUMPI DUP1 DUP3 ADD MLOAD DUP2 DUP5 ADD MSTORE PUSH1 0x20 DUP2 ADD SWAP1 POP PUSH2 0x692 JUMP JUMPDEST PUSH1 0x0 DUP5 DUP5 ADD MSTORE POP POP POP POP JUMP JUMPDEST PUSH1 0x0 PUSH1 0x1F NOT PUSH1 0x1F DUP4 ADD AND SWAP1 POP SWAP2 SWAP1 POP JUMP JUMPDEST PUSH1 0x0 PUSH2 0x6D5 DUP3 PUSH2 0x673 JUMP JUMPDEST PUSH2 0x6DF DUP2 DUP6 PUSH2 0x67E JUMP JUMPDEST SWAP4 POP PUSH2 0x6EF DUP2 DUP6 PUSH1 0x20 DUP7 ADD PUSH2 0x68F JUMP JUMPDEST PUSH2 0x6F8 DUP2 PUSH2 0x6B9 JUMP JUMPDEST DUP5 ADD SWAP2 POP POP SWAP3 SWAP2 POP POP JUMP JUMPDEST PUSH1 0x0 DUP2 ISZERO ISZERO SWAP1 POP SWAP2 SWAP1 POP JUMP JUMPDEST PUSH2 0x718 DUP2 PUSH2 0x703 JUMP JUMPDEST DUP3 MSTORE POP POP JUMP JUMPDEST PUSH1 0x0 PUSH1 0x60 DUP3 ADD SWAP1 POP PUSH2 0x733 PUSH1 0x0 DUP4 ADD DUP7 PUSH2 0x664 JUMP JUMPDEST DUP2 DUP2 SUB PUSH1 0x20 DUP4 ADD MSTORE PUSH2 0x745 DUP2 DUP6 PUSH2 0x6CA JUMP JUMPDEST SWAP1 POP PUSH2 0x754 PUSH1 0x40 DUP4 ADD DUP5 PUSH2 0x70F JUMP JUMPDEST SWAP5 SWAP4 POP POP POP POP JUMP JUMPDEST PUSH1 0x0 DUP1 REVERT JUMPDEST PUSH1 0x0 DUP1 REVERT JUMPDEST PUSH32 0x4E487B7100000000000000000000000000000000000000000000000000000000 PUSH1 0x0 MSTORE PUSH1 0x41 PUSH1 0x4 MSTORE PUSH1 0x24 PUSH1 0x0 REVERT JUMPDEST PUSH2 0x79E DUP3 PUSH2 0x6B9 JUMP JUMPDEST DUP2 ADD DUP2 DUP2 LT PUSH8 0xFFFFFFFFFFFFFFFF DUP3 GT OR ISZERO PUSH2 0x7BD JUMPI PUSH2 0x7BC PUSH2 0x766 JUMP JUMPDEST JUMPDEST DUP1 PUSH1 0x40 MSTORE POP POP POP JUMP JUMPDEST PUSH1 0x0 PUSH2 0x7D0 PUSH2 0x5ED JUMP JUMPDEST SWAP1 POP PUSH2 0x7DC DUP3 DUP3 PUSH2 0x795 JUMP JUMPDEST SWAP2 SWAP1 POP JUMP JUMPDEST PUSH1 0x0 PUSH8 0xFFFFFFFFFFFFFFFF DUP3 GT ISZERO PUSH2 0x7FC JUMPI PUSH2 0x7FB PUSH2 0x766 JUMP JUMPDEST JUMPDEST PUSH2 0x805 DUP3 PUSH2 0x6B9 JUMP JUMPDEST SWAP1 POP PUSH1 0x20 DUP2 ADD SWAP1 POP SWAP2 SWAP1 POP JUMP JUMPDEST DUP3 DUP2 DUP4 CALLDATACOPY PUSH1 0x0 DUP4 DUP4 ADD MSTORE POP POP POP JUMP JUMPDEST PUSH1 0x0 PUSH2 0x834 PUSH2 0x82F DUP5 PUSH2 0x7E1 JUMP JUMPDEST PUSH2 0x7C6 JUMP JUMPDEST SWAP1 POP DUP3 DUP2 MSTORE PUSH1 0x20 DUP2 ADD DUP5 DUP5 DUP5 ADD GT ISZERO PUSH2 0x850 JUMPI PUSH2 0x84F PUSH2 0x761 JUMP JUMPDEST JUMPDEST PUSH2 0x85B DUP5 DUP3 DUP6 PUSH2 0x812 JUMP JUMPDEST POP SWAP4 SWAP3 POP POP POP JUMP JUMPDEST PUSH1 0x0 DUP3 PUSH1 0x1F DUP4 ADD SLT PUSH2 0x878 JUMPI PUSH2 0x877 PUSH2 0x75C JUMP JUMPDEST JUMPDEST DUP2 CALLDATALOAD PUSH2 0x888 DUP5 DUP3 PUSH1 0x20 DUP7 ADD PUSH2 0x821 JUMP JUMPDEST SWAP2 POP POP SWAP3 SWAP2 POP POP JUMP JUMPDEST PUSH2 0x89A DUP2 PUSH2 0x703 JUMP JUMPDEST DUP2 EQ PUSH2 0x8A5 JUMPI PUSH1 0x0 DUP1 REVERT JUMPDEST POP JUMP JUMPDEST PUSH1 0x0 DUP2 CALLDATALOAD SWAP1 POP PUSH2 0x8B7 DUP2 PUSH2 0x891 JUMP JUMPDEST SWAP3 SWAP2 POP POP JUMP JUMPDEST PUSH1 0x0 DUP1 PUSH1 0x0 PUSH1 0x60 DUP5 DUP7 SUB SLT ISZERO PUSH2 0x8D6 JUMPI PUSH2 0x8D5 PUSH2 0x5F7 JUMP JUMPDEST JUMPDEST PUSH1 0x0 PUSH2 0x8E4 DUP7 DUP3 DUP8 ADD PUSH2 0x622 JUMP JUMPDEST SWAP4 POP POP PUSH1 0x20 DUP5 ADD CALLDATALOAD PUSH8 0xFFFFFFFFFFFFFFFF DUP2 GT ISZERO PUSH2 0x905 JUMPI PUSH2 0x904 PUSH2 0x5FC JUMP JUMPDEST JUMPDEST PUSH2 0x911 DUP7 DUP3 DUP8 ADD PUSH2 0x863 JUMP JUMPDEST SWAP3 POP POP PUSH1 0x40 PUSH2 0x922 DUP7 DUP3 DUP8 ADD PUSH2 0x8A8 JUMP JUMPDEST SWAP2 POP POP SWAP3 POP SWAP3 POP SWAP3 JUMP JUMPDEST PUSH1 0x0 PUSH1 0x20 DUP3 ADD SWAP1 POP PUSH2 0x941 PUSH1 0x0 DUP4 ADD DUP5 PUSH2 0x70F JUMP JUMPDEST SWAP3 SWAP2 POP POP JUMP JUMPDEST PUSH1 0x0 PUSH1 0x20 DUP3 DUP5 SUB SLT ISZERO PUSH2 0x95D JUMPI PUSH2 0x95C PUSH2 0x5F7 JUMP JUMPDEST JUMPDEST PUSH1 0x0 DUP3 ADD CALLDATALOAD PUSH8 0xFFFFFFFFFFFFFFFF DUP2 GT ISZERO PUSH2 0x97B JUMPI PUSH2 0x97A PUSH2 0x5FC JUMP JUMPDEST JUMPDEST PUSH2 0x987 DUP5 DUP3 DUP6 ADD PUSH2 0x863 JUMP JUMPDEST SWAP2 POP POP SWAP3 SWAP2 POP POP JUMP JUMPDEST PUSH1 0x0 PUSH1 0x20 DUP3 ADD SWAP1 POP PUSH2 0x9A5 PUSH1 0x0 DUP4 ADD DUP5 PUSH2 0x664 JUMP JUMPDEST SWAP3 SWAP2 POP POP JUMP JUMPDEST PUSH32 0x4E487B7100000000000000000000000000000000000000000000000000000000 PUSH1 0x0 MSTORE PUSH1 0x22 PUSH1 0x4 MSTORE PUSH1 0x24 PUSH1 0x0 REVERT JUMPDEST PUSH1 0x0 PUSH1 0x2 DUP3 DIV SWAP1 POP PUSH1 0x1 DUP3 AND DUP1 PUSH2 0x9F2 JUMPI PUSH1 0x7F DUP3 AND SWAP2 POP JUMPDEST PUSH1 0x20 DUP3 LT DUP2 SUB PUSH2 0xA05 JUMPI PUSH2 0xA04 PUSH2 0x9AB JUMP JUMPDEST JUMPDEST POP SWAP2 SWAP1 POP JUMP JUMPDEST PUSH1 0x0 DUP2 SWAP1 POP DUP2 PUSH1 0x0 MSTORE PUSH1 0x20 PUSH1 0x0 KECCAK256 SWAP1 POP SWAP2 SWAP1 POP JUMP JUMPDEST PUSH1 0x0 PUSH1 0x20 PUSH1 0x1F DUP4 ADD DIV SWAP1 POP SWAP2 SWAP1 POP JUMP JUMPDEST PUSH1 0x0 DUP3 DUP3 SHL SWAP1 POP SWAP3 SWAP2 POP POP JUMP JUMPDEST PUSH1 0x0 PUSH1 0x8 DUP4 MUL PUSH2 0xA6D PUSH32 0xFFFFFFFFFFFFFFFFFFFFFFFFFFFFFFFFFFFFFFFFFFFFFFFFFFFFFFFFFFFFFFFF DUP3 PUSH2 0xA30 JUMP JUMPDEST PUSH2 0xA77 DUP7 DUP4 PUSH2 0xA30 JUMP JUMPDEST SWAP6 POP DUP1 NOT DUP5 AND SWAP4 POP DUP1 DUP7 AND DUP5 OR SWAP3 POP POP POP SWAP4 SWAP3 POP POP POP JUMP JUMPDEST PUSH1 0x0 DUP2 SWAP1 POP SWAP2 SWAP1 POP JUMP JUMPDEST PUSH1 0x0 PUSH2 0xAB4 PUSH2 0xAAF PUSH2 0xAAA DUP5 PUSH2 0x601 JUMP JUMPDEST PUSH2 0xA8F JUMP JUMPDEST PUSH2 0x601 JUMP JUMPDEST SWAP1 POP SWAP2 SWAP1 POP JUMP JUMPDEST PUSH1 0x0 DUP2 SWAP1 POP SWAP2 SWAP1 POP JUMP JUMPDEST PUSH2 0xACE DUP4 PUSH2 0xA99 JUMP JUMPDEST PUSH2 0xAE2 PUSH2 0xADA DUP3 PUSH2 0xABB JUMP JUMPDEST DUP5 DUP5 SLOAD PUSH2 0xA3D JUMP JUMPDEST DUP3 SSTORE POP POP POP POP JUMP JUMPDEST PUSH1 0x0 SWAP1 JUMP JUMPDEST PUSH2 0xAF7 PUSH2 0xAEA JUMP JUMPDEST PUSH2 0xB02 DUP2 DUP5 DUP5 PUSH2 0xAC5 JUMP JUMPDEST POP POP POP JUMP JUMPDEST JUMPDEST DUP2 DUP2 LT ISZERO PUSH2 0xB26 JUMPI PUSH2 0xB1B PUSH1 0x0 DUP3 PUSH2 0xAEF JUMP JUMPDEST PUSH1 0x1 DUP2 ADD SWAP1 POP PUSH2 0xB08 JUMP JUMPDEST POP POP JUMP JUMPDEST PUSH1 0x1F DUP3 GT ISZERO PUSH2 0xB6B JUMPI PUSH2 0xB3C DUP2 PUSH2 0xA0B JUMP JUMPDEST PUSH2 0xB45 DUP5 PUSH2 0xA20 JUMP JUMPDEST DUP2 ADD PUSH1 0x20 DUP6 LT ISZERO PUSH2 0xB54 JUMPI DUP2 SWAP1 POP JUMPDEST PUSH2 0xB68 PUSH2 0xB60 DUP6 PUSH2 0xA20 JUMP JUMPDEST DUP4 ADD DUP3 PUSH2 0xB07 JUMP JUMPDEST POP POP JUMPDEST POP POP POP JUMP JUMPDEST PUSH1 0x0 DUP3 DUP3 SHR SWAP1 POP SWAP3 SWAP2 POP POP JUMP JUMPDEST PUSH1 0x0 PUSH2 0xB8E PUSH1 0x0 NOT DUP5 PUSH1 0x8 MUL PUSH2 0xB70 JUMP JUMPDEST NOT DUP1 DUP4 AND SWAP2 POP POP SWAP3 SWAP2 POP POP JUMP JUMPDEST PUSH1 0x0 PUSH2 0xBA7 DUP4 DUP4 PUSH2 0xB7D JUMP JUMPDEST SWAP2 POP DUP3 PUSH1 0x2 MUL DUP3 OR SWAP1 POP SWAP3 SWAP2 POP POP JUMP JUMPDEST PUSH2 0xBC0 DUP3 PUSH2 0x673 JUMP JUMPDEST PUSH8 0xFFFFFFFFFFFFFFFF DUP2 GT ISZERO PUSH2 0xBD9 JUMPI PUSH2 0xBD8 PUSH2 0x766 JUMP JUMPDEST JUMPDEST PUSH2 0xBE3 DUP3 SLOAD PUSH2 0x9DA JUMP JUMPDEST PUSH2 0xBEE DUP3 DUP3 DUP6 PUSH2 0xB2A JUMP JUMPDEST PUSH1 0x0 PUSH1 0x20 SWAP1 POP PUSH1 0x1F DUP4 GT PUSH1 0x1 DUP2 EQ PUSH2 0xC21 JUMPI PUSH1 0x0 DUP5 ISZERO PUSH2 0xC0F JUMPI DUP3 DUP8 ADD MLOAD SWAP1 POP JUMPDEST PUSH2 0xC19 DUP6 DUP3 PUSH2 0xB9B JUMP JUMPDEST DUP7 SSTORE POP PUSH2 0xC81 JUMP JUMPDEST PUSH1 0x1F NOT DUP5 AND PUSH2 0xC2F DUP7 PUSH2 0xA0B JUMP JUMPDEST PUSH1 0x0 JUMPDEST DUP3 DUP2 LT ISZERO PUSH2 0xC57 JUMPI DUP5 DUP10 ADD MLOAD DUP3 SSTORE PUSH1 0x1 DUP3 ADD SWAP2 POP PUSH1 0x20 DUP6 ADD SWAP5 POP PUSH1 0x20 DUP2 ADD SWAP1 POP PUSH2 0xC32 JUMP JUMPDEST DUP7 DUP4 LT ISZERO PUSH2 0xC74 JUMPI DUP5 DUP10 ADD MLOAD PUSH2 0xC70 PUSH1 0x1F DUP10 AND DUP3 PUSH2 0xB7D JUMP JUMPDEST DUP4 SSTORE POP JUMPDEST PUSH1 0x1 PUSH1 0x2 DUP9 MUL ADD DUP9 SSTORE POP POP POP JUMPDEST POP POP POP POP POP POP JUMP JUMPDEST PUSH1 0x0 DUP2 SWAP1 POP SWAP3 SWAP2 POP POP JUMP JUMPDEST PUSH1 0x0 PUSH2 0xC9F DUP3 PUSH2 0x673 JUMP JUMPDEST PUSH2 0xCA9 DUP2 DUP6 PUSH2 0xC89 JUMP JUMPDEST SWAP4 POP PUSH2 0xCB9 DUP2 DUP6 PUSH1 0x20 DUP7 ADD PUSH2 0x68F JUMP JUMPDEST DUP1 DUP5 ADD SWAP2 POP POP SWAP3 SWAP2 POP POP JUMP JUMPDEST PUSH1 0x0 PUSH2 0xCD1 DUP3 DUP5 PUSH2 0xC94 JUMP JUMPDEST SWAP2 POP DUP2 SWAP1 POP SWAP3 SWAP2 POP POP JUMP INVALID LOG2 PUSH5 0x6970667358 0x22 SLT KECCAK256 0xA9 0xE2 RETURN PUSH32 0x5468D13A28BD8256A57024EC1E78F727DC1B6FFF8CBDB495AB9649EA64736F6C PUSH4 0x43000813 STOP CALLER "
				},
				"gasEstimates": {
					"creation": {
						"codeDepositCost": "669200",
						"executionCost": "infinite",
						"totalCost": "infinite"
					},
					"external": {
						"Ali()": "infinite",
						"Anahita()": "infinite",
						"add_friend(uint256,string,bool)": "infinite",
						"getFavoriteNumber()": "2481",
						"myFriends(uint256)": "infinite",
						"personToNumber(string)": "infinite",
						"staticMyFriends(uint256)": "infinite",
						"store(uint256)": "22565"
					}
				},
				"methodIdentifiers": {
					"Ali()": "dacb88e2",
					"Anahita()": "8ca98874",
					"add_friend(uint256,string,bool)": "48a7ffb7",
					"getFavoriteNumber()": "a621d15e",
					"myFriends(uint256)": "6663e66d",
					"personToNumber(string)": "8ae6ccb4",
					"staticMyFriends(uint256)": "07511978",
					"store(uint256)": "6057361d"
				}
			},
			"storageLayout": {
				"storage": [
					{
						"astId": 4,
						"contract": "SimpleStorage/SimpleStorage.sol:SimpleStorage",
						"label": "hasFavoriteNumber",
						"offset": 0,
						"slot": "0",
						"type": "t_bool"
					},
					{
						"astId": 7,
						"contract": "SimpleStorage/SimpleStorage.sol:SimpleStorage",
						"label": "myFavoriteNumber",
						"offset": 0,
						"slot": "1",
						"type": "t_uint256"
					},
					{
						"astId": 28,
						"contract": "SimpleStorage/SimpleStorage.sol:SimpleStorage",
						"label": "listOfFavoriteNumbers",
						"offset": 0,
						"slot": "2",
						"type": "t_array(t_uint256)dyn_storage"
					},
					{
						"astId": 43,
						"contract": "SimpleStorage/SimpleStorage.sol:SimpleStorage",
						"label": "Ali",
						"offset": 0,
						"slot": "3",
						"type": "t_struct(Person)35_storage"
					},
					{
						"astId": 51,
						"contract": "SimpleStorage/SimpleStorage.sol:SimpleStorage",
						"label": "Anahita",
						"offset": 0,
						"slot": "6",
						"type": "t_struct(Person)35_storage"
					},
					{
						"astId": 55,
						"contract": "SimpleStorage/SimpleStorage.sol:SimpleStorage",
						"label": "myFriends",
						"offset": 0,
						"slot": "9",
						"type": "t_array(t_struct(Person)35_storage)dyn_storage"
					},
					{
						"astId": 60,
						"contract": "SimpleStorage/SimpleStorage.sol:SimpleStorage",
						"label": "staticMyFriends",
						"offset": 0,
						"slot": "10",
						"type": "t_array(t_struct(Person)35_storage)3_storage"
					},
					{
						"astId": 98,
						"contract": "SimpleStorage/SimpleStorage.sol:SimpleStorage",
						"label": "personToNumber",
						"offset": 0,
						"slot": "19",
						"type": "t_mapping(t_string_memory_ptr,t_uint256)"
					}
				],
				"types": {
					"t_array(t_struct(Person)35_storage)3_storage": {
						"base": "t_struct(Person)35_storage",
						"encoding": "inplace",
						"label": "struct SimpleStorage.Person[3]",
						"numberOfBytes": "288"
					},
					"t_array(t_struct(Person)35_storage)dyn_storage": {
						"base": "t_struct(Person)35_storage",
						"encoding": "dynamic_array",
						"label": "struct SimpleStorage.Person[]",
						"numberOfBytes": "32"
					},
					"t_array(t_uint256)dyn_storage": {
						"base": "t_uint256",
						"encoding": "dynamic_array",
						"label": "uint256[]",
						"numberOfBytes": "32"
					},
					"t_bool": {
						"encoding": "inplace",
						"label": "bool",
						"numberOfBytes": "1"
					},
					"t_mapping(t_string_memory_ptr,t_uint256)": {
						"encoding": "mapping",
						"key": "t_string_memory_ptr",
						"label": "mapping(string => uint256)",
						"numberOfBytes": "32",
						"value": "t_uint256"
					},
					"t_string_memory_ptr": {
						"encoding": "bytes",
						"label": "string",
						"numberOfBytes": "32"
					},
					"t_string_storage": {
						"encoding": "bytes",
						"label": "string",
						"numberOfBytes": "32"
					},
					"t_struct(Person)35_storage": {
						"encoding": "inplace",
						"label": "struct SimpleStorage.Person",
						"members": [
							{
								"astId": 30,
								"contract": "SimpleStorage/SimpleStorage.sol:SimpleStorage",
								"label": "age",
								"offset": 0,
								"slot": "0",
								"type": "t_uint256"
							},
							{
								"astId": 32,
								"contract": "SimpleStorage/SimpleStorage.sol:SimpleStorage",
								"label": "name",
								"offset": 0,
								"slot": "1",
								"type": "t_string_storage"
							},
							{
								"astId": 34,
								"contract": "SimpleStorage/SimpleStorage.sol:SimpleStorage",
								"label": "isCool",
								"offset": 0,
								"slot": "2",
								"type": "t_bool"
							}
						],
						"numberOfBytes": "96"
					},
					"t_uint256": {
						"encoding": "inplace",
						"label": "uint256",
						"numberOfBytes": "32"
					}
				}
			},
			"userdoc": {
				"kind": "user",
				"methods": {},
				"version": 1
			}
		}
	}
}