{
	"FundMe/FundMe.sol": {
		"FundMe": {
			"abi": [
				{
					"inputs": [],
					"name": "fund",
					"outputs": [],
					"stateMutability": "payable",
					"type": "function"
				},
				{
					"inputs": [
						{
							"internalType": "uint256",
							"name": "",
							"type": "uint256"
						}
					],
					"name": "funders",
					"outputs": [
						{
							"internalType": "address",
							"name": "",
							"type": "address"
						}
					],
					"stateMutability": "view",
					"type": "function"
				},
				{
					"inputs": [
						{
							"internalType": "address",
							"name": "funder",
							"type": "address"
						}
					],
					"name": "fundersAmount",
					"outputs": [
						{
							"internalType": "uint256",
							"name": "amountFunded",
							"type": "uint256"
						}
					],
					"stateMutability": "view",
					"type": "function"
				},
				{
					"inputs": [
						{
							"internalType": "uint256",
							"name": "ETH_amount",
							"type": "uint256"
						}
					],
					"name": "getConversionRate",
					"outputs": [
						{
							"internalType": "uint256",
							"name": "",
							"type": "uint256"
						}
					],
					"stateMutability": "view",
					"type": "function"
				},
				{
					"inputs": [],
					"name": "getPrice",
					"outputs": [
						{
							"internalType": "uint256",
							"name": "",
							"type": "uint256"
						}
					],
					"stateMutability": "view",
					"type": "function"
				},
				{
					"inputs": [],
					"name": "minimumUSD",
					"outputs": [
						{
							"internalType": "uint256",
							"name": "",
							"type": "uint256"
						}
					],
					"stateMutability": "view",
					"type": "function"
				},
				{
					"inputs": [],
					"name": "withdraw",
					"outputs": [],
					"stateMutability": "nonpayable",
					"type": "function"
				}
			],
			"devdoc": {
				"kind": "dev",
				"methods": {},
				"version": 1
			},
			"evm": {
				"assembly": "    /* \"FundMe/FundMe.sol\":1039:3425  contract FundMe {... */\n  mstore(0x40, 0x80)\n    /* \"FundMe/FundMe.sol\":1089:1090  5 */\n  0x05\n    /* \"FundMe/FundMe.sol\":1061:1090  uint256 public minimumUSD = 5 */\n  0x00\n  sstore\n    /* \"FundMe/FundMe.sol\":1039:3425  contract FundMe {... */\n  callvalue\n  dup1\n  iszero\n  tag_1\n  jumpi\n  0x00\n  dup1\n  revert\ntag_1:\n  pop\n  dataSize(sub_0)\n  dup1\n  dataOffset(sub_0)\n  0x00\n  codecopy\n  0x00\n  return\nstop\n\nsub_0: assembly {\n        /* \"FundMe/FundMe.sol\":1039:3425  contract FundMe {... */\n      mstore(0x40, 0x80)\n      jumpi(tag_1, lt(calldatasize, 0x04))\n      shr(0xe0, calldataload(0x00))\n      dup1\n      0x98d5fdca\n      gt\n      tag_9\n      jumpi\n      dup1\n      0x98d5fdca\n      eq\n      tag_5\n      jumpi\n      dup1\n      0xb60d4288\n      eq\n      tag_6\n      jumpi\n      dup1\n      0xdc0d3dff\n      eq\n      tag_7\n      jumpi\n      dup1\n      0xe73c0f23\n      eq\n      tag_8\n      jumpi\n      jump(tag_1)\n    tag_9:\n      dup1\n      0x3430a88c\n      eq\n      tag_2\n      jumpi\n      dup1\n      0x3ccfd60b\n      eq\n      tag_3\n      jumpi\n      dup1\n      0x6e5b6b28\n      eq\n      tag_4\n      jumpi\n    tag_1:\n      0x00\n      dup1\n      revert\n        /* \"FundMe/FundMe.sol\":1061:1090  uint256 public minimumUSD = 5 */\n    tag_2:\n      callvalue\n      dup1\n      iszero\n      tag_10\n      jumpi\n      0x00\n      dup1\n      revert\n    tag_10:\n      pop\n      tag_11\n      tag_12\n      jump\t// in\n    tag_11:\n      mload(0x40)\n      tag_13\n      swap2\n      swap1\n      tag_14\n      jump\t// in\n    tag_13:\n      mload(0x40)\n      dup1\n      swap2\n      sub\n      swap1\n      return\n        /* \"FundMe/FundMe.sol\":3393:3422  function withdraw() public {} */\n    tag_3:\n      callvalue\n      dup1\n      iszero\n      tag_15\n      jumpi\n      0x00\n      dup1\n      revert\n    tag_15:\n      pop\n      tag_16\n      tag_17\n      jump\t// in\n    tag_16:\n      stop\n        /* \"FundMe/FundMe.sol\":2727:2949  function getConversionRate(uint256 ETH_amount) public view returns(uint256) {... */\n    tag_4:\n      callvalue\n      dup1\n      iszero\n      tag_18\n      jumpi\n      0x00\n      dup1\n      revert\n    tag_18:\n      pop\n      tag_19\n      0x04\n      dup1\n      calldatasize\n      sub\n      dup2\n      add\n      swap1\n      tag_20\n      swap2\n      swap1\n      tag_21\n      jump\t// in\n    tag_20:\n      tag_22\n      jump\t// in\n    tag_19:\n      mload(0x40)\n      tag_23\n      swap2\n      swap1\n      tag_14\n      jump\t// in\n    tag_23:\n      mload(0x40)\n      dup1\n      swap2\n      sub\n      swap1\n      return\n        /* \"FundMe/FundMe.sol\":2181:2721  function getPrice() public view returns(uint256) {... */\n    tag_5:\n      callvalue\n      dup1\n      iszero\n      tag_24\n      jumpi\n      0x00\n      dup1\n      revert\n    tag_24:\n      pop\n      tag_25\n      tag_26\n      jump\t// in\n    tag_25:\n      mload(0x40)\n      tag_27\n      swap2\n      swap1\n      tag_14\n      jump\t// in\n    tag_27:\n      mload(0x40)\n      dup1\n      swap2\n      sub\n      swap1\n      return\n        /* \"FundMe/FundMe.sol\":1359:1983  function fund() public payable {... */\n    tag_6:\n      tag_28\n      tag_29\n      jump\t// in\n    tag_28:\n      stop\n        /* \"FundMe/FundMe.sol\":3018:3042  address[] public funders */\n    tag_7:\n      callvalue\n      dup1\n      iszero\n      tag_30\n      jumpi\n      0x00\n      dup1\n      revert\n    tag_30:\n      pop\n      tag_31\n      0x04\n      dup1\n      calldatasize\n      sub\n      dup2\n      add\n      swap1\n      tag_32\n      swap2\n      swap1\n      tag_21\n      jump\t// in\n    tag_32:\n      tag_33\n      jump\t// in\n    tag_31:\n      mload(0x40)\n      tag_34\n      swap2\n      swap1\n      tag_35\n      jump\t// in\n    tag_34:\n      mload(0x40)\n      dup1\n      swap2\n      sub\n      swap1\n      return\n        /* \"FundMe/FundMe.sol\":3237:3305  mapping(address funder => uint256 amountFunded) public fundersAmount */\n    tag_8:\n      callvalue\n      dup1\n      iszero\n      tag_36\n      jumpi\n      0x00\n      dup1\n      revert\n    tag_36:\n      pop\n      tag_37\n      0x04\n      dup1\n      calldatasize\n      sub\n      dup2\n      add\n      swap1\n      tag_38\n      swap2\n      swap1\n      tag_39\n      jump\t// in\n    tag_38:\n      tag_40\n      jump\t// in\n    tag_37:\n      mload(0x40)\n      tag_41\n      swap2\n      swap1\n      tag_14\n      jump\t// in\n    tag_41:\n      mload(0x40)\n      dup1\n      swap2\n      sub\n      swap1\n      return\n        /* \"FundMe/FundMe.sol\":1061:1090  uint256 public minimumUSD = 5 */\n    tag_12:\n      sload(0x00)\n      dup2\n      jump\t// out\n        /* \"FundMe/FundMe.sol\":3393:3422  function withdraw() public {} */\n    tag_17:\n      jump\t// out\n        /* \"FundMe/FundMe.sol\":2727:2949  function getConversionRate(uint256 ETH_amount) public view returns(uint256) {... */\n    tag_22:\n        /* \"FundMe/FundMe.sol\":2794:2801  uint256 */\n      0x00\n        /* \"FundMe/FundMe.sol\":2813:2830  uint256 ETH_price */\n      dup1\n        /* \"FundMe/FundMe.sol\":2833:2843  getPrice() */\n      tag_44\n        /* \"FundMe/FundMe.sol\":2833:2841  getPrice */\n      tag_26\n        /* \"FundMe/FundMe.sol\":2833:2843  getPrice() */\n      jump\t// in\n    tag_44:\n        /* \"FundMe/FundMe.sol\":2813:2843  uint256 ETH_price = getPrice() */\n      swap1\n      pop\n        /* \"FundMe/FundMe.sol\":2853:2876  uint256 ETH_AmountInUSD */\n      0x00\n        /* \"FundMe/FundMe.sol\":2906:2910  1e18 */\n      0x0de0b6b3a7640000\n        /* \"FundMe/FundMe.sol\":2893:2902  ETH_price */\n      dup3\n        /* \"FundMe/FundMe.sol\":2880:2890  ETH_amount */\n      dup6\n        /* \"FundMe/FundMe.sol\":2880:2902  ETH_amount * ETH_price */\n      tag_45\n      swap2\n      swap1\n      tag_46\n      jump\t// in\n    tag_45:\n        /* \"FundMe/FundMe.sol\":2879:2910  (ETH_amount * ETH_price) / 1e18 */\n      tag_47\n      swap2\n      swap1\n      tag_48\n      jump\t// in\n    tag_47:\n        /* \"FundMe/FundMe.sol\":2853:2910  uint256 ETH_AmountInUSD = (ETH_amount * ETH_price) / 1e18 */\n      swap1\n      pop\n        /* \"FundMe/FundMe.sol\":2927:2942  ETH_AmountInUSD */\n      dup1\n        /* \"FundMe/FundMe.sol\":2920:2942  return ETH_AmountInUSD */\n      swap3\n      pop\n      pop\n      pop\n        /* \"FundMe/FundMe.sol\":2727:2949  function getConversionRate(uint256 ETH_amount) public view returns(uint256) {... */\n      swap2\n      swap1\n      pop\n      jump\t// out\n        /* \"FundMe/FundMe.sol\":2181:2721  function getPrice() public view returns(uint256) {... */\n    tag_26:\n        /* \"FundMe/FundMe.sol\":2221:2228  uint256 */\n      0x00\n        /* \"FundMe/FundMe.sol\":2453:2483  address ETH_USD_SepoliaAddress */\n      dup1\n        /* \"FundMe/FundMe.sol\":2486:2528  0x694AA1769357215DE4FAC081bf1f309aDC325306 */\n      0x694aa1769357215de4fac081bf1f309adc325306\n        /* \"FundMe/FundMe.sol\":2453:2528  address ETH_USD_SepoliaAddress = 0x694AA1769357215DE4FAC081bf1f309aDC325306 */\n      swap1\n      pop\n        /* \"FundMe/FundMe.sol\":2538:2569  AggregatorV3Interface priceFeed */\n      0x00\n        /* \"FundMe/FundMe.sol\":2594:2616  ETH_USD_SepoliaAddress */\n      dup2\n        /* \"FundMe/FundMe.sol\":2538:2617  AggregatorV3Interface priceFeed = AggregatorV3Interface(ETH_USD_SepoliaAddress) */\n      swap1\n      pop\n        /* \"FundMe/FundMe.sol\":2629:2641  int256 price */\n      0x00\n        /* \"FundMe/FundMe.sol\":2648:2657  priceFeed */\n      dup2\n        /* \"FundMe/FundMe.sol\":2648:2673  priceFeed.latestRoundData */\n      0xffffffffffffffffffffffffffffffffffffffff\n      and\n      0xfeaf968c\n        /* \"FundMe/FundMe.sol\":2648:2675  priceFeed.latestRoundData() */\n      mload(0x40)\n      dup2\n      0xffffffff\n      and\n      0xe0\n      shl\n      dup2\n      mstore\n      0x04\n      add\n      0xa0\n      mload(0x40)\n      dup1\n      dup4\n      sub\n      dup2\n      dup7\n      gas\n      staticcall\n      iszero\n      dup1\n      iszero\n      tag_51\n      jumpi\n      returndatasize\n      0x00\n      dup1\n      returndatacopy\n      revert(0x00, returndatasize)\n    tag_51:\n      pop\n      pop\n      pop\n      pop\n      mload(0x40)\n      returndatasize\n      not(0x1f)\n      0x1f\n      dup3\n      add\n      and\n      dup3\n      add\n      dup1\n      0x40\n      mstore\n      pop\n      dup2\n      add\n      swap1\n      tag_52\n      swap2\n      swap1\n      tag_53\n      jump\t// in\n    tag_52:\n        /* \"FundMe/FundMe.sol\":2627:2675  (,int256 price,,,) = priceFeed.latestRoundData() */\n      pop\n      pop\n      pop\n      swap2\n      pop\n      pop\n        /* \"FundMe/FundMe.sol\":2709:2713  1e10 */\n      0x02540be400\n        /* \"FundMe/FundMe.sol\":2701:2706  price */\n      dup2\n        /* \"FundMe/FundMe.sol\":2701:2713  price * 1e10 */\n      tag_54\n      swap2\n      swap1\n      tag_55\n      jump\t// in\n    tag_54:\n        /* \"FundMe/FundMe.sol\":2686:2714  return uint256(price * 1e10) */\n      swap4\n      pop\n      pop\n      pop\n      pop\n        /* \"FundMe/FundMe.sol\":2181:2721  function getPrice() public view returns(uint256) {... */\n      swap1\n      jump\t// out\n        /* \"FundMe/FundMe.sol\":1359:1983  function fund() public payable {... */\n    tag_29:\n        /* \"FundMe/FundMe.sol\":1862:1866  1e18 */\n      0x0de0b6b3a7640000\n        /* \"FundMe/FundMe.sol\":1849:1859  minimumUSD */\n      sload(0x00)\n        /* \"FundMe/FundMe.sol\":1849:1866  minimumUSD * 1e18 */\n      tag_57\n      swap2\n      swap1\n      tag_46\n      jump\t// in\n    tag_57:\n        /* \"FundMe/FundMe.sol\":1816:1844  getConversionRate(msg.value) */\n      tag_58\n        /* \"FundMe/FundMe.sol\":1834:1843  msg.value */\n      callvalue\n        /* \"FundMe/FundMe.sol\":1816:1833  getConversionRate */\n      tag_22\n        /* \"FundMe/FundMe.sol\":1816:1844  getConversionRate(msg.value) */\n      jump\t// in\n    tag_58:\n        /* \"FundMe/FundMe.sol\":1816:1867  getConversionRate(msg.value) >= (minimumUSD * 1e18) */\n      lt\n      iszero\n        /* \"FundMe/FundMe.sol\":1808:1894  require(getConversionRate(msg.value) >= (minimumUSD * 1e18), \"didn't send enough ETH\") */\n      tag_59\n      jumpi\n      mload(0x40)\n      0x08c379a000000000000000000000000000000000000000000000000000000000\n      dup2\n      mstore\n      0x04\n      add\n      tag_60\n      swap1\n      tag_61\n      jump\t// in\n    tag_60:\n      mload(0x40)\n      dup1\n      swap2\n      sub\n      swap1\n      revert\n    tag_59:\n        /* \"FundMe/FundMe.sol\":1904:1911  funders */\n      0x01\n        /* \"FundMe/FundMe.sol\":1917:1927  msg.sender */\n      caller\n        /* \"FundMe/FundMe.sol\":1904:1928  funders.push(msg.sender) */\n      swap1\n      dup1\n      0x01\n      dup2\n      sload\n      add\n      dup1\n      dup3\n      sstore\n      dup1\n      swap2\n      pop\n      pop\n      0x01\n      swap1\n      sub\n      swap1\n      0x00\n      mstore\n      keccak256(0x00, 0x20)\n      add\n      0x00\n      swap1\n      swap2\n      swap1\n      swap2\n      swap1\n      swap2\n      0x0100\n      exp\n      dup2\n      sload\n      dup2\n      0xffffffffffffffffffffffffffffffffffffffff\n      mul\n      not\n      and\n      swap1\n      dup4\n      0xffffffffffffffffffffffffffffffffffffffff\n      and\n      mul\n      or\n      swap1\n      sstore\n      pop\n        /* \"FundMe/FundMe.sol\":1967:1976  msg.value */\n      callvalue\n        /* \"FundMe/FundMe.sol\":1938:1951  fundersAmount */\n      0x02\n        /* \"FundMe/FundMe.sol\":1938:1963  fundersAmount[msg.sender] */\n      0x00\n        /* \"FundMe/FundMe.sol\":1952:1962  msg.sender */\n      caller\n        /* \"FundMe/FundMe.sol\":1938:1963  fundersAmount[msg.sender] */\n      0xffffffffffffffffffffffffffffffffffffffff\n      and\n      0xffffffffffffffffffffffffffffffffffffffff\n      and\n      dup2\n      mstore\n      0x20\n      add\n      swap1\n      dup2\n      mstore\n      0x20\n      add\n      0x00\n      keccak256\n      0x00\n        /* \"FundMe/FundMe.sol\":1938:1976  fundersAmount[msg.sender] += msg.value */\n      dup3\n      dup3\n      sload\n      tag_63\n      swap2\n      swap1\n      tag_64\n      jump\t// in\n    tag_63:\n      swap3\n      pop\n      pop\n      dup2\n      swap1\n      sstore\n      pop\n        /* \"FundMe/FundMe.sol\":1359:1983  function fund() public payable {... */\n      jump\t// out\n        /* \"FundMe/FundMe.sol\":3018:3042  address[] public funders */\n    tag_33:\n      0x01\n      dup2\n      dup2\n      sload\n      dup2\n      lt\n      tag_65\n      jumpi\n      0x00\n      dup1\n      revert\n    tag_65:\n      swap1\n      0x00\n      mstore\n      keccak256(0x00, 0x20)\n      add\n      0x00\n      swap2\n      pop\n      sload\n      swap1\n      0x0100\n      exp\n      swap1\n      div\n      0xffffffffffffffffffffffffffffffffffffffff\n      and\n      dup2\n      jump\t// out\n        /* \"FundMe/FundMe.sol\":3237:3305  mapping(address funder => uint256 amountFunded) public fundersAmount */\n    tag_40:\n      mstore(0x20, 0x02)\n      dup1\n      0x00\n      mstore\n      keccak256(0x00, 0x40)\n      0x00\n      swap2\n      pop\n      swap1\n      pop\n      sload\n      dup2\n      jump\t// out\n        /* \"#utility.yul\":7:84   */\n    tag_67:\n        /* \"#utility.yul\":44:51   */\n      0x00\n        /* \"#utility.yul\":73:78   */\n      dup2\n        /* \"#utility.yul\":62:78   */\n      swap1\n      pop\n        /* \"#utility.yul\":7:84   */\n      swap2\n      swap1\n      pop\n      jump\t// out\n        /* \"#utility.yul\":90:208   */\n    tag_68:\n        /* \"#utility.yul\":177:201   */\n      tag_94\n        /* \"#utility.yul\":195:200   */\n      dup2\n        /* \"#utility.yul\":177:201   */\n      tag_67\n      jump\t// in\n    tag_94:\n        /* \"#utility.yul\":172:175   */\n      dup3\n        /* \"#utility.yul\":165:202   */\n      mstore\n        /* \"#utility.yul\":90:208   */\n      pop\n      pop\n      jump\t// out\n        /* \"#utility.yul\":214:436   */\n    tag_14:\n        /* \"#utility.yul\":307:311   */\n      0x00\n        /* \"#utility.yul\":345:347   */\n      0x20\n        /* \"#utility.yul\":334:343   */\n      dup3\n        /* \"#utility.yul\":330:348   */\n      add\n        /* \"#utility.yul\":322:348   */\n      swap1\n      pop\n        /* \"#utility.yul\":358:429   */\n      tag_96\n        /* \"#utility.yul\":426:427   */\n      0x00\n        /* \"#utility.yul\":415:424   */\n      dup4\n        /* \"#utility.yul\":411:428   */\n      add\n        /* \"#utility.yul\":402:408   */\n      dup5\n        /* \"#utility.yul\":358:429   */\n      tag_68\n      jump\t// in\n    tag_96:\n        /* \"#utility.yul\":214:436   */\n      swap3\n      swap2\n      pop\n      pop\n      jump\t// out\n        /* \"#utility.yul\":523:640   */\n    tag_70:\n        /* \"#utility.yul\":632:633   */\n      0x00\n        /* \"#utility.yul\":629:630   */\n      dup1\n        /* \"#utility.yul\":622:634   */\n      revert\n        /* \"#utility.yul\":769:891   */\n    tag_72:\n        /* \"#utility.yul\":842:866   */\n      tag_101\n        /* \"#utility.yul\":860:865   */\n      dup2\n        /* \"#utility.yul\":842:866   */\n      tag_67\n      jump\t// in\n    tag_101:\n        /* \"#utility.yul\":835:840   */\n      dup2\n        /* \"#utility.yul\":832:867   */\n      eq\n        /* \"#utility.yul\":822:885   */\n      tag_102\n      jumpi\n        /* \"#utility.yul\":881:882   */\n      0x00\n        /* \"#utility.yul\":878:879   */\n      dup1\n        /* \"#utility.yul\":871:883   */\n      revert\n        /* \"#utility.yul\":822:885   */\n    tag_102:\n        /* \"#utility.yul\":769:891   */\n      pop\n      jump\t// out\n        /* \"#utility.yul\":897:1036   */\n    tag_73:\n        /* \"#utility.yul\":943:948   */\n      0x00\n        /* \"#utility.yul\":981:987   */\n      dup2\n        /* \"#utility.yul\":968:988   */\n      calldataload\n        /* \"#utility.yul\":959:988   */\n      swap1\n      pop\n        /* \"#utility.yul\":997:1030   */\n      tag_104\n        /* \"#utility.yul\":1024:1029   */\n      dup2\n        /* \"#utility.yul\":997:1030   */\n      tag_72\n      jump\t// in\n    tag_104:\n        /* \"#utility.yul\":897:1036   */\n      swap3\n      swap2\n      pop\n      pop\n      jump\t// out\n        /* \"#utility.yul\":1042:1371   */\n    tag_21:\n        /* \"#utility.yul\":1101:1107   */\n      0x00\n        /* \"#utility.yul\":1150:1152   */\n      0x20\n        /* \"#utility.yul\":1138:1147   */\n      dup3\n        /* \"#utility.yul\":1129:1136   */\n      dup5\n        /* \"#utility.yul\":1125:1148   */\n      sub\n        /* \"#utility.yul\":1121:1153   */\n      slt\n        /* \"#utility.yul\":1118:1237   */\n      iszero\n      tag_106\n      jumpi\n        /* \"#utility.yul\":1156:1235   */\n      tag_107\n      tag_70\n      jump\t// in\n    tag_107:\n        /* \"#utility.yul\":1118:1237   */\n    tag_106:\n        /* \"#utility.yul\":1276:1277   */\n      0x00\n        /* \"#utility.yul\":1301:1354   */\n      tag_108\n        /* \"#utility.yul\":1346:1353   */\n      dup5\n        /* \"#utility.yul\":1337:1343   */\n      dup3\n        /* \"#utility.yul\":1326:1335   */\n      dup6\n        /* \"#utility.yul\":1322:1344   */\n      add\n        /* \"#utility.yul\":1301:1354   */\n      tag_73\n      jump\t// in\n    tag_108:\n        /* \"#utility.yul\":1291:1354   */\n      swap2\n      pop\n        /* \"#utility.yul\":1247:1364   */\n      pop\n        /* \"#utility.yul\":1042:1371   */\n      swap3\n      swap2\n      pop\n      pop\n      jump\t// out\n        /* \"#utility.yul\":1377:1503   */\n    tag_74:\n        /* \"#utility.yul\":1414:1421   */\n      0x00\n        /* \"#utility.yul\":1454:1496   */\n      0xffffffffffffffffffffffffffffffffffffffff\n        /* \"#utility.yul\":1447:1452   */\n      dup3\n        /* \"#utility.yul\":1443:1497   */\n      and\n        /* \"#utility.yul\":1432:1497   */\n      swap1\n      pop\n        /* \"#utility.yul\":1377:1503   */\n      swap2\n      swap1\n      pop\n      jump\t// out\n        /* \"#utility.yul\":1509:1605   */\n    tag_75:\n        /* \"#utility.yul\":1546:1553   */\n      0x00\n        /* \"#utility.yul\":1575:1599   */\n      tag_111\n        /* \"#utility.yul\":1593:1598   */\n      dup3\n        /* \"#utility.yul\":1575:1599   */\n      tag_74\n      jump\t// in\n    tag_111:\n        /* \"#utility.yul\":1564:1599   */\n      swap1\n      pop\n        /* \"#utility.yul\":1509:1605   */\n      swap2\n      swap1\n      pop\n      jump\t// out\n        /* \"#utility.yul\":1611:1729   */\n    tag_76:\n        /* \"#utility.yul\":1698:1722   */\n      tag_113\n        /* \"#utility.yul\":1716:1721   */\n      dup2\n        /* \"#utility.yul\":1698:1722   */\n      tag_75\n      jump\t// in\n    tag_113:\n        /* \"#utility.yul\":1693:1696   */\n      dup3\n        /* \"#utility.yul\":1686:1723   */\n      mstore\n        /* \"#utility.yul\":1611:1729   */\n      pop\n      pop\n      jump\t// out\n        /* \"#utility.yul\":1735:1957   */\n    tag_35:\n        /* \"#utility.yul\":1828:1832   */\n      0x00\n        /* \"#utility.yul\":1866:1868   */\n      0x20\n        /* \"#utility.yul\":1855:1864   */\n      dup3\n        /* \"#utility.yul\":1851:1869   */\n      add\n        /* \"#utility.yul\":1843:1869   */\n      swap1\n      pop\n        /* \"#utility.yul\":1879:1950   */\n      tag_115\n        /* \"#utility.yul\":1947:1948   */\n      0x00\n        /* \"#utility.yul\":1936:1945   */\n      dup4\n        /* \"#utility.yul\":1932:1949   */\n      add\n        /* \"#utility.yul\":1923:1929   */\n      dup5\n        /* \"#utility.yul\":1879:1950   */\n      tag_76\n      jump\t// in\n    tag_115:\n        /* \"#utility.yul\":1735:1957   */\n      swap3\n      swap2\n      pop\n      pop\n      jump\t// out\n        /* \"#utility.yul\":1963:2085   */\n    tag_77:\n        /* \"#utility.yul\":2036:2060   */\n      tag_117\n        /* \"#utility.yul\":2054:2059   */\n      dup2\n        /* \"#utility.yul\":2036:2060   */\n      tag_75\n      jump\t// in\n    tag_117:\n        /* \"#utility.yul\":2029:2034   */\n      dup2\n        /* \"#utility.yul\":2026:2061   */\n      eq\n        /* \"#utility.yul\":2016:2079   */\n      tag_118\n      jumpi\n        /* \"#utility.yul\":2075:2076   */\n      0x00\n        /* \"#utility.yul\":2072:2073   */\n      dup1\n        /* \"#utility.yul\":2065:2077   */\n      revert\n        /* \"#utility.yul\":2016:2079   */\n    tag_118:\n        /* \"#utility.yul\":1963:2085   */\n      pop\n      jump\t// out\n        /* \"#utility.yul\":2091:2230   */\n    tag_78:\n        /* \"#utility.yul\":2137:2142   */\n      0x00\n        /* \"#utility.yul\":2175:2181   */\n      dup2\n        /* \"#utility.yul\":2162:2182   */\n      calldataload\n        /* \"#utility.yul\":2153:2182   */\n      swap1\n      pop\n        /* \"#utility.yul\":2191:2224   */\n      tag_120\n        /* \"#utility.yul\":2218:2223   */\n      dup2\n        /* \"#utility.yul\":2191:2224   */\n      tag_77\n      jump\t// in\n    tag_120:\n        /* \"#utility.yul\":2091:2230   */\n      swap3\n      swap2\n      pop\n      pop\n      jump\t// out\n        /* \"#utility.yul\":2236:2565   */\n    tag_39:\n        /* \"#utility.yul\":2295:2301   */\n      0x00\n        /* \"#utility.yul\":2344:2346   */\n      0x20\n        /* \"#utility.yul\":2332:2341   */\n      dup3\n        /* \"#utility.yul\":2323:2330   */\n      dup5\n        /* \"#utility.yul\":2319:2342   */\n      sub\n        /* \"#utility.yul\":2315:2347   */\n      slt\n        /* \"#utility.yul\":2312:2431   */\n      iszero\n      tag_122\n      jumpi\n        /* \"#utility.yul\":2350:2429   */\n      tag_123\n      tag_70\n      jump\t// in\n    tag_123:\n        /* \"#utility.yul\":2312:2431   */\n    tag_122:\n        /* \"#utility.yul\":2470:2471   */\n      0x00\n        /* \"#utility.yul\":2495:2548   */\n      tag_124\n        /* \"#utility.yul\":2540:2547   */\n      dup5\n        /* \"#utility.yul\":2531:2537   */\n      dup3\n        /* \"#utility.yul\":2520:2529   */\n      dup6\n        /* \"#utility.yul\":2516:2538   */\n      add\n        /* \"#utility.yul\":2495:2548   */\n      tag_78\n      jump\t// in\n    tag_124:\n        /* \"#utility.yul\":2485:2548   */\n      swap2\n      pop\n        /* \"#utility.yul\":2441:2558   */\n      pop\n        /* \"#utility.yul\":2236:2565   */\n      swap3\n      swap2\n      pop\n      pop\n      jump\t// out\n        /* \"#utility.yul\":2571:2751   */\n    tag_79:\n        /* \"#utility.yul\":2619:2696   */\n      0x4e487b7100000000000000000000000000000000000000000000000000000000\n        /* \"#utility.yul\":2616:2617   */\n      0x00\n        /* \"#utility.yul\":2609:2697   */\n      mstore\n        /* \"#utility.yul\":2716:2720   */\n      0x11\n        /* \"#utility.yul\":2713:2714   */\n      0x04\n        /* \"#utility.yul\":2706:2721   */\n      mstore\n        /* \"#utility.yul\":2740:2744   */\n      0x24\n        /* \"#utility.yul\":2737:2738   */\n      0x00\n        /* \"#utility.yul\":2730:2745   */\n      revert\n        /* \"#utility.yul\":2757:3167   */\n    tag_46:\n        /* \"#utility.yul\":2797:2804   */\n      0x00\n        /* \"#utility.yul\":2820:2840   */\n      tag_127\n        /* \"#utility.yul\":2838:2839   */\n      dup3\n        /* \"#utility.yul\":2820:2840   */\n      tag_67\n      jump\t// in\n    tag_127:\n        /* \"#utility.yul\":2815:2840   */\n      swap2\n      pop\n        /* \"#utility.yul\":2854:2874   */\n      tag_128\n        /* \"#utility.yul\":2872:2873   */\n      dup4\n        /* \"#utility.yul\":2854:2874   */\n      tag_67\n      jump\t// in\n    tag_128:\n        /* \"#utility.yul\":2849:2874   */\n      swap3\n      pop\n        /* \"#utility.yul\":2909:2910   */\n      dup3\n        /* \"#utility.yul\":2906:2907   */\n      dup3\n        /* \"#utility.yul\":2902:2911   */\n      mul\n        /* \"#utility.yul\":2931:2961   */\n      tag_129\n        /* \"#utility.yul\":2949:2960   */\n      dup2\n        /* \"#utility.yul\":2931:2961   */\n      tag_67\n      jump\t// in\n    tag_129:\n        /* \"#utility.yul\":2920:2961   */\n      swap2\n      pop\n        /* \"#utility.yul\":3110:3111   */\n      dup3\n        /* \"#utility.yul\":3101:3108   */\n      dup3\n        /* \"#utility.yul\":3097:3112   */\n      div\n        /* \"#utility.yul\":3094:3095   */\n      dup5\n        /* \"#utility.yul\":3091:3113   */\n      eq\n        /* \"#utility.yul\":3071:3072   */\n      dup4\n        /* \"#utility.yul\":3064:3073   */\n      iszero\n        /* \"#utility.yul\":3044:3127   */\n      or\n        /* \"#utility.yul\":3021:3160   */\n      tag_130\n      jumpi\n        /* \"#utility.yul\":3140:3158   */\n      tag_131\n      tag_79\n      jump\t// in\n    tag_131:\n        /* \"#utility.yul\":3021:3160   */\n    tag_130:\n        /* \"#utility.yul\":2805:3167   */\n      pop\n        /* \"#utility.yul\":2757:3167   */\n      swap3\n      swap2\n      pop\n      pop\n      jump\t// out\n        /* \"#utility.yul\":3173:3353   */\n    tag_80:\n        /* \"#utility.yul\":3221:3298   */\n      0x4e487b7100000000000000000000000000000000000000000000000000000000\n        /* \"#utility.yul\":3218:3219   */\n      0x00\n        /* \"#utility.yul\":3211:3299   */\n      mstore\n        /* \"#utility.yul\":3318:3322   */\n      0x12\n        /* \"#utility.yul\":3315:3316   */\n      0x04\n        /* \"#utility.yul\":3308:3323   */\n      mstore\n        /* \"#utility.yul\":3342:3346   */\n      0x24\n        /* \"#utility.yul\":3339:3340   */\n      0x00\n        /* \"#utility.yul\":3332:3347   */\n      revert\n        /* \"#utility.yul\":3359:3544   */\n    tag_48:\n        /* \"#utility.yul\":3399:3400   */\n      0x00\n        /* \"#utility.yul\":3416:3436   */\n      tag_134\n        /* \"#utility.yul\":3434:3435   */\n      dup3\n        /* \"#utility.yul\":3416:3436   */\n      tag_67\n      jump\t// in\n    tag_134:\n        /* \"#utility.yul\":3411:3436   */\n      swap2\n      pop\n        /* \"#utility.yul\":3450:3470   */\n      tag_135\n        /* \"#utility.yul\":3468:3469   */\n      dup4\n        /* \"#utility.yul\":3450:3470   */\n      tag_67\n      jump\t// in\n    tag_135:\n        /* \"#utility.yul\":3445:3470   */\n      swap3\n      pop\n        /* \"#utility.yul\":3489:3490   */\n      dup3\n        /* \"#utility.yul\":3479:3514   */\n      tag_136\n      jumpi\n        /* \"#utility.yul\":3494:3512   */\n      tag_137\n      tag_80\n      jump\t// in\n    tag_137:\n        /* \"#utility.yul\":3479:3514   */\n    tag_136:\n        /* \"#utility.yul\":3536:3537   */\n      dup3\n        /* \"#utility.yul\":3533:3534   */\n      dup3\n        /* \"#utility.yul\":3529:3538   */\n      div\n        /* \"#utility.yul\":3524:3538   */\n      swap1\n      pop\n        /* \"#utility.yul\":3359:3544   */\n      swap3\n      swap2\n      pop\n      pop\n      jump\t// out\n        /* \"#utility.yul\":3550:3655   */\n    tag_81:\n        /* \"#utility.yul\":3586:3593   */\n      0x00\n        /* \"#utility.yul\":3626:3648   */\n      0xffffffffffffffffffff\n        /* \"#utility.yul\":3619:3624   */\n      dup3\n        /* \"#utility.yul\":3615:3649   */\n      and\n        /* \"#utility.yul\":3604:3649   */\n      swap1\n      pop\n        /* \"#utility.yul\":3550:3655   */\n      swap2\n      swap1\n      pop\n      jump\t// out\n        /* \"#utility.yul\":3661:3781   */\n    tag_82:\n        /* \"#utility.yul\":3733:3756   */\n      tag_140\n        /* \"#utility.yul\":3750:3755   */\n      dup2\n        /* \"#utility.yul\":3733:3756   */\n      tag_81\n      jump\t// in\n    tag_140:\n        /* \"#utility.yul\":3726:3731   */\n      dup2\n        /* \"#utility.yul\":3723:3757   */\n      eq\n        /* \"#utility.yul\":3713:3775   */\n      tag_141\n      jumpi\n        /* \"#utility.yul\":3771:3772   */\n      0x00\n        /* \"#utility.yul\":3768:3769   */\n      dup1\n        /* \"#utility.yul\":3761:3773   */\n      revert\n        /* \"#utility.yul\":3713:3775   */\n    tag_141:\n        /* \"#utility.yul\":3661:3781   */\n      pop\n      jump\t// out\n        /* \"#utility.yul\":3787:3928   */\n    tag_83:\n        /* \"#utility.yul\":3843:3848   */\n      0x00\n        /* \"#utility.yul\":3874:3880   */\n      dup2\n        /* \"#utility.yul\":3868:3881   */\n      mload\n        /* \"#utility.yul\":3859:3881   */\n      swap1\n      pop\n        /* \"#utility.yul\":3890:3922   */\n      tag_143\n        /* \"#utility.yul\":3916:3921   */\n      dup2\n        /* \"#utility.yul\":3890:3922   */\n      tag_82\n      jump\t// in\n    tag_143:\n        /* \"#utility.yul\":3787:3928   */\n      swap3\n      swap2\n      pop\n      pop\n      jump\t// out\n        /* \"#utility.yul\":3934:4010   */\n    tag_84:\n        /* \"#utility.yul\":3970:3977   */\n      0x00\n        /* \"#utility.yul\":3999:4004   */\n      dup2\n        /* \"#utility.yul\":3988:4004   */\n      swap1\n      pop\n        /* \"#utility.yul\":3934:4010   */\n      swap2\n      swap1\n      pop\n      jump\t// out\n        /* \"#utility.yul\":4016:4136   */\n    tag_85:\n        /* \"#utility.yul\":4088:4111   */\n      tag_146\n        /* \"#utility.yul\":4105:4110   */\n      dup2\n        /* \"#utility.yul\":4088:4111   */\n      tag_84\n      jump\t// in\n    tag_146:\n        /* \"#utility.yul\":4081:4086   */\n      dup2\n        /* \"#utility.yul\":4078:4112   */\n      eq\n        /* \"#utility.yul\":4068:4130   */\n      tag_147\n      jumpi\n        /* \"#utility.yul\":4126:4127   */\n      0x00\n        /* \"#utility.yul\":4123:4124   */\n      dup1\n        /* \"#utility.yul\":4116:4128   */\n      revert\n        /* \"#utility.yul\":4068:4130   */\n    tag_147:\n        /* \"#utility.yul\":4016:4136   */\n      pop\n      jump\t// out\n        /* \"#utility.yul\":4142:4283   */\n    tag_86:\n        /* \"#utility.yul\":4198:4203   */\n      0x00\n        /* \"#utility.yul\":4229:4235   */\n      dup2\n        /* \"#utility.yul\":4223:4236   */\n      mload\n        /* \"#utility.yul\":4214:4236   */\n      swap1\n      pop\n        /* \"#utility.yul\":4245:4277   */\n      tag_149\n        /* \"#utility.yul\":4271:4276   */\n      dup2\n        /* \"#utility.yul\":4245:4277   */\n      tag_85\n      jump\t// in\n    tag_149:\n        /* \"#utility.yul\":4142:4283   */\n      swap3\n      swap2\n      pop\n      pop\n      jump\t// out\n        /* \"#utility.yul\":4289:4432   */\n    tag_87:\n        /* \"#utility.yul\":4346:4351   */\n      0x00\n        /* \"#utility.yul\":4377:4383   */\n      dup2\n        /* \"#utility.yul\":4371:4384   */\n      mload\n        /* \"#utility.yul\":4362:4384   */\n      swap1\n      pop\n        /* \"#utility.yul\":4393:4426   */\n      tag_151\n        /* \"#utility.yul\":4420:4425   */\n      dup2\n        /* \"#utility.yul\":4393:4426   */\n      tag_72\n      jump\t// in\n    tag_151:\n        /* \"#utility.yul\":4289:4432   */\n      swap3\n      swap2\n      pop\n      pop\n      jump\t// out\n        /* \"#utility.yul\":4438:5409   */\n    tag_53:\n        /* \"#utility.yul\":4541:4547   */\n      0x00\n        /* \"#utility.yul\":4549:4555   */\n      dup1\n        /* \"#utility.yul\":4557:4563   */\n      0x00\n        /* \"#utility.yul\":4565:4571   */\n      dup1\n        /* \"#utility.yul\":4573:4579   */\n      0x00\n        /* \"#utility.yul\":4622:4625   */\n      0xa0\n        /* \"#utility.yul\":4610:4619   */\n      dup7\n        /* \"#utility.yul\":4601:4608   */\n      dup9\n        /* \"#utility.yul\":4597:4620   */\n      sub\n        /* \"#utility.yul\":4593:4626   */\n      slt\n        /* \"#utility.yul\":4590:4710   */\n      iszero\n      tag_153\n      jumpi\n        /* \"#utility.yul\":4629:4708   */\n      tag_154\n      tag_70\n      jump\t// in\n    tag_154:\n        /* \"#utility.yul\":4590:4710   */\n    tag_153:\n        /* \"#utility.yul\":4749:4750   */\n      0x00\n        /* \"#utility.yul\":4774:4837   */\n      tag_155\n        /* \"#utility.yul\":4829:4836   */\n      dup9\n        /* \"#utility.yul\":4820:4826   */\n      dup3\n        /* \"#utility.yul\":4809:4818   */\n      dup10\n        /* \"#utility.yul\":4805:4827   */\n      add\n        /* \"#utility.yul\":4774:4837   */\n      tag_83\n      jump\t// in\n    tag_155:\n        /* \"#utility.yul\":4764:4837   */\n      swap6\n      pop\n        /* \"#utility.yul\":4720:4847   */\n      pop\n        /* \"#utility.yul\":4886:4888   */\n      0x20\n        /* \"#utility.yul\":4912:4975   */\n      tag_156\n        /* \"#utility.yul\":4967:4974   */\n      dup9\n        /* \"#utility.yul\":4958:4964   */\n      dup3\n        /* \"#utility.yul\":4947:4956   */\n      dup10\n        /* \"#utility.yul\":4943:4965   */\n      add\n        /* \"#utility.yul\":4912:4975   */\n      tag_86\n      jump\t// in\n    tag_156:\n        /* \"#utility.yul\":4902:4975   */\n      swap5\n      pop\n        /* \"#utility.yul\":4857:4985   */\n      pop\n        /* \"#utility.yul\":5024:5026   */\n      0x40\n        /* \"#utility.yul\":5050:5114   */\n      tag_157\n        /* \"#utility.yul\":5106:5113   */\n      dup9\n        /* \"#utility.yul\":5097:5103   */\n      dup3\n        /* \"#utility.yul\":5086:5095   */\n      dup10\n        /* \"#utility.yul\":5082:5104   */\n      add\n        /* \"#utility.yul\":5050:5114   */\n      tag_87\n      jump\t// in\n    tag_157:\n        /* \"#utility.yul\":5040:5114   */\n      swap4\n      pop\n        /* \"#utility.yul\":4995:5124   */\n      pop\n        /* \"#utility.yul\":5163:5165   */\n      0x60\n        /* \"#utility.yul\":5189:5253   */\n      tag_158\n        /* \"#utility.yul\":5245:5252   */\n      dup9\n        /* \"#utility.yul\":5236:5242   */\n      dup3\n        /* \"#utility.yul\":5225:5234   */\n      dup10\n        /* \"#utility.yul\":5221:5243   */\n      add\n        /* \"#utility.yul\":5189:5253   */\n      tag_87\n      jump\t// in\n    tag_158:\n        /* \"#utility.yul\":5179:5253   */\n      swap3\n      pop\n        /* \"#utility.yul\":5134:5263   */\n      pop\n        /* \"#utility.yul\":5302:5305   */\n      0x80\n        /* \"#utility.yul\":5329:5392   */\n      tag_159\n        /* \"#utility.yul\":5384:5391   */\n      dup9\n        /* \"#utility.yul\":5375:5381   */\n      dup3\n        /* \"#utility.yul\":5364:5373   */\n      dup10\n        /* \"#utility.yul\":5360:5382   */\n      add\n        /* \"#utility.yul\":5329:5392   */\n      tag_83\n      jump\t// in\n    tag_159:\n        /* \"#utility.yul\":5319:5392   */\n      swap2\n      pop\n        /* \"#utility.yul\":5273:5402   */\n      pop\n        /* \"#utility.yul\":4438:5409   */\n      swap3\n      swap6\n      pop\n      swap3\n      swap6\n      swap1\n      swap4\n      pop\n      jump\t// out\n        /* \"#utility.yul\":5415:5971   */\n    tag_55:\n        /* \"#utility.yul\":5454:5461   */\n      0x00\n        /* \"#utility.yul\":5477:5496   */\n      tag_161\n        /* \"#utility.yul\":5494:5495   */\n      dup3\n        /* \"#utility.yul\":5477:5496   */\n      tag_84\n      jump\t// in\n    tag_161:\n        /* \"#utility.yul\":5472:5496   */\n      swap2\n      pop\n        /* \"#utility.yul\":5510:5529   */\n      tag_162\n        /* \"#utility.yul\":5527:5528   */\n      dup4\n        /* \"#utility.yul\":5510:5529   */\n      tag_84\n      jump\t// in\n    tag_162:\n        /* \"#utility.yul\":5505:5529   */\n      swap3\n      pop\n        /* \"#utility.yul\":5564:5565   */\n      dup3\n        /* \"#utility.yul\":5561:5562   */\n      dup3\n        /* \"#utility.yul\":5557:5566   */\n      mul\n        /* \"#utility.yul\":5586:5615   */\n      tag_163\n        /* \"#utility.yul\":5603:5614   */\n      dup2\n        /* \"#utility.yul\":5586:5615   */\n      tag_84\n      jump\t// in\n    tag_163:\n        /* \"#utility.yul\":5575:5615   */\n      swap2\n      pop\n        /* \"#utility.yul\":5673:5739   */\n      0x8000000000000000000000000000000000000000000000000000000000000000\n        /* \"#utility.yul\":5670:5671   */\n      dup5\n        /* \"#utility.yul\":5667:5740   */\n      eq\n        /* \"#utility.yul\":5663:5664   */\n      0x00\n        /* \"#utility.yul\":5660:5661   */\n      dup5\n        /* \"#utility.yul\":5656:5665   */\n      slt\n        /* \"#utility.yul\":5652:5741   */\n      and\n        /* \"#utility.yul\":5649:5764   */\n      iszero\n      tag_164\n      jumpi\n        /* \"#utility.yul\":5744:5762   */\n      tag_165\n      tag_79\n      jump\t// in\n    tag_165:\n        /* \"#utility.yul\":5649:5764   */\n    tag_164:\n        /* \"#utility.yul\":5914:5915   */\n      dup3\n        /* \"#utility.yul\":5905:5912   */\n      dup3\n        /* \"#utility.yul\":5900:5916   */\n      sdiv\n        /* \"#utility.yul\":5897:5898   */\n      dup5\n        /* \"#utility.yul\":5894:5917   */\n      eq\n        /* \"#utility.yul\":5874:5875   */\n      dup4\n        /* \"#utility.yul\":5867:5876   */\n      iszero\n        /* \"#utility.yul\":5847:5931   */\n      or\n        /* \"#utility.yul\":5824:5964   */\n      tag_166\n      jumpi\n        /* \"#utility.yul\":5944:5962   */\n      tag_167\n      tag_79\n      jump\t// in\n    tag_167:\n        /* \"#utility.yul\":5824:5964   */\n    tag_166:\n        /* \"#utility.yul\":5462:5971   */\n      pop\n        /* \"#utility.yul\":5415:5971   */\n      swap3\n      swap2\n      pop\n      pop\n      jump\t// out\n        /* \"#utility.yul\":5977:6146   */\n    tag_88:\n        /* \"#utility.yul\":6061:6072   */\n      0x00\n        /* \"#utility.yul\":6095:6101   */\n      dup3\n        /* \"#utility.yul\":6090:6093   */\n      dup3\n        /* \"#utility.yul\":6083:6102   */\n      mstore\n        /* \"#utility.yul\":6135:6139   */\n      0x20\n        /* \"#utility.yul\":6130:6133   */\n      dup3\n        /* \"#utility.yul\":6126:6140   */\n      add\n        /* \"#utility.yul\":6111:6140   */\n      swap1\n      pop\n        /* \"#utility.yul\":5977:6146   */\n      swap3\n      swap2\n      pop\n      pop\n      jump\t// out\n        /* \"#utility.yul\":6152:6324   */\n    tag_89:\n        /* \"#utility.yul\":6292:6316   */\n      0x6469646e27742073656e6420656e6f7567682045544800000000000000000000\n        /* \"#utility.yul\":6288:6289   */\n      0x00\n        /* \"#utility.yul\":6280:6286   */\n      dup3\n        /* \"#utility.yul\":6276:6290   */\n      add\n        /* \"#utility.yul\":6269:6317   */\n      mstore\n        /* \"#utility.yul\":6152:6324   */\n      pop\n      jump\t// out\n        /* \"#utility.yul\":6330:6696   */\n    tag_90:\n        /* \"#utility.yul\":6472:6475   */\n      0x00\n        /* \"#utility.yul\":6493:6560   */\n      tag_171\n        /* \"#utility.yul\":6557:6559   */\n      0x16\n        /* \"#utility.yul\":6552:6555   */\n      dup4\n        /* \"#utility.yul\":6493:6560   */\n      tag_88\n      jump\t// in\n    tag_171:\n        /* \"#utility.yul\":6486:6560   */\n      swap2\n      pop\n        /* \"#utility.yul\":6569:6662   */\n      tag_172\n        /* \"#utility.yul\":6658:6661   */\n      dup3\n        /* \"#utility.yul\":6569:6662   */\n      tag_89\n      jump\t// in\n    tag_172:\n        /* \"#utility.yul\":6687:6689   */\n      0x20\n        /* \"#utility.yul\":6682:6685   */\n      dup3\n        /* \"#utility.yul\":6678:6690   */\n      add\n        /* \"#utility.yul\":6671:6690   */\n      swap1\n      pop\n        /* \"#utility.yul\":6330:6696   */\n      swap2\n      swap1\n      pop\n      jump\t// out\n        /* \"#utility.yul\":6702:7121   */\n    tag_61:\n        /* \"#utility.yul\":6868:6872   */\n      0x00\n        /* \"#utility.yul\":6906:6908   */\n      0x20\n        /* \"#utility.yul\":6895:6904   */\n      dup3\n        /* \"#utility.yul\":6891:6909   */\n      add\n        /* \"#utility.yul\":6883:6909   */\n      swap1\n      pop\n        /* \"#utility.yul\":6955:6964   */\n      dup2\n        /* \"#utility.yul\":6949:6953   */\n      dup2\n        /* \"#utility.yul\":6945:6965   */\n      sub\n        /* \"#utility.yul\":6941:6942   */\n      0x00\n        /* \"#utility.yul\":6930:6939   */\n      dup4\n        /* \"#utility.yul\":6926:6943   */\n      add\n        /* \"#utility.yul\":6919:6966   */\n      mstore\n        /* \"#utility.yul\":6983:7114   */\n      tag_174\n        /* \"#utility.yul\":7109:7113   */\n      dup2\n        /* \"#utility.yul\":6983:7114   */\n      tag_90\n      jump\t// in\n    tag_174:\n        /* \"#utility.yul\":6975:7114   */\n      swap1\n      pop\n        /* \"#utility.yul\":6702:7121   */\n      swap2\n      swap1\n      pop\n      jump\t// out\n        /* \"#utility.yul\":7127:7318   */\n    tag_64:\n        /* \"#utility.yul\":7167:7170   */\n      0x00\n        /* \"#utility.yul\":7186:7206   */\n      tag_176\n        /* \"#utility.yul\":7204:7205   */\n      dup3\n        /* \"#utility.yul\":7186:7206   */\n      tag_67\n      jump\t// in\n    tag_176:\n        /* \"#utility.yul\":7181:7206   */\n      swap2\n      pop\n        /* \"#utility.yul\":7220:7240   */\n      tag_177\n        /* \"#utility.yul\":7238:7239   */\n      dup4\n        /* \"#utility.yul\":7220:7240   */\n      tag_67\n      jump\t// in\n    tag_177:\n        /* \"#utility.yul\":7215:7240   */\n      swap3\n      pop\n        /* \"#utility.yul\":7263:7264   */\n      dup3\n        /* \"#utility.yul\":7260:7261   */\n      dup3\n        /* \"#utility.yul\":7256:7265   */\n      add\n        /* \"#utility.yul\":7249:7265   */\n      swap1\n      pop\n        /* \"#utility.yul\":7284:7287   */\n      dup1\n        /* \"#utility.yul\":7281:7282   */\n      dup3\n        /* \"#utility.yul\":7278:7288   */\n      gt\n        /* \"#utility.yul\":7275:7311   */\n      iszero\n      tag_178\n      jumpi\n        /* \"#utility.yul\":7291:7309   */\n      tag_179\n      tag_79\n      jump\t// in\n    tag_179:\n        /* \"#utility.yul\":7275:7311   */\n    tag_178:\n        /* \"#utility.yul\":7127:7318   */\n      swap3\n      swap2\n      pop\n      pop\n      jump\t// out\n\n    auxdata: 0xa2646970667358221220b0b3a6445a2dac022b0bb4b7fa28e0e24de1b2b9f031eac1ba1f0eb6cf6e4b8a64736f6c63430008120033\n}\n",
				"bytecode": {
					"linkReferences": {},
					"object": "6080604052600560005534801561001557600080fd5b50610885806100256000396000f3fe6080604052600436106100705760003560e01c806398d5fdca1161004e57806398d5fdca146100f4578063b60d42881461011f578063dc0d3dff14610129578063e73c0f231461016657610070565b80633430a88c146100755780633ccfd60b146100a05780636e5b6b28146100b7575b600080fd5b34801561008157600080fd5b5061008a6101a3565b604051610097919061041f565b60405180910390f35b3480156100ac57600080fd5b506100b56101a9565b005b3480156100c357600080fd5b506100de60048036038101906100d9919061046b565b6101ab565b6040516100eb919061041f565b60405180910390f35b34801561010057600080fd5b506101096101e5565b604051610116919061041f565b60405180910390f35b610127610294565b005b34801561013557600080fd5b50610150600480360381019061014b919061046b565b6103af565b60405161015d91906104d9565b60405180910390f35b34801561017257600080fd5b5061018d60048036038101906101889190610520565b6103ee565b60405161019a919061041f565b60405180910390f35b60005481565b565b6000806101b66101e5565b90506000670de0b6b3a764000082856101cf919061057c565b6101d991906105ed565b90508092505050919050565b60008073694aa1769357215de4fac081bf1f309adc3253069050600081905060008173ffffffffffffffffffffffffffffffffffffffff1663feaf968c6040518163ffffffff1660e01b815260040160a060405180830381865afa158015610251573d6000803e3d6000fd5b505050506040513d601f19601f8201168201806040525081019061027591906106ab565b5050509150506402540be4008161028c9190610726565b935050505090565b670de0b6b3a76400006000546102aa919061057c565b6102b3346101ab565b10156102f4576040517f08c379a00000000000000000000000000000000000000000000000000000000081526004016102eb906107fb565b60405180910390fd5b6001339080600181540180825580915050600190039060005260206000200160009091909190916101000a81548173ffffffffffffffffffffffffffffffffffffffff021916908373ffffffffffffffffffffffffffffffffffffffff16021790555034600260003373ffffffffffffffffffffffffffffffffffffffff1673ffffffffffffffffffffffffffffffffffffffff16815260200190815260200160002060008282546103a6919061081b565b92505081905550565b600181815481106103bf57600080fd5b906000526020600020016000915054906101000a900473ffffffffffffffffffffffffffffffffffffffff1681565b60026020528060005260406000206000915090505481565b6000819050919050565b61041981610406565b82525050565b60006020820190506104346000830184610410565b92915050565b600080fd5b61044881610406565b811461045357600080fd5b50565b6000813590506104658161043f565b92915050565b6000602082840312156104815761048061043a565b5b600061048f84828501610456565b91505092915050565b600073ffffffffffffffffffffffffffffffffffffffff82169050919050565b60006104c382610498565b9050919050565b6104d3816104b8565b82525050565b60006020820190506104ee60008301846104ca565b92915050565b6104fd816104b8565b811461050857600080fd5b50565b60008135905061051a816104f4565b92915050565b6000602082840312156105365761053561043a565b5b60006105448482850161050b565b91505092915050565b7f4e487b7100000000000000000000000000000000000000000000000000000000600052601160045260246000fd5b600061058782610406565b915061059283610406565b92508282026105a081610406565b915082820484148315176105b7576105b661054d565b5b5092915050565b7f4e487b7100000000000000000000000000000000000000000000000000000000600052601260045260246000fd5b60006105f882610406565b915061060383610406565b925082610613576106126105be565b5b828204905092915050565b600069ffffffffffffffffffff82169050919050565b61063d8161061e565b811461064857600080fd5b50565b60008151905061065a81610634565b92915050565b6000819050919050565b61067381610660565b811461067e57600080fd5b50565b6000815190506106908161066a565b92915050565b6000815190506106a58161043f565b92915050565b600080600080600060a086880312156106c7576106c661043a565b5b60006106d58882890161064b565b95505060206106e688828901610681565b94505060406106f788828901610696565b935050606061070888828901610696565b92505060806107198882890161064b565b9150509295509295909350565b600061073182610660565b915061073c83610660565b925082820261074a81610660565b91507f800000000000000000000000000000000000000000000000000000000000000084146000841216156107825761078161054d565b5b82820584148315176107975761079661054d565b5b5092915050565b600082825260208201905092915050565b7f6469646e27742073656e6420656e6f7567682045544800000000000000000000600082015250565b60006107e560168361079e565b91506107f0826107af565b602082019050919050565b60006020820190508181036000830152610814816107d8565b9050919050565b600061082682610406565b915061083183610406565b92508282019050808211156108495761084861054d565b5b9291505056fea2646970667358221220b0b3a6445a2dac022b0bb4b7fa28e0e24de1b2b9f031eac1ba1f0eb6cf6e4b8a64736f6c63430008120033",
					"opcodes": "PUSH1 0x80 PUSH1 0x40 MSTORE PUSH1 0x5 PUSH1 0x0 SSTORE CALLVALUE DUP1 ISZERO PUSH2 0x15 JUMPI PUSH1 0x0 DUP1 REVERT JUMPDEST POP PUSH2 0x885 DUP1 PUSH2 0x25 PUSH1 0x0 CODECOPY PUSH1 0x0 RETURN INVALID PUSH1 0x80 PUSH1 0x40 MSTORE PUSH1 0x4 CALLDATASIZE LT PUSH2 0x70 JUMPI PUSH1 0x0 CALLDATALOAD PUSH1 0xE0 SHR DUP1 PUSH4 0x98D5FDCA GT PUSH2 0x4E JUMPI DUP1 PUSH4 0x98D5FDCA EQ PUSH2 0xF4 JUMPI DUP1 PUSH4 0xB60D4288 EQ PUSH2 0x11F JUMPI DUP1 PUSH4 0xDC0D3DFF EQ PUSH2 0x129 JUMPI DUP1 PUSH4 0xE73C0F23 EQ PUSH2 0x166 JUMPI PUSH2 0x70 JUMP JUMPDEST DUP1 PUSH4 0x3430A88C EQ PUSH2 0x75 JUMPI DUP1 PUSH4 0x3CCFD60B EQ PUSH2 0xA0 JUMPI DUP1 PUSH4 0x6E5B6B28 EQ PUSH2 0xB7 JUMPI JUMPDEST PUSH1 0x0 DUP1 REVERT JUMPDEST CALLVALUE DUP1 ISZERO PUSH2 0x81 JUMPI PUSH1 0x0 DUP1 REVERT JUMPDEST POP PUSH2 0x8A PUSH2 0x1A3 JUMP JUMPDEST PUSH1 0x40 MLOAD PUSH2 0x97 SWAP2 SWAP1 PUSH2 0x41F JUMP JUMPDEST PUSH1 0x40 MLOAD DUP1 SWAP2 SUB SWAP1 RETURN JUMPDEST CALLVALUE DUP1 ISZERO PUSH2 0xAC JUMPI PUSH1 0x0 DUP1 REVERT JUMPDEST POP PUSH2 0xB5 PUSH2 0x1A9 JUMP JUMPDEST STOP JUMPDEST CALLVALUE DUP1 ISZERO PUSH2 0xC3 JUMPI PUSH1 0x0 DUP1 REVERT JUMPDEST POP PUSH2 0xDE PUSH1 0x4 DUP1 CALLDATASIZE SUB DUP2 ADD SWAP1 PUSH2 0xD9 SWAP2 SWAP1 PUSH2 0x46B JUMP JUMPDEST PUSH2 0x1AB JUMP JUMPDEST PUSH1 0x40 MLOAD PUSH2 0xEB SWAP2 SWAP1 PUSH2 0x41F JUMP JUMPDEST PUSH1 0x40 MLOAD DUP1 SWAP2 SUB SWAP1 RETURN JUMPDEST CALLVALUE DUP1 ISZERO PUSH2 0x100 JUMPI PUSH1 0x0 DUP1 REVERT JUMPDEST POP PUSH2 0x109 PUSH2 0x1E5 JUMP JUMPDEST PUSH1 0x40 MLOAD PUSH2 0x116 SWAP2 SWAP1 PUSH2 0x41F JUMP JUMPDEST PUSH1 0x40 MLOAD DUP1 SWAP2 SUB SWAP1 RETURN JUMPDEST PUSH2 0x127 PUSH2 0x294 JUMP JUMPDEST STOP JUMPDEST CALLVALUE DUP1 ISZERO PUSH2 0x135 JUMPI PUSH1 0x0 DUP1 REVERT JUMPDEST POP PUSH2 0x150 PUSH1 0x4 DUP1 CALLDATASIZE SUB DUP2 ADD SWAP1 PUSH2 0x14B SWAP2 SWAP1 PUSH2 0x46B JUMP JUMPDEST PUSH2 0x3AF JUMP JUMPDEST PUSH1 0x40 MLOAD PUSH2 0x15D SWAP2 SWAP1 PUSH2 0x4D9 JUMP JUMPDEST PUSH1 0x40 MLOAD DUP1 SWAP2 SUB SWAP1 RETURN JUMPDEST CALLVALUE DUP1 ISZERO PUSH2 0x172 JUMPI PUSH1 0x0 DUP1 REVERT JUMPDEST POP PUSH2 0x18D PUSH1 0x4 DUP1 CALLDATASIZE SUB DUP2 ADD SWAP1 PUSH2 0x188 SWAP2 SWAP1 PUSH2 0x520 JUMP JUMPDEST PUSH2 0x3EE JUMP JUMPDEST PUSH1 0x40 MLOAD PUSH2 0x19A SWAP2 SWAP1 PUSH2 0x41F JUMP JUMPDEST PUSH1 0x40 MLOAD DUP1 SWAP2 SUB SWAP1 RETURN JUMPDEST PUSH1 0x0 SLOAD DUP2 JUMP JUMPDEST JUMP JUMPDEST PUSH1 0x0 DUP1 PUSH2 0x1B6 PUSH2 0x1E5 JUMP JUMPDEST SWAP1 POP PUSH1 0x0 PUSH8 0xDE0B6B3A7640000 DUP3 DUP6 PUSH2 0x1CF SWAP2 SWAP1 PUSH2 0x57C JUMP JUMPDEST PUSH2 0x1D9 SWAP2 SWAP1 PUSH2 0x5ED JUMP JUMPDEST SWAP1 POP DUP1 SWAP3 POP POP POP SWAP2 SWAP1 POP JUMP JUMPDEST PUSH1 0x0 DUP1 PUSH20 0x694AA1769357215DE4FAC081BF1F309ADC325306 SWAP1 POP PUSH1 0x0 DUP2 SWAP1 POP PUSH1 0x0 DUP2 PUSH20 0xFFFFFFFFFFFFFFFFFFFFFFFFFFFFFFFFFFFFFFFF AND PUSH4 0xFEAF968C PUSH1 0x40 MLOAD DUP2 PUSH4 0xFFFFFFFF AND PUSH1 0xE0 SHL DUP2 MSTORE PUSH1 0x4 ADD PUSH1 0xA0 PUSH1 0x40 MLOAD DUP1 DUP4 SUB DUP2 DUP7 GAS STATICCALL ISZERO DUP1 ISZERO PUSH2 0x251 JUMPI RETURNDATASIZE PUSH1 0x0 DUP1 RETURNDATACOPY RETURNDATASIZE PUSH1 0x0 REVERT JUMPDEST POP POP POP POP PUSH1 0x40 MLOAD RETURNDATASIZE PUSH1 0x1F NOT PUSH1 0x1F DUP3 ADD AND DUP3 ADD DUP1 PUSH1 0x40 MSTORE POP DUP2 ADD SWAP1 PUSH2 0x275 SWAP2 SWAP1 PUSH2 0x6AB JUMP JUMPDEST POP POP POP SWAP2 POP POP PUSH5 0x2540BE400 DUP2 PUSH2 0x28C SWAP2 SWAP1 PUSH2 0x726 JUMP JUMPDEST SWAP4 POP POP POP POP SWAP1 JUMP JUMPDEST PUSH8 0xDE0B6B3A7640000 PUSH1 0x0 SLOAD PUSH2 0x2AA SWAP2 SWAP1 PUSH2 0x57C JUMP JUMPDEST PUSH2 0x2B3 CALLVALUE PUSH2 0x1AB JUMP JUMPDEST LT ISZERO PUSH2 0x2F4 JUMPI PUSH1 0x40 MLOAD PUSH32 0x8C379A000000000000000000000000000000000000000000000000000000000 DUP2 MSTORE PUSH1 0x4 ADD PUSH2 0x2EB SWAP1 PUSH2 0x7FB JUMP JUMPDEST PUSH1 0x40 MLOAD DUP1 SWAP2 SUB SWAP1 REVERT JUMPDEST PUSH1 0x1 CALLER SWAP1 DUP1 PUSH1 0x1 DUP2 SLOAD ADD DUP1 DUP3 SSTORE DUP1 SWAP2 POP POP PUSH1 0x1 SWAP1 SUB SWAP1 PUSH1 0x0 MSTORE PUSH1 0x20 PUSH1 0x0 KECCAK256 ADD PUSH1 0x0 SWAP1 SWAP2 SWAP1 SWAP2 SWAP1 SWAP2 PUSH2 0x100 EXP DUP2 SLOAD DUP2 PUSH20 0xFFFFFFFFFFFFFFFFFFFFFFFFFFFFFFFFFFFFFFFF MUL NOT AND SWAP1 DUP4 PUSH20 0xFFFFFFFFFFFFFFFFFFFFFFFFFFFFFFFFFFFFFFFF AND MUL OR SWAP1 SSTORE POP CALLVALUE PUSH1 0x2 PUSH1 0x0 CALLER PUSH20 0xFFFFFFFFFFFFFFFFFFFFFFFFFFFFFFFFFFFFFFFF AND PUSH20 0xFFFFFFFFFFFFFFFFFFFFFFFFFFFFFFFFFFFFFFFF AND DUP2 MSTORE PUSH1 0x20 ADD SWAP1 DUP2 MSTORE PUSH1 0x20 ADD PUSH1 0x0 KECCAK256 PUSH1 0x0 DUP3 DUP3 SLOAD PUSH2 0x3A6 SWAP2 SWAP1 PUSH2 0x81B JUMP JUMPDEST SWAP3 POP POP DUP2 SWAP1 SSTORE POP JUMP JUMPDEST PUSH1 0x1 DUP2 DUP2 SLOAD DUP2 LT PUSH2 0x3BF JUMPI PUSH1 0x0 DUP1 REVERT JUMPDEST SWAP1 PUSH1 0x0 MSTORE PUSH1 0x20 PUSH1 0x0 KECCAK256 ADD PUSH1 0x0 SWAP2 POP SLOAD SWAP1 PUSH2 0x100 EXP SWAP1 DIV PUSH20 0xFFFFFFFFFFFFFFFFFFFFFFFFFFFFFFFFFFFFFFFF AND DUP2 JUMP JUMPDEST PUSH1 0x2 PUSH1 0x20 MSTORE DUP1 PUSH1 0x0 MSTORE PUSH1 0x40 PUSH1 0x0 KECCAK256 PUSH1 0x0 SWAP2 POP SWAP1 POP SLOAD DUP2 JUMP JUMPDEST PUSH1 0x0 DUP2 SWAP1 POP SWAP2 SWAP1 POP JUMP JUMPDEST PUSH2 0x419 DUP2 PUSH2 0x406 JUMP JUMPDEST DUP3 MSTORE POP POP JUMP JUMPDEST PUSH1 0x0 PUSH1 0x20 DUP3 ADD SWAP1 POP PUSH2 0x434 PUSH1 0x0 DUP4 ADD DUP5 PUSH2 0x410 JUMP JUMPDEST SWAP3 SWAP2 POP POP JUMP JUMPDEST PUSH1 0x0 DUP1 REVERT JUMPDEST PUSH2 0x448 DUP2 PUSH2 0x406 JUMP JUMPDEST DUP2 EQ PUSH2 0x453 JUMPI PUSH1 0x0 DUP1 REVERT JUMPDEST POP JUMP JUMPDEST PUSH1 0x0 DUP2 CALLDATALOAD SWAP1 POP PUSH2 0x465 DUP2 PUSH2 0x43F JUMP JUMPDEST SWAP3 SWAP2 POP POP JUMP JUMPDEST PUSH1 0x0 PUSH1 0x20 DUP3 DUP5 SUB SLT ISZERO PUSH2 0x481 JUMPI PUSH2 0x480 PUSH2 0x43A JUMP JUMPDEST JUMPDEST PUSH1 0x0 PUSH2 0x48F DUP5 DUP3 DUP6 ADD PUSH2 0x456 JUMP JUMPDEST SWAP2 POP POP SWAP3 SWAP2 POP POP JUMP JUMPDEST PUSH1 0x0 PUSH20 0xFFFFFFFFFFFFFFFFFFFFFFFFFFFFFFFFFFFFFFFF DUP3 AND SWAP1 POP SWAP2 SWAP1 POP JUMP JUMPDEST PUSH1 0x0 PUSH2 0x4C3 DUP3 PUSH2 0x498 JUMP JUMPDEST SWAP1 POP SWAP2 SWAP1 POP JUMP JUMPDEST PUSH2 0x4D3 DUP2 PUSH2 0x4B8 JUMP JUMPDEST DUP3 MSTORE POP POP JUMP JUMPDEST PUSH1 0x0 PUSH1 0x20 DUP3 ADD SWAP1 POP PUSH2 0x4EE PUSH1 0x0 DUP4 ADD DUP5 PUSH2 0x4CA JUMP JUMPDEST SWAP3 SWAP2 POP POP JUMP JUMPDEST PUSH2 0x4FD DUP2 PUSH2 0x4B8 JUMP JUMPDEST DUP2 EQ PUSH2 0x508 JUMPI PUSH1 0x0 DUP1 REVERT JUMPDEST POP JUMP JUMPDEST PUSH1 0x0 DUP2 CALLDATALOAD SWAP1 POP PUSH2 0x51A DUP2 PUSH2 0x4F4 JUMP JUMPDEST SWAP3 SWAP2 POP POP JUMP JUMPDEST PUSH1 0x0 PUSH1 0x20 DUP3 DUP5 SUB SLT ISZERO PUSH2 0x536 JUMPI PUSH2 0x535 PUSH2 0x43A JUMP JUMPDEST JUMPDEST PUSH1 0x0 PUSH2 0x544 DUP5 DUP3 DUP6 ADD PUSH2 0x50B JUMP JUMPDEST SWAP2 POP POP SWAP3 SWAP2 POP POP JUMP JUMPDEST PUSH32 0x4E487B7100000000000000000000000000000000000000000000000000000000 PUSH1 0x0 MSTORE PUSH1 0x11 PUSH1 0x4 MSTORE PUSH1 0x24 PUSH1 0x0 REVERT JUMPDEST PUSH1 0x0 PUSH2 0x587 DUP3 PUSH2 0x406 JUMP JUMPDEST SWAP2 POP PUSH2 0x592 DUP4 PUSH2 0x406 JUMP JUMPDEST SWAP3 POP DUP3 DUP3 MUL PUSH2 0x5A0 DUP2 PUSH2 0x406 JUMP JUMPDEST SWAP2 POP DUP3 DUP3 DIV DUP5 EQ DUP4 ISZERO OR PUSH2 0x5B7 JUMPI PUSH2 0x5B6 PUSH2 0x54D JUMP JUMPDEST JUMPDEST POP SWAP3 SWAP2 POP POP JUMP JUMPDEST PUSH32 0x4E487B7100000000000000000000000000000000000000000000000000000000 PUSH1 0x0 MSTORE PUSH1 0x12 PUSH1 0x4 MSTORE PUSH1 0x24 PUSH1 0x0 REVERT JUMPDEST PUSH1 0x0 PUSH2 0x5F8 DUP3 PUSH2 0x406 JUMP JUMPDEST SWAP2 POP PUSH2 0x603 DUP4 PUSH2 0x406 JUMP JUMPDEST SWAP3 POP DUP3 PUSH2 0x613 JUMPI PUSH2 0x612 PUSH2 0x5BE JUMP JUMPDEST JUMPDEST DUP3 DUP3 DIV SWAP1 POP SWAP3 SWAP2 POP POP JUMP JUMPDEST PUSH1 0x0 PUSH10 0xFFFFFFFFFFFFFFFFFFFF DUP3 AND SWAP1 POP SWAP2 SWAP1 POP JUMP JUMPDEST PUSH2 0x63D DUP2 PUSH2 0x61E JUMP JUMPDEST DUP2 EQ PUSH2 0x648 JUMPI PUSH1 0x0 DUP1 REVERT JUMPDEST POP JUMP JUMPDEST PUSH1 0x0 DUP2 MLOAD SWAP1 POP PUSH2 0x65A DUP2 PUSH2 0x634 JUMP JUMPDEST SWAP3 SWAP2 POP POP JUMP JUMPDEST PUSH1 0x0 DUP2 SWAP1 POP SWAP2 SWAP1 POP JUMP JUMPDEST PUSH2 0x673 DUP2 PUSH2 0x660 JUMP JUMPDEST DUP2 EQ PUSH2 0x67E JUMPI PUSH1 0x0 DUP1 REVERT JUMPDEST POP JUMP JUMPDEST PUSH1 0x0 DUP2 MLOAD SWAP1 POP PUSH2 0x690 DUP2 PUSH2 0x66A JUMP JUMPDEST SWAP3 SWAP2 POP POP JUMP JUMPDEST PUSH1 0x0 DUP2 MLOAD SWAP1 POP PUSH2 0x6A5 DUP2 PUSH2 0x43F JUMP JUMPDEST SWAP3 SWAP2 POP POP JUMP JUMPDEST PUSH1 0x0 DUP1 PUSH1 0x0 DUP1 PUSH1 0x0 PUSH1 0xA0 DUP7 DUP9 SUB SLT ISZERO PUSH2 0x6C7 JUMPI PUSH2 0x6C6 PUSH2 0x43A JUMP JUMPDEST JUMPDEST PUSH1 0x0 PUSH2 0x6D5 DUP9 DUP3 DUP10 ADD PUSH2 0x64B JUMP JUMPDEST SWAP6 POP POP PUSH1 0x20 PUSH2 0x6E6 DUP9 DUP3 DUP10 ADD PUSH2 0x681 JUMP JUMPDEST SWAP5 POP POP PUSH1 0x40 PUSH2 0x6F7 DUP9 DUP3 DUP10 ADD PUSH2 0x696 JUMP JUMPDEST SWAP4 POP POP PUSH1 0x60 PUSH2 0x708 DUP9 DUP3 DUP10 ADD PUSH2 0x696 JUMP JUMPDEST SWAP3 POP POP PUSH1 0x80 PUSH2 0x719 DUP9 DUP3 DUP10 ADD PUSH2 0x64B JUMP JUMPDEST SWAP2 POP POP SWAP3 SWAP6 POP SWAP3 SWAP6 SWAP1 SWAP4 POP JUMP JUMPDEST PUSH1 0x0 PUSH2 0x731 DUP3 PUSH2 0x660 JUMP JUMPDEST SWAP2 POP PUSH2 0x73C DUP4 PUSH2 0x660 JUMP JUMPDEST SWAP3 POP DUP3 DUP3 MUL PUSH2 0x74A DUP2 PUSH2 0x660 JUMP JUMPDEST SWAP2 POP PUSH32 0x8000000000000000000000000000000000000000000000000000000000000000 DUP5 EQ PUSH1 0x0 DUP5 SLT AND ISZERO PUSH2 0x782 JUMPI PUSH2 0x781 PUSH2 0x54D JUMP JUMPDEST JUMPDEST DUP3 DUP3 SDIV DUP5 EQ DUP4 ISZERO OR PUSH2 0x797 JUMPI PUSH2 0x796 PUSH2 0x54D JUMP JUMPDEST JUMPDEST POP SWAP3 SWAP2 POP POP JUMP JUMPDEST PUSH1 0x0 DUP3 DUP3 MSTORE PUSH1 0x20 DUP3 ADD SWAP1 POP SWAP3 SWAP2 POP POP JUMP JUMPDEST PUSH32 0x6469646E27742073656E6420656E6F7567682045544800000000000000000000 PUSH1 0x0 DUP3 ADD MSTORE POP JUMP JUMPDEST PUSH1 0x0 PUSH2 0x7E5 PUSH1 0x16 DUP4 PUSH2 0x79E JUMP JUMPDEST SWAP2 POP PUSH2 0x7F0 DUP3 PUSH2 0x7AF JUMP JUMPDEST PUSH1 0x20 DUP3 ADD SWAP1 POP SWAP2 SWAP1 POP JUMP JUMPDEST PUSH1 0x0 PUSH1 0x20 DUP3 ADD SWAP1 POP DUP2 DUP2 SUB PUSH1 0x0 DUP4 ADD MSTORE PUSH2 0x814 DUP2 PUSH2 0x7D8 JUMP JUMPDEST SWAP1 POP SWAP2 SWAP1 POP JUMP JUMPDEST PUSH1 0x0 PUSH2 0x826 DUP3 PUSH2 0x406 JUMP JUMPDEST SWAP2 POP PUSH2 0x831 DUP4 PUSH2 0x406 JUMP JUMPDEST SWAP3 POP DUP3 DUP3 ADD SWAP1 POP DUP1 DUP3 GT ISZERO PUSH2 0x849 JUMPI PUSH2 0x848 PUSH2 0x54D JUMP JUMPDEST JUMPDEST SWAP3 SWAP2 POP POP JUMP INVALID LOG2 PUSH5 0x6970667358 0x22 SLT KECCAK256 0xB0 0xB3 0xA6 PREVRANDAO GAS 0x2D 0xAC MUL 0x2B SIGNEXTEND 0xB4 0xB7 STATICCALL 0x28 0xE0 0xE2 0x4D 0xE1 0xB2 0xB9 CREATE BALANCE 0xEA 0xC1 0xBA 0x1F 0xE 0xB6 0xCF PUSH15 0x4B8A64736F6C634300081200330000 "
				},
				"gasEstimates": {
					"creation": {
						"codeDepositCost": "436200",
						"executionCost": "22580",
						"totalCost": "458780"
					},
					"external": {
						"fund()": "infinite",
						"funders(uint256)": "5000",
						"fundersAmount(address)": "2880",
						"getConversionRate(uint256)": "infinite",
						"getPrice()": "infinite",
						"minimumUSD()": "2430",
						"withdraw()": "167"
					}
				},
				"methodIdentifiers": {
					"fund()": "b60d4288",
					"funders(uint256)": "dc0d3dff",
					"fundersAmount(address)": "e73c0f23",
					"getConversionRate(uint256)": "6e5b6b28",
					"getPrice()": "98d5fdca",
					"minimumUSD()": "3430a88c",
					"withdraw()": "3ccfd60b"
				}
			},
			"storageLayout": {
				"storage": [
					{
						"astId": 52,
						"contract": "FundMe/FundMe.sol:FundMe",
						"label": "minimumUSD",
						"offset": 0,
						"slot": "0",
						"type": "t_uint256"
					},
					{
						"astId": 141,
						"contract": "FundMe/FundMe.sol:FundMe",
						"label": "funders",
						"offset": 0,
						"slot": "1",
						"type": "t_array(t_address)dyn_storage"
					},
					{
						"astId": 145,
						"contract": "FundMe/FundMe.sol:FundMe",
						"label": "fundersAmount",
						"offset": 0,
						"slot": "2",
						"type": "t_mapping(t_address,t_uint256)"
					}
				],
				"types": {
					"t_address": {
						"encoding": "inplace",
						"label": "address",
						"numberOfBytes": "20"
					},
					"t_array(t_address)dyn_storage": {
						"base": "t_address",
						"encoding": "dynamic_array",
						"label": "address[]",
						"numberOfBytes": "32"
					},
					"t_mapping(t_address,t_uint256)": {
						"encoding": "mapping",
						"key": "t_address",
						"label": "mapping(address => uint256)",
						"numberOfBytes": "32",
						"value": "t_uint256"
					},
					"t_uint256": {
						"encoding": "inplace",
						"label": "uint256",
						"numberOfBytes": "32"
					}
				}
			},
			"userdoc": {
				"kind": "user",
				"methods": {},
				"version": 1
			}
		}
	}
}