{
	"data": {
		"bytecode": {
			"linkReferences": {},
			"object": "608060405260016000806101000a81548160ff02191690831515021790555060586001556040518060600160405280601681526020016040518060400160405280600381526020017f416c69000000000000000000000000000000000000000000000000000000000081525081526020016001151581525060036000820151816000015560208201518160010190816200009a9190620003e5565b5060408201518160020160006101000a81548160ff02191690831515021790555050506040518060600160405280601b81526020016040518060400160405280600781526020017f416e6168697461000000000000000000000000000000000000000000000000008152508152602001600115158152506006600082015181600001556020820151816001019081620001349190620003e5565b5060408201518160020160006101000a81548160ff02191690831515021790555050503480156200016457600080fd5b50620004cc565b600081519050919050565b7f4e487b7100000000000000000000000000000000000000000000000000000000600052604160045260246000fd5b7f4e487b7100000000000000000000000000000000000000000000000000000000600052602260045260246000fd5b60006002820490506001821680620001ed57607f821691505b602082108103620002035762000202620001a5565b5b50919050565b60008190508160005260206000209050919050565b60006020601f8301049050919050565b600082821b905092915050565b6000600883026200026d7fffffffffffffffffffffffffffffffffffffffffffffffffffffffffffffffff826200022e565b6200027986836200022e565b95508019841693508086168417925050509392505050565b6000819050919050565b6000819050919050565b6000620002c6620002c0620002ba8462000291565b6200029b565b62000291565b9050919050565b6000819050919050565b620002e283620002a5565b620002fa620002f182620002cd565b8484546200023b565b825550505050565b600090565b6200031162000302565b6200031e818484620002d7565b505050565b5b8181101562000346576200033a60008262000307565b60018101905062000324565b5050565b601f82111562000395576200035f8162000209565b6200036a846200021e565b810160208510156200037a578190505b6200039262000389856200021e565b83018262000323565b50505b505050565b600082821c905092915050565b6000620003ba600019846008026200039a565b1980831691505092915050565b6000620003d58383620003a7565b9150826002028217905092915050565b620003f0826200016b565b67ffffffffffffffff8111156200040c576200040b62000176565b5b620004188254620001d4565b620004258282856200034a565b600060209050601f8311600181146200045d576000841562000448578287015190505b620004548582620003c7565b865550620004c4565b601f1984166200046d8662000209565b60005b82811015620004975784890151825560018201915060208501945060208101905062000470565b86831015620004b75784890151620004b3601f891682620003a7565b8355505b6001600288020188555050505b505050505050565b610d8180620004dc6000396000f3fe608060405234801561001057600080fd5b50600436106100885760003560e01c80638ae6ccb41161005b5780638ae6ccb41461013d5780638ca988741461016d578063a621d15e1461018d578063dacb88e2146101ab57610088565b8063075119781461008d57806348a7ffb7146100bf5780636057361d146100ef5780636663e66d1461010b575b600080fd5b6100a760048036038101906100a29190610643565b6101cb565b6040516100b69392919061072a565b60405180910390f35b6100d960048036038101906100d491906108c9565b610290565b6040516100e69190610938565b60405180910390f35b61010960048036038101906101049190610643565b610382565b005b61012560048036038101906101209190610643565b610398565b6040516101349392919061072a565b60405180910390f35b61015760048036038101906101529190610953565b610467565b604051610164919061099c565b60405180910390f35b610175610495565b6040516101849392919061072a565b60405180910390f35b610195610542565b6040516101a2919061099c565b60405180910390f35b6101b361054c565b6040516101c29392919061072a565b60405180910390f35b600a81600381106101db57600080fd5b600302016000915090508060000154908060010180546101fa906109e6565b80601f0160208091040260200160405190810160405280929190818152602001828054610226906109e6565b80156102735780601f1061024857610100808354040283529160200191610273565b820191906000526020600020905b81548152906001019060200180831161025657829003601f168201915b5050505050908060020160009054906101000a900460ff16905083565b60006009604051806060016040528086815260200185815260200184151581525090806001815401808255809150506001900390600052602060002090600302016000909190919091506000820151816000015560208201518160010190816102f99190610bc3565b5060408201518160020160006101000a81548160ff02191690831515021790555050508360138460405161032d9190610cd1565b9081526020016040518091039020819055506040518060400160405280600381526020017f414c4900000000000000000000000000000000000000000000000000000000008152509250600190509392505050565b60058161038f9190610d17565b60018190555050565b600981815481106103a857600080fd5b90600052602060002090600302016000915090508060000154908060010180546103d1906109e6565b80601f01602080910402602001604051908101604052809291908181526020018280546103fd906109e6565b801561044a5780601f1061041f5761010080835404028352916020019161044a565b820191906000526020600020905b81548152906001019060200180831161042d57829003601f168201915b5050505050908060020160009054906101000a900460ff16905083565b6013818051602081018201805184825260208301602085012081835280955050505050506000915090505481565b60068060000154908060010180546104ac906109e6565b80601f01602080910402602001604051908101604052809291908181526020018280546104d8906109e6565b80156105255780601f106104fa57610100808354040283529160200191610525565b820191906000526020600020905b81548152906001019060200180831161050857829003601f168201915b5050505050908060020160009054906101000a900460ff16905083565b6000600154905090565b6003806000015490806001018054610563906109e6565b80601f016020809104026020016040519081016040528092919081815260200182805461058f906109e6565b80156105dc5780601f106105b1576101008083540402835291602001916105dc565b820191906000526020600020905b8154815290600101906020018083116105bf57829003601f168201915b5050505050908060020160009054906101000a900460ff16905083565b6000604051905090565b600080fd5b600080fd5b6000819050919050565b6106208161060d565b811461062b57600080fd5b50565b60008135905061063d81610617565b92915050565b60006020828403121561065957610658610603565b5b60006106678482850161062e565b91505092915050565b6106798161060d565b82525050565b600081519050919050565b600082825260208201905092915050565b60005b838110156106b957808201518184015260208101905061069e565b60008484015250505050565b6000601f19601f8301169050919050565b60006106e18261067f565b6106eb818561068a565b93506106fb81856020860161069b565b610704816106c5565b840191505092915050565b60008115159050919050565b6107248161070f565b82525050565b600060608201905061073f6000830186610670565b818103602083015261075181856106d6565b9050610760604083018461071b565b949350505050565b600080fd5b600080fd5b7f4e487b7100000000000000000000000000000000000000000000000000000000600052604160045260246000fd5b6107aa826106c5565b810181811067ffffffffffffffff821117156107c9576107c8610772565b5b80604052505050565b60006107dc6105f9565b90506107e882826107a1565b919050565b600067ffffffffffffffff82111561080857610807610772565b5b610811826106c5565b9050602081019050919050565b82818337600083830152505050565b600061084061083b846107ed565b6107d2565b90508281526020810184848401111561085c5761085b61076d565b5b61086784828561081e565b509392505050565b600082601f83011261088457610883610768565b5b813561089484826020860161082d565b91505092915050565b6108a68161070f565b81146108b157600080fd5b50565b6000813590506108c38161089d565b92915050565b6000806000606084860312156108e2576108e1610603565b5b60006108f08682870161062e565b935050602084013567ffffffffffffffff81111561091157610910610608565b5b61091d8682870161086f565b925050604061092e868287016108b4565b9150509250925092565b600060208201905061094d600083018461071b565b92915050565b60006020828403121561096957610968610603565b5b600082013567ffffffffffffffff81111561098757610986610608565b5b6109938482850161086f565b91505092915050565b60006020820190506109b16000830184610670565b92915050565b7f4e487b7100000000000000000000000000000000000000000000000000000000600052602260045260246000fd5b600060028204905060018216806109fe57607f821691505b602082108103610a1157610a106109b7565b5b50919050565b60008190508160005260206000209050919050565b60006020601f8301049050919050565b600082821b905092915050565b600060088302610a797fffffffffffffffffffffffffffffffffffffffffffffffffffffffffffffffff82610a3c565b610a838683610a3c565b95508019841693508086168417925050509392505050565b6000819050919050565b6000610ac0610abb610ab68461060d565b610a9b565b61060d565b9050919050565b6000819050919050565b610ada83610aa5565b610aee610ae682610ac7565b848454610a49565b825550505050565b600090565b610b03610af6565b610b0e818484610ad1565b505050565b5b81811015610b3257610b27600082610afb565b600181019050610b14565b5050565b601f821115610b7757610b4881610a17565b610b5184610a2c565b81016020851015610b60578190505b610b74610b6c85610a2c565b830182610b13565b50505b505050565b600082821c905092915050565b6000610b9a60001984600802610b7c565b1980831691505092915050565b6000610bb38383610b89565b9150826002028217905092915050565b610bcc8261067f565b67ffffffffffffffff811115610be557610be4610772565b5b610bef82546109e6565b610bfa828285610b36565b600060209050601f831160018114610c2d5760008415610c1b578287015190505b610c258582610ba7565b865550610c8d565b601f198416610c3b86610a17565b60005b82811015610c6357848901518255600182019150602085019450602081019050610c3e565b86831015610c805784890151610c7c601f891682610b89565b8355505b6001600288020188555050505b505050505050565b600081905092915050565b6000610cab8261067f565b610cb58185610c95565b9350610cc581856020860161069b565b80840191505092915050565b6000610cdd8284610ca0565b915081905092915050565b7f4e487b7100000000000000000000000000000000000000000000000000000000600052601160045260246000fd5b6000610d228261060d565b9150610d2d8361060d565b9250828201905080821115610d4557610d44610ce8565b5b9291505056fea26469706673582212201e1b59df9dcc3d806933a82a9e2e2318d8f72caaf50a1a2b92fdd9df6254eaa264736f6c63430008130033",
			"opcodes": "PUSH1 0x80 PUSH1 0x40 MSTORE PUSH1 0x1 PUSH1 0x0 DUP1 PUSH2 0x100 EXP DUP2 SLOAD DUP2 PUSH1 0xFF MUL NOT AND SWAP1 DUP4 ISZERO ISZERO MUL OR SWAP1 SSTORE POP PUSH1 0x58 PUSH1 0x1 SSTORE PUSH1 0x40 MLOAD DUP1 PUSH1 0x60 ADD PUSH1 0x40 MSTORE DUP1 PUSH1 0x16 DUP2 MSTORE PUSH1 0x20 ADD PUSH1 0x40 MLOAD DUP1 PUSH1 0x40 ADD PUSH1 0x40 MSTORE DUP1 PUSH1 0x3 DUP2 MSTORE PUSH1 0x20 ADD PUSH32 0x416C690000000000000000000000000000000000000000000000000000000000 DUP2 MSTORE POP DUP2 MSTORE PUSH1 0x20 ADD PUSH1 0x1 ISZERO ISZERO DUP2 MSTORE POP PUSH1 0x3 PUSH1 0x0 DUP3 ADD MLOAD DUP2 PUSH1 0x0 ADD SSTORE PUSH1 0x20 DUP3 ADD MLOAD DUP2 PUSH1 0x1 ADD SWAP1 DUP2 PUSH3 0x9A SWAP2 SWAP1 PUSH3 0x3E5 JUMP JUMPDEST POP PUSH1 0x40 DUP3 ADD MLOAD DUP2 PUSH1 0x2 ADD PUSH1 0x0 PUSH2 0x100 EXP DUP2 SLOAD DUP2 PUSH1 0xFF MUL NOT AND SWAP1 DUP4 ISZERO ISZERO MUL OR SWAP1 SSTORE POP POP POP PUSH1 0x40 MLOAD DUP1 PUSH1 0x60 ADD PUSH1 0x40 MSTORE DUP1 PUSH1 0x1B DUP2 MSTORE PUSH1 0x20 ADD PUSH1 0x40 MLOAD DUP1 PUSH1 0x40 ADD PUSH1 0x40 MSTORE DUP1 PUSH1 0x7 DUP2 MSTORE PUSH1 0x20 ADD PUSH32 0x416E616869746100000000000000000000000000000000000000000000000000 DUP2 MSTORE POP DUP2 MSTORE PUSH1 0x20 ADD PUSH1 0x1 ISZERO ISZERO DUP2 MSTORE POP PUSH1 0x6 PUSH1 0x0 DUP3 ADD MLOAD DUP2 PUSH1 0x0 ADD SSTORE PUSH1 0x20 DUP3 ADD MLOAD DUP2 PUSH1 0x1 ADD SWAP1 DUP2 PUSH3 0x134 SWAP2 SWAP1 PUSH3 0x3E5 JUMP JUMPDEST POP PUSH1 0x40 DUP3 ADD MLOAD DUP2 PUSH1 0x2 ADD PUSH1 0x0 PUSH2 0x100 EXP DUP2 SLOAD DUP2 PUSH1 0xFF MUL NOT AND SWAP1 DUP4 ISZERO ISZERO MUL OR SWAP1 SSTORE POP POP POP CALLVALUE DUP1 ISZERO PUSH3 0x164 JUMPI PUSH1 0x0 DUP1 REVERT JUMPDEST POP PUSH3 0x4CC JUMP JUMPDEST PUSH1 0x0 DUP2 MLOAD SWAP1 POP SWAP2 SWAP1 POP JUMP JUMPDEST PUSH32 0x4E487B7100000000000000000000000000000000000000000000000000000000 PUSH1 0x0 MSTORE PUSH1 0x41 PUSH1 0x4 MSTORE PUSH1 0x24 PUSH1 0x0 REVERT JUMPDEST PUSH32 0x4E487B7100000000000000000000000000000000000000000000000000000000 PUSH1 0x0 MSTORE PUSH1 0x22 PUSH1 0x4 MSTORE PUSH1 0x24 PUSH1 0x0 REVERT JUMPDEST PUSH1 0x0 PUSH1 0x2 DUP3 DIV SWAP1 POP PUSH1 0x1 DUP3 AND DUP1 PUSH3 0x1ED JUMPI PUSH1 0x7F DUP3 AND SWAP2 POP JUMPDEST PUSH1 0x20 DUP3 LT DUP2 SUB PUSH3 0x203 JUMPI PUSH3 0x202 PUSH3 0x1A5 JUMP JUMPDEST JUMPDEST POP SWAP2 SWAP1 POP JUMP JUMPDEST PUSH1 0x0 DUP2 SWAP1 POP DUP2 PUSH1 0x0 MSTORE PUSH1 0x20 PUSH1 0x0 KECCAK256 SWAP1 POP SWAP2 SWAP1 POP JUMP JUMPDEST PUSH1 0x0 PUSH1 0x20 PUSH1 0x1F DUP4 ADD DIV SWAP1 POP SWAP2 SWAP1 POP JUMP JUMPDEST PUSH1 0x0 DUP3 DUP3 SHL SWAP1 POP SWAP3 SWAP2 POP POP JUMP JUMPDEST PUSH1 0x0 PUSH1 0x8 DUP4 MUL PUSH3 0x26D PUSH32 0xFFFFFFFFFFFFFFFFFFFFFFFFFFFFFFFFFFFFFFFFFFFFFFFFFFFFFFFFFFFFFFFF DUP3 PUSH3 0x22E JUMP JUMPDEST PUSH3 0x279 DUP7 DUP4 PUSH3 0x22E JUMP JUMPDEST SWAP6 POP DUP1 NOT DUP5 AND SWAP4 POP DUP1 DUP7 AND DUP5 OR SWAP3 POP POP POP SWAP4 SWAP3 POP POP POP JUMP JUMPDEST PUSH1 0x0 DUP2 SWAP1 POP SWAP2 SWAP1 POP JUMP JUMPDEST PUSH1 0x0 DUP2 SWAP1 POP SWAP2 SWAP1 POP JUMP JUMPDEST PUSH1 0x0 PUSH3 0x2C6 PUSH3 0x2C0 PUSH3 0x2BA DUP5 PUSH3 0x291 JUMP JUMPDEST PUSH3 0x29B JUMP JUMPDEST PUSH3 0x291 JUMP JUMPDEST SWAP1 POP SWAP2 SWAP1 POP JUMP JUMPDEST PUSH1 0x0 DUP2 SWAP1 POP SWAP2 SWAP1 POP JUMP JUMPDEST PUSH3 0x2E2 DUP4 PUSH3 0x2A5 JUMP JUMPDEST PUSH3 0x2FA PUSH3 0x2F1 DUP3 PUSH3 0x2CD JUMP JUMPDEST DUP5 DUP5 SLOAD PUSH3 0x23B JUMP JUMPDEST DUP3 SSTORE POP POP POP POP JUMP JUMPDEST PUSH1 0x0 SWAP1 JUMP JUMPDEST PUSH3 0x311 PUSH3 0x302 JUMP JUMPDEST PUSH3 0x31E DUP2 DUP5 DUP5 PUSH3 0x2D7 JUMP JUMPDEST POP POP POP JUMP JUMPDEST JUMPDEST DUP2 DUP2 LT ISZERO PUSH3 0x346 JUMPI PUSH3 0x33A PUSH1 0x0 DUP3 PUSH3 0x307 JUMP JUMPDEST PUSH1 0x1 DUP2 ADD SWAP1 POP PUSH3 0x324 JUMP JUMPDEST POP POP JUMP JUMPDEST PUSH1 0x1F DUP3 GT ISZERO PUSH3 0x395 JUMPI PUSH3 0x35F DUP2 PUSH3 0x209 JUMP JUMPDEST PUSH3 0x36A DUP5 PUSH3 0x21E JUMP JUMPDEST DUP2 ADD PUSH1 0x20 DUP6 LT ISZERO PUSH3 0x37A JUMPI DUP2 SWAP1 POP JUMPDEST PUSH3 0x392 PUSH3 0x389 DUP6 PUSH3 0x21E JUMP JUMPDEST DUP4 ADD DUP3 PUSH3 0x323 JUMP JUMPDEST POP POP JUMPDEST POP POP POP JUMP JUMPDEST PUSH1 0x0 DUP3 DUP3 SHR SWAP1 POP SWAP3 SWAP2 POP POP JUMP JUMPDEST PUSH1 0x0 PUSH3 0x3BA PUSH1 0x0 NOT DUP5 PUSH1 0x8 MUL PUSH3 0x39A JUMP JUMPDEST NOT DUP1 DUP4 AND SWAP2 POP POP SWAP3 SWAP2 POP POP JUMP JUMPDEST PUSH1 0x0 PUSH3 0x3D5 DUP4 DUP4 PUSH3 0x3A7 JUMP JUMPDEST SWAP2 POP DUP3 PUSH1 0x2 MUL DUP3 OR SWAP1 POP SWAP3 SWAP2 POP POP JUMP JUMPDEST PUSH3 0x3F0 DUP3 PUSH3 0x16B JUMP JUMPDEST PUSH8 0xFFFFFFFFFFFFFFFF DUP2 GT ISZERO PUSH3 0x40C JUMPI PUSH3 0x40B PUSH3 0x176 JUMP JUMPDEST JUMPDEST PUSH3 0x418 DUP3 SLOAD PUSH3 0x1D4 JUMP JUMPDEST PUSH3 0x425 DUP3 DUP3 DUP6 PUSH3 0x34A JUMP JUMPDEST PUSH1 0x0 PUSH1 0x20 SWAP1 POP PUSH1 0x1F DUP4 GT PUSH1 0x1 DUP2 EQ PUSH3 0x45D JUMPI PUSH1 0x0 DUP5 ISZERO PUSH3 0x448 JUMPI DUP3 DUP8 ADD MLOAD SWAP1 POP JUMPDEST PUSH3 0x454 DUP6 DUP3 PUSH3 0x3C7 JUMP JUMPDEST DUP7 SSTORE POP PUSH3 0x4C4 JUMP JUMPDEST PUSH1 0x1F NOT DUP5 AND PUSH3 0x46D DUP7 PUSH3 0x209 JUMP JUMPDEST PUSH1 0x0 JUMPDEST DUP3 DUP2 LT ISZERO PUSH3 0x497 JUMPI DUP5 DUP10 ADD MLOAD DUP3 SSTORE PUSH1 0x1 DUP3 ADD SWAP2 POP PUSH1 0x20 DUP6 ADD SWAP5 POP PUSH1 0x20 DUP2 ADD SWAP1 POP PUSH3 0x470 JUMP JUMPDEST DUP7 DUP4 LT ISZERO PUSH3 0x4B7 JUMPI DUP5 DUP10 ADD MLOAD PUSH3 0x4B3 PUSH1 0x1F DUP10 AND DUP3 PUSH3 0x3A7 JUMP JUMPDEST DUP4 SSTORE POP JUMPDEST PUSH1 0x1 PUSH1 0x2 DUP9 MUL ADD DUP9 SSTORE POP POP POP JUMPDEST POP POP POP POP POP POP JUMP JUMPDEST PUSH2 0xD81 DUP1 PUSH3 0x4DC PUSH1 0x0 CODECOPY PUSH1 0x0 RETURN INVALID PUSH1 0x80 PUSH1 0x40 MSTORE CALLVALUE DUP1 ISZERO PUSH2 0x10 JUMPI PUSH1 0x0 DUP1 REVERT JUMPDEST POP PUSH1 0x4 CALLDATASIZE LT PUSH2 0x88 JUMPI PUSH1 0x0 CALLDATALOAD PUSH1 0xE0 SHR DUP1 PUSH4 0x8AE6CCB4 GT PUSH2 0x5B JUMPI DUP1 PUSH4 0x8AE6CCB4 EQ PUSH2 0x13D JUMPI DUP1 PUSH4 0x8CA98874 EQ PUSH2 0x16D JUMPI DUP1 PUSH4 0xA621D15E EQ PUSH2 0x18D JUMPI DUP1 PUSH4 0xDACB88E2 EQ PUSH2 0x1AB JUMPI PUSH2 0x88 JUMP JUMPDEST DUP1 PUSH4 0x7511978 EQ PUSH2 0x8D JUMPI DUP1 PUSH4 0x48A7FFB7 EQ PUSH2 0xBF JUMPI DUP1 PUSH4 0x6057361D EQ PUSH2 0xEF JUMPI DUP1 PUSH4 0x6663E66D EQ PUSH2 0x10B JUMPI JUMPDEST PUSH1 0x0 DUP1 REVERT JUMPDEST PUSH2 0xA7 PUSH1 0x4 DUP1 CALLDATASIZE SUB DUP2 ADD SWAP1 PUSH2 0xA2 SWAP2 SWAP1 PUSH2 0x643 JUMP JUMPDEST PUSH2 0x1CB JUMP JUMPDEST PUSH1 0x40 MLOAD PUSH2 0xB6 SWAP4 SWAP3 SWAP2 SWAP1 PUSH2 0x72A JUMP JUMPDEST PUSH1 0x40 MLOAD DUP1 SWAP2 SUB SWAP1 RETURN JUMPDEST PUSH2 0xD9 PUSH1 0x4 DUP1 CALLDATASIZE SUB DUP2 ADD SWAP1 PUSH2 0xD4 SWAP2 SWAP1 PUSH2 0x8C9 JUMP JUMPDEST PUSH2 0x290 JUMP JUMPDEST PUSH1 0x40 MLOAD PUSH2 0xE6 SWAP2 SWAP1 PUSH2 0x938 JUMP JUMPDEST PUSH1 0x40 MLOAD DUP1 SWAP2 SUB SWAP1 RETURN JUMPDEST PUSH2 0x109 PUSH1 0x4 DUP1 CALLDATASIZE SUB DUP2 ADD SWAP1 PUSH2 0x104 SWAP2 SWAP1 PUSH2 0x643 JUMP JUMPDEST PUSH2 0x382 JUMP JUMPDEST STOP JUMPDEST PUSH2 0x125 PUSH1 0x4 DUP1 CALLDATASIZE SUB DUP2 ADD SWAP1 PUSH2 0x120 SWAP2 SWAP1 PUSH2 0x643 JUMP JUMPDEST PUSH2 0x398 JUMP JUMPDEST PUSH1 0x40 MLOAD PUSH2 0x134 SWAP4 SWAP3 SWAP2 SWAP1 PUSH2 0x72A JUMP JUMPDEST PUSH1 0x40 MLOAD DUP1 SWAP2 SUB SWAP1 RETURN JUMPDEST PUSH2 0x157 PUSH1 0x4 DUP1 CALLDATASIZE SUB DUP2 ADD SWAP1 PUSH2 0x152 SWAP2 SWAP1 PUSH2 0x953 JUMP JUMPDEST PUSH2 0x467 JUMP JUMPDEST PUSH1 0x40 MLOAD PUSH2 0x164 SWAP2 SWAP1 PUSH2 0x99C JUMP JUMPDEST PUSH1 0x40 MLOAD DUP1 SWAP2 SUB SWAP1 RETURN JUMPDEST PUSH2 0x175 PUSH2 0x495 JUMP JUMPDEST PUSH1 0x40 MLOAD PUSH2 0x184 SWAP4 SWAP3 SWAP2 SWAP1 PUSH2 0x72A JUMP JUMPDEST PUSH1 0x40 MLOAD DUP1 SWAP2 SUB SWAP1 RETURN JUMPDEST PUSH2 0x195 PUSH2 0x542 JUMP JUMPDEST PUSH1 0x40 MLOAD PUSH2 0x1A2 SWAP2 SWAP1 PUSH2 0x99C JUMP JUMPDEST PUSH1 0x40 MLOAD DUP1 SWAP2 SUB SWAP1 RETURN JUMPDEST PUSH2 0x1B3 PUSH2 0x54C JUMP JUMPDEST PUSH1 0x40 MLOAD PUSH2 0x1C2 SWAP4 SWAP3 SWAP2 SWAP1 PUSH2 0x72A JUMP JUMPDEST PUSH1 0x40 MLOAD DUP1 SWAP2 SUB SWAP1 RETURN JUMPDEST PUSH1 0xA DUP2 PUSH1 0x3 DUP2 LT PUSH2 0x1DB JUMPI PUSH1 0x0 DUP1 REVERT JUMPDEST PUSH1 0x3 MUL ADD PUSH1 0x0 SWAP2 POP SWAP1 POP DUP1 PUSH1 0x0 ADD SLOAD SWAP1 DUP1 PUSH1 0x1 ADD DUP1 SLOAD PUSH2 0x1FA SWAP1 PUSH2 0x9E6 JUMP JUMPDEST DUP1 PUSH1 0x1F ADD PUSH1 0x20 DUP1 SWAP2 DIV MUL PUSH1 0x20 ADD PUSH1 0x40 MLOAD SWAP1 DUP2 ADD PUSH1 0x40 MSTORE DUP1 SWAP3 SWAP2 SWAP1 DUP2 DUP2 MSTORE PUSH1 0x20 ADD DUP3 DUP1 SLOAD PUSH2 0x226 SWAP1 PUSH2 0x9E6 JUMP JUMPDEST DUP1 ISZERO PUSH2 0x273 JUMPI DUP1 PUSH1 0x1F LT PUSH2 0x248 JUMPI PUSH2 0x100 DUP1 DUP4 SLOAD DIV MUL DUP4 MSTORE SWAP2 PUSH1 0x20 ADD SWAP2 PUSH2 0x273 JUMP JUMPDEST DUP3 ADD SWAP2 SWAP1 PUSH1 0x0 MSTORE PUSH1 0x20 PUSH1 0x0 KECCAK256 SWAP1 JUMPDEST DUP2 SLOAD DUP2 MSTORE SWAP1 PUSH1 0x1 ADD SWAP1 PUSH1 0x20 ADD DUP1 DUP4 GT PUSH2 0x256 JUMPI DUP3 SWAP1 SUB PUSH1 0x1F AND DUP3 ADD SWAP2 JUMPDEST POP POP POP POP POP SWAP1 DUP1 PUSH1 0x2 ADD PUSH1 0x0 SWAP1 SLOAD SWAP1 PUSH2 0x100 EXP SWAP1 DIV PUSH1 0xFF AND SWAP1 POP DUP4 JUMP JUMPDEST PUSH1 0x0 PUSH1 0x9 PUSH1 0x40 MLOAD DUP1 PUSH1 0x60 ADD PUSH1 0x40 MSTORE DUP1 DUP7 DUP2 MSTORE PUSH1 0x20 ADD DUP6 DUP2 MSTORE PUSH1 0x20 ADD DUP5 ISZERO ISZERO DUP2 MSTORE POP SWAP1 DUP1 PUSH1 0x1 DUP2 SLOAD ADD DUP1 DUP3 SSTORE DUP1 SWAP2 POP POP PUSH1 0x1 SWAP1 SUB SWAP1 PUSH1 0x0 MSTORE PUSH1 0x20 PUSH1 0x0 KECCAK256 SWAP1 PUSH1 0x3 MUL ADD PUSH1 0x0 SWAP1 SWAP2 SWAP1 SWAP2 SWAP1 SWAP2 POP PUSH1 0x0 DUP3 ADD MLOAD DUP2 PUSH1 0x0 ADD SSTORE PUSH1 0x20 DUP3 ADD MLOAD DUP2 PUSH1 0x1 ADD SWAP1 DUP2 PUSH2 0x2F9 SWAP2 SWAP1 PUSH2 0xBC3 JUMP JUMPDEST POP PUSH1 0x40 DUP3 ADD MLOAD DUP2 PUSH1 0x2 ADD PUSH1 0x0 PUSH2 0x100 EXP DUP2 SLOAD DUP2 PUSH1 0xFF MUL NOT AND SWAP1 DUP4 ISZERO ISZERO MUL OR SWAP1 SSTORE POP POP POP DUP4 PUSH1 0x13 DUP5 PUSH1 0x40 MLOAD PUSH2 0x32D SWAP2 SWAP1 PUSH2 0xCD1 JUMP JUMPDEST SWAP1 DUP2 MSTORE PUSH1 0x20 ADD PUSH1 0x40 MLOAD DUP1 SWAP2 SUB SWAP1 KECCAK256 DUP2 SWAP1 SSTORE POP PUSH1 0x40 MLOAD DUP1 PUSH1 0x40 ADD PUSH1 0x40 MSTORE DUP1 PUSH1 0x3 DUP2 MSTORE PUSH1 0x20 ADD PUSH32 0x414C490000000000000000000000000000000000000000000000000000000000 DUP2 MSTORE POP SWAP3 POP PUSH1 0x1 SWAP1 POP SWAP4 SWAP3 POP POP POP JUMP JUMPDEST PUSH1 0x5 DUP2 PUSH2 0x38F SWAP2 SWAP1 PUSH2 0xD17 JUMP JUMPDEST PUSH1 0x1 DUP2 SWAP1 SSTORE POP POP JUMP JUMPDEST PUSH1 0x9 DUP2 DUP2 SLOAD DUP2 LT PUSH2 0x3A8 JUMPI PUSH1 0x0 DUP1 REVERT JUMPDEST SWAP1 PUSH1 0x0 MSTORE PUSH1 0x20 PUSH1 0x0 KECCAK256 SWAP1 PUSH1 0x3 MUL ADD PUSH1 0x0 SWAP2 POP SWAP1 POP DUP1 PUSH1 0x0 ADD SLOAD SWAP1 DUP1 PUSH1 0x1 ADD DUP1 SLOAD PUSH2 0x3D1 SWAP1 PUSH2 0x9E6 JUMP JUMPDEST DUP1 PUSH1 0x1F ADD PUSH1 0x20 DUP1 SWAP2 DIV MUL PUSH1 0x20 ADD PUSH1 0x40 MLOAD SWAP1 DUP2 ADD PUSH1 0x40 MSTORE DUP1 SWAP3 SWAP2 SWAP1 DUP2 DUP2 MSTORE PUSH1 0x20 ADD DUP3 DUP1 SLOAD PUSH2 0x3FD SWAP1 PUSH2 0x9E6 JUMP JUMPDEST DUP1 ISZERO PUSH2 0x44A JUMPI DUP1 PUSH1 0x1F LT PUSH2 0x41F JUMPI PUSH2 0x100 DUP1 DUP4 SLOAD DIV MUL DUP4 MSTORE SWAP2 PUSH1 0x20 ADD SWAP2 PUSH2 0x44A JUMP JUMPDEST DUP3 ADD SWAP2 SWAP1 PUSH1 0x0 MSTORE PUSH1 0x20 PUSH1 0x0 KECCAK256 SWAP1 JUMPDEST DUP2 SLOAD DUP2 MSTORE SWAP1 PUSH1 0x1 ADD SWAP1 PUSH1 0x20 ADD DUP1 DUP4 GT PUSH2 0x42D JUMPI DUP3 SWAP1 SUB PUSH1 0x1F AND DUP3 ADD SWAP2 JUMPDEST POP POP POP POP POP SWAP1 DUP1 PUSH1 0x2 ADD PUSH1 0x0 SWAP1 SLOAD SWAP1 PUSH2 0x100 EXP SWAP1 DIV PUSH1 0xFF AND SWAP1 POP DUP4 JUMP JUMPDEST PUSH1 0x13 DUP2 DUP1 MLOAD PUSH1 0x20 DUP2 ADD DUP3 ADD DUP1 MLOAD DUP5 DUP3 MSTORE PUSH1 0x20 DUP4 ADD PUSH1 0x20 DUP6 ADD KECCAK256 DUP2 DUP4 MSTORE DUP1 SWAP6 POP POP POP POP POP POP PUSH1 0x0 SWAP2 POP SWAP1 POP SLOAD DUP2 JUMP JUMPDEST PUSH1 0x6 DUP1 PUSH1 0x0 ADD SLOAD SWAP1 DUP1 PUSH1 0x1 ADD DUP1 SLOAD PUSH2 0x4AC SWAP1 PUSH2 0x9E6 JUMP JUMPDEST DUP1 PUSH1 0x1F ADD PUSH1 0x20 DUP1 SWAP2 DIV MUL PUSH1 0x20 ADD PUSH1 0x40 MLOAD SWAP1 DUP2 ADD PUSH1 0x40 MSTORE DUP1 SWAP3 SWAP2 SWAP1 DUP2 DUP2 MSTORE PUSH1 0x20 ADD DUP3 DUP1 SLOAD PUSH2 0x4D8 SWAP1 PUSH2 0x9E6 JUMP JUMPDEST DUP1 ISZERO PUSH2 0x525 JUMPI DUP1 PUSH1 0x1F LT PUSH2 0x4FA JUMPI PUSH2 0x100 DUP1 DUP4 SLOAD DIV MUL DUP4 MSTORE SWAP2 PUSH1 0x20 ADD SWAP2 PUSH2 0x525 JUMP JUMPDEST DUP3 ADD SWAP2 SWAP1 PUSH1 0x0 MSTORE PUSH1 0x20 PUSH1 0x0 KECCAK256 SWAP1 JUMPDEST DUP2 SLOAD DUP2 MSTORE SWAP1 PUSH1 0x1 ADD SWAP1 PUSH1 0x20 ADD DUP1 DUP4 GT PUSH2 0x508 JUMPI DUP3 SWAP1 SUB PUSH1 0x1F AND DUP3 ADD SWAP2 JUMPDEST POP POP POP POP POP SWAP1 DUP1 PUSH1 0x2 ADD PUSH1 0x0 SWAP1 SLOAD SWAP1 PUSH2 0x100 EXP SWAP1 DIV PUSH1 0xFF AND SWAP1 POP DUP4 JUMP JUMPDEST PUSH1 0x0 PUSH1 0x1 SLOAD SWAP1 POP SWAP1 JUMP JUMPDEST PUSH1 0x3 DUP1 PUSH1 0x0 ADD SLOAD SWAP1 DUP1 PUSH1 0x1 ADD DUP1 SLOAD PUSH2 0x563 SWAP1 PUSH2 0x9E6 JUMP JUMPDEST DUP1 PUSH1 0x1F ADD PUSH1 0x20 DUP1 SWAP2 DIV MUL PUSH1 0x20 ADD PUSH1 0x40 MLOAD SWAP1 DUP2 ADD PUSH1 0x40 MSTORE DUP1 SWAP3 SWAP2 SWAP1 DUP2 DUP2 MSTORE PUSH1 0x20 ADD DUP3 DUP1 SLOAD PUSH2 0x58F SWAP1 PUSH2 0x9E6 JUMP JUMPDEST DUP1 ISZERO PUSH2 0x5DC JUMPI DUP1 PUSH1 0x1F LT PUSH2 0x5B1 JUMPI PUSH2 0x100 DUP1 DUP4 SLOAD DIV MUL DUP4 MSTORE SWAP2 PUSH1 0x20 ADD SWAP2 PUSH2 0x5DC JUMP JUMPDEST DUP3 ADD SWAP2 SWAP1 PUSH1 0x0 MSTORE PUSH1 0x20 PUSH1 0x0 KECCAK256 SWAP1 JUMPDEST DUP2 SLOAD DUP2 MSTORE SWAP1 PUSH1 0x1 ADD SWAP1 PUSH1 0x20 ADD DUP1 DUP4 GT PUSH2 0x5BF JUMPI DUP3 SWAP1 SUB PUSH1 0x1F AND DUP3 ADD SWAP2 JUMPDEST POP POP POP POP POP SWAP1 DUP1 PUSH1 0x2 ADD PUSH1 0x0 SWAP1 SLOAD SWAP1 PUSH2 0x100 EXP SWAP1 DIV PUSH1 0xFF AND SWAP1 POP DUP4 JUMP JUMPDEST PUSH1 0x0 PUSH1 0x40 MLOAD SWAP1 POP SWAP1 JUMP JUMPDEST PUSH1 0x0 DUP1 REVERT JUMPDEST PUSH1 0x0 DUP1 REVERT JUMPDEST PUSH1 0x0 DUP2 SWAP1 POP SWAP2 SWAP1 POP JUMP JUMPDEST PUSH2 0x620 DUP2 PUSH2 0x60D JUMP JUMPDEST DUP2 EQ PUSH2 0x62B JUMPI PUSH1 0x0 DUP1 REVERT JUMPDEST POP JUMP JUMPDEST PUSH1 0x0 DUP2 CALLDATALOAD SWAP1 POP PUSH2 0x63D DUP2 PUSH2 0x617 JUMP JUMPDEST SWAP3 SWAP2 POP POP JUMP JUMPDEST PUSH1 0x0 PUSH1 0x20 DUP3 DUP5 SUB SLT ISZERO PUSH2 0x659 JUMPI PUSH2 0x658 PUSH2 0x603 JUMP JUMPDEST JUMPDEST PUSH1 0x0 PUSH2 0x667 DUP5 DUP3 DUP6 ADD PUSH2 0x62E JUMP JUMPDEST SWAP2 POP POP SWAP3 SWAP2 POP POP JUMP JUMPDEST PUSH2 0x679 DUP2 PUSH2 0x60D JUMP JUMPDEST DUP3 MSTORE POP POP JUMP JUMPDEST PUSH1 0x0 DUP2 MLOAD SWAP1 POP SWAP2 SWAP1 POP JUMP JUMPDEST PUSH1 0x0 DUP3 DUP3 MSTORE PUSH1 0x20 DUP3 ADD SWAP1 POP SWAP3 SWAP2 POP POP JUMP JUMPDEST PUSH1 0x0 JUMPDEST DUP4 DUP2 LT ISZERO PUSH2 0x6B9 JUMPI DUP1 DUP3 ADD MLOAD DUP2 DUP5 ADD MSTORE PUSH1 0x20 DUP2 ADD SWAP1 POP PUSH2 0x69E JUMP JUMPDEST PUSH1 0x0 DUP5 DUP5 ADD MSTORE POP POP POP POP JUMP JUMPDEST PUSH1 0x0 PUSH1 0x1F NOT PUSH1 0x1F DUP4 ADD AND SWAP1 POP SWAP2 SWAP1 POP JUMP JUMPDEST PUSH1 0x0 PUSH2 0x6E1 DUP3 PUSH2 0x67F JUMP JUMPDEST PUSH2 0x6EB DUP2 DUP6 PUSH2 0x68A JUMP JUMPDEST SWAP4 POP PUSH2 0x6FB DUP2 DUP6 PUSH1 0x20 DUP7 ADD PUSH2 0x69B JUMP JUMPDEST PUSH2 0x704 DUP2 PUSH2 0x6C5 JUMP JUMPDEST DUP5 ADD SWAP2 POP POP SWAP3 SWAP2 POP POP JUMP JUMPDEST PUSH1 0x0 DUP2 ISZERO ISZERO SWAP1 POP SWAP2 SWAP1 POP JUMP JUMPDEST PUSH2 0x724 DUP2 PUSH2 0x70F JUMP JUMPDEST DUP3 MSTORE POP POP JUMP JUMPDEST PUSH1 0x0 PUSH1 0x60 DUP3 ADD SWAP1 POP PUSH2 0x73F PUSH1 0x0 DUP4 ADD DUP7 PUSH2 0x670 JUMP JUMPDEST DUP2 DUP2 SUB PUSH1 0x20 DUP4 ADD MSTORE PUSH2 0x751 DUP2 DUP6 PUSH2 0x6D6 JUMP JUMPDEST SWAP1 POP PUSH2 0x760 PUSH1 0x40 DUP4 ADD DUP5 PUSH2 0x71B JUMP JUMPDEST SWAP5 SWAP4 POP POP POP POP JUMP JUMPDEST PUSH1 0x0 DUP1 REVERT JUMPDEST PUSH1 0x0 DUP1 REVERT JUMPDEST PUSH32 0x4E487B7100000000000000000000000000000000000000000000000000000000 PUSH1 0x0 MSTORE PUSH1 0x41 PUSH1 0x4 MSTORE PUSH1 0x24 PUSH1 0x0 REVERT JUMPDEST PUSH2 0x7AA DUP3 PUSH2 0x6C5 JUMP JUMPDEST DUP2 ADD DUP2 DUP2 LT PUSH8 0xFFFFFFFFFFFFFFFF DUP3 GT OR ISZERO PUSH2 0x7C9 JUMPI PUSH2 0x7C8 PUSH2 0x772 JUMP JUMPDEST JUMPDEST DUP1 PUSH1 0x40 MSTORE POP POP POP JUMP JUMPDEST PUSH1 0x0 PUSH2 0x7DC PUSH2 0x5F9 JUMP JUMPDEST SWAP1 POP PUSH2 0x7E8 DUP3 DUP3 PUSH2 0x7A1 JUMP JUMPDEST SWAP2 SWAP1 POP JUMP JUMPDEST PUSH1 0x0 PUSH8 0xFFFFFFFFFFFFFFFF DUP3 GT ISZERO PUSH2 0x808 JUMPI PUSH2 0x807 PUSH2 0x772 JUMP JUMPDEST JUMPDEST PUSH2 0x811 DUP3 PUSH2 0x6C5 JUMP JUMPDEST SWAP1 POP PUSH1 0x20 DUP2 ADD SWAP1 POP SWAP2 SWAP1 POP JUMP JUMPDEST DUP3 DUP2 DUP4 CALLDATACOPY PUSH1 0x0 DUP4 DUP4 ADD MSTORE POP POP POP JUMP JUMPDEST PUSH1 0x0 PUSH2 0x840 PUSH2 0x83B DUP5 PUSH2 0x7ED JUMP JUMPDEST PUSH2 0x7D2 JUMP JUMPDEST SWAP1 POP DUP3 DUP2 MSTORE PUSH1 0x20 DUP2 ADD DUP5 DUP5 DUP5 ADD GT ISZERO PUSH2 0x85C JUMPI PUSH2 0x85B PUSH2 0x76D JUMP JUMPDEST JUMPDEST PUSH2 0x867 DUP5 DUP3 DUP6 PUSH2 0x81E JUMP JUMPDEST POP SWAP4 SWAP3 POP POP POP JUMP JUMPDEST PUSH1 0x0 DUP3 PUSH1 0x1F DUP4 ADD SLT PUSH2 0x884 JUMPI PUSH2 0x883 PUSH2 0x768 JUMP JUMPDEST JUMPDEST DUP2 CALLDATALOAD PUSH2 0x894 DUP5 DUP3 PUSH1 0x20 DUP7 ADD PUSH2 0x82D JUMP JUMPDEST SWAP2 POP POP SWAP3 SWAP2 POP POP JUMP JUMPDEST PUSH2 0x8A6 DUP2 PUSH2 0x70F JUMP JUMPDEST DUP2 EQ PUSH2 0x8B1 JUMPI PUSH1 0x0 DUP1 REVERT JUMPDEST POP JUMP JUMPDEST PUSH1 0x0 DUP2 CALLDATALOAD SWAP1 POP PUSH2 0x8C3 DUP2 PUSH2 0x89D JUMP JUMPDEST SWAP3 SWAP2 POP POP JUMP JUMPDEST PUSH1 0x0 DUP1 PUSH1 0x0 PUSH1 0x60 DUP5 DUP7 SUB SLT ISZERO PUSH2 0x8E2 JUMPI PUSH2 0x8E1 PUSH2 0x603 JUMP JUMPDEST JUMPDEST PUSH1 0x0 PUSH2 0x8F0 DUP7 DUP3 DUP8 ADD PUSH2 0x62E JUMP JUMPDEST SWAP4 POP POP PUSH1 0x20 DUP5 ADD CALLDATALOAD PUSH8 0xFFFFFFFFFFFFFFFF DUP2 GT ISZERO PUSH2 0x911 JUMPI PUSH2 0x910 PUSH2 0x608 JUMP JUMPDEST JUMPDEST PUSH2 0x91D DUP7 DUP3 DUP8 ADD PUSH2 0x86F JUMP JUMPDEST SWAP3 POP POP PUSH1 0x40 PUSH2 0x92E DUP7 DUP3 DUP8 ADD PUSH2 0x8B4 JUMP JUMPDEST SWAP2 POP POP SWAP3 POP SWAP3 POP SWAP3 JUMP JUMPDEST PUSH1 0x0 PUSH1 0x20 DUP3 ADD SWAP1 POP PUSH2 0x94D PUSH1 0x0 DUP4 ADD DUP5 PUSH2 0x71B JUMP JUMPDEST SWAP3 SWAP2 POP POP JUMP JUMPDEST PUSH1 0x0 PUSH1 0x20 DUP3 DUP5 SUB SLT ISZERO PUSH2 0x969 JUMPI PUSH2 0x968 PUSH2 0x603 JUMP JUMPDEST JUMPDEST PUSH1 0x0 DUP3 ADD CALLDATALOAD PUSH8 0xFFFFFFFFFFFFFFFF DUP2 GT ISZERO PUSH2 0x987 JUMPI PUSH2 0x986 PUSH2 0x608 JUMP JUMPDEST JUMPDEST PUSH2 0x993 DUP5 DUP3 DUP6 ADD PUSH2 0x86F JUMP JUMPDEST SWAP2 POP POP SWAP3 SWAP2 POP POP JUMP JUMPDEST PUSH1 0x0 PUSH1 0x20 DUP3 ADD SWAP1 POP PUSH2 0x9B1 PUSH1 0x0 DUP4 ADD DUP5 PUSH2 0x670 JUMP JUMPDEST SWAP3 SWAP2 POP POP JUMP JUMPDEST PUSH32 0x4E487B7100000000000000000000000000000000000000000000000000000000 PUSH1 0x0 MSTORE PUSH1 0x22 PUSH1 0x4 MSTORE PUSH1 0x24 PUSH1 0x0 REVERT JUMPDEST PUSH1 0x0 PUSH1 0x2 DUP3 DIV SWAP1 POP PUSH1 0x1 DUP3 AND DUP1 PUSH2 0x9FE JUMPI PUSH1 0x7F DUP3 AND SWAP2 POP JUMPDEST PUSH1 0x20 DUP3 LT DUP2 SUB PUSH2 0xA11 JUMPI PUSH2 0xA10 PUSH2 0x9B7 JUMP JUMPDEST JUMPDEST POP SWAP2 SWAP1 POP JUMP JUMPDEST PUSH1 0x0 DUP2 SWAP1 POP DUP2 PUSH1 0x0 MSTORE PUSH1 0x20 PUSH1 0x0 KECCAK256 SWAP1 POP SWAP2 SWAP1 POP JUMP JUMPDEST PUSH1 0x0 PUSH1 0x20 PUSH1 0x1F DUP4 ADD DIV SWAP1 POP SWAP2 SWAP1 POP JUMP JUMPDEST PUSH1 0x0 DUP3 DUP3 SHL SWAP1 POP SWAP3 SWAP2 POP POP JUMP JUMPDEST PUSH1 0x0 PUSH1 0x8 DUP4 MUL PUSH2 0xA79 PUSH32 0xFFFFFFFFFFFFFFFFFFFFFFFFFFFFFFFFFFFFFFFFFFFFFFFFFFFFFFFFFFFFFFFF DUP3 PUSH2 0xA3C JUMP JUMPDEST PUSH2 0xA83 DUP7 DUP4 PUSH2 0xA3C JUMP JUMPDEST SWAP6 POP DUP1 NOT DUP5 AND SWAP4 POP DUP1 DUP7 AND DUP5 OR SWAP3 POP POP POP SWAP4 SWAP3 POP POP POP JUMP JUMPDEST PUSH1 0x0 DUP2 SWAP1 POP SWAP2 SWAP1 POP JUMP JUMPDEST PUSH1 0x0 PUSH2 0xAC0 PUSH2 0xABB PUSH2 0xAB6 DUP5 PUSH2 0x60D JUMP JUMPDEST PUSH2 0xA9B JUMP JUMPDEST PUSH2 0x60D JUMP JUMPDEST SWAP1 POP SWAP2 SWAP1 POP JUMP JUMPDEST PUSH1 0x0 DUP2 SWAP1 POP SWAP2 SWAP1 POP JUMP JUMPDEST PUSH2 0xADA DUP4 PUSH2 0xAA5 JUMP JUMPDEST PUSH2 0xAEE PUSH2 0xAE6 DUP3 PUSH2 0xAC7 JUMP JUMPDEST DUP5 DUP5 SLOAD PUSH2 0xA49 JUMP JUMPDEST DUP3 SSTORE POP POP POP POP JUMP JUMPDEST PUSH1 0x0 SWAP1 JUMP JUMPDEST PUSH2 0xB03 PUSH2 0xAF6 JUMP JUMPDEST PUSH2 0xB0E DUP2 DUP5 DUP5 PUSH2 0xAD1 JUMP JUMPDEST POP POP POP JUMP JUMPDEST JUMPDEST DUP2 DUP2 LT ISZERO PUSH2 0xB32 JUMPI PUSH2 0xB27 PUSH1 0x0 DUP3 PUSH2 0xAFB JUMP JUMPDEST PUSH1 0x1 DUP2 ADD SWAP1 POP PUSH2 0xB14 JUMP JUMPDEST POP POP JUMP JUMPDEST PUSH1 0x1F DUP3 GT ISZERO PUSH2 0xB77 JUMPI PUSH2 0xB48 DUP2 PUSH2 0xA17 JUMP JUMPDEST PUSH2 0xB51 DUP5 PUSH2 0xA2C JUMP JUMPDEST DUP2 ADD PUSH1 0x20 DUP6 LT ISZERO PUSH2 0xB60 JUMPI DUP2 SWAP1 POP JUMPDEST PUSH2 0xB74 PUSH2 0xB6C DUP6 PUSH2 0xA2C JUMP JUMPDEST DUP4 ADD DUP3 PUSH2 0xB13 JUMP JUMPDEST POP POP JUMPDEST POP POP POP JUMP JUMPDEST PUSH1 0x0 DUP3 DUP3 SHR SWAP1 POP SWAP3 SWAP2 POP POP JUMP JUMPDEST PUSH1 0x0 PUSH2 0xB9A PUSH1 0x0 NOT DUP5 PUSH1 0x8 MUL PUSH2 0xB7C JUMP JUMPDEST NOT DUP1 DUP4 AND SWAP2 POP POP SWAP3 SWAP2 POP POP JUMP JUMPDEST PUSH1 0x0 PUSH2 0xBB3 DUP4 DUP4 PUSH2 0xB89 JUMP JUMPDEST SWAP2 POP DUP3 PUSH1 0x2 MUL DUP3 OR SWAP1 POP SWAP3 SWAP2 POP POP JUMP JUMPDEST PUSH2 0xBCC DUP3 PUSH2 0x67F JUMP JUMPDEST PUSH8 0xFFFFFFFFFFFFFFFF DUP2 GT ISZERO PUSH2 0xBE5 JUMPI PUSH2 0xBE4 PUSH2 0x772 JUMP JUMPDEST JUMPDEST PUSH2 0xBEF DUP3 SLOAD PUSH2 0x9E6 JUMP JUMPDEST PUSH2 0xBFA DUP3 DUP3 DUP6 PUSH2 0xB36 JUMP JUMPDEST PUSH1 0x0 PUSH1 0x20 SWAP1 POP PUSH1 0x1F DUP4 GT PUSH1 0x1 DUP2 EQ PUSH2 0xC2D JUMPI PUSH1 0x0 DUP5 ISZERO PUSH2 0xC1B JUMPI DUP3 DUP8 ADD MLOAD SWAP1 POP JUMPDEST PUSH2 0xC25 DUP6 DUP3 PUSH2 0xBA7 JUMP JUMPDEST DUP7 SSTORE POP PUSH2 0xC8D JUMP JUMPDEST PUSH1 0x1F NOT DUP5 AND PUSH2 0xC3B DUP7 PUSH2 0xA17 JUMP JUMPDEST PUSH1 0x0 JUMPDEST DUP3 DUP2 LT ISZERO PUSH2 0xC63 JUMPI DUP5 DUP10 ADD MLOAD DUP3 SSTORE PUSH1 0x1 DUP3 ADD SWAP2 POP PUSH1 0x20 DUP6 ADD SWAP5 POP PUSH1 0x20 DUP2 ADD SWAP1 POP PUSH2 0xC3E JUMP JUMPDEST DUP7 DUP4 LT ISZERO PUSH2 0xC80 JUMPI DUP5 DUP10 ADD MLOAD PUSH2 0xC7C PUSH1 0x1F DUP10 AND DUP3 PUSH2 0xB89 JUMP JUMPDEST DUP4 SSTORE POP JUMPDEST PUSH1 0x1 PUSH1 0x2 DUP9 MUL ADD DUP9 SSTORE POP POP POP JUMPDEST POP POP POP POP POP POP JUMP JUMPDEST PUSH1 0x0 DUP2 SWAP1 POP SWAP3 SWAP2 POP POP JUMP JUMPDEST PUSH1 0x0 PUSH2 0xCAB DUP3 PUSH2 0x67F JUMP JUMPDEST PUSH2 0xCB5 DUP2 DUP6 PUSH2 0xC95 JUMP JUMPDEST SWAP4 POP PUSH2 0xCC5 DUP2 DUP6 PUSH1 0x20 DUP7 ADD PUSH2 0x69B JUMP JUMPDEST DUP1 DUP5 ADD SWAP2 POP POP SWAP3 SWAP2 POP POP JUMP JUMPDEST PUSH1 0x0 PUSH2 0xCDD DUP3 DUP5 PUSH2 0xCA0 JUMP JUMPDEST SWAP2 POP DUP2 SWAP1 POP SWAP3 SWAP2 POP POP JUMP JUMPDEST PUSH32 0x4E487B7100000000000000000000000000000000000000000000000000000000 PUSH1 0x0 MSTORE PUSH1 0x11 PUSH1 0x4 MSTORE PUSH1 0x24 PUSH1 0x0 REVERT JUMPDEST PUSH1 0x0 PUSH2 0xD22 DUP3 PUSH2 0x60D JUMP JUMPDEST SWAP2 POP PUSH2 0xD2D DUP4 PUSH2 0x60D JUMP JUMPDEST SWAP3 POP DUP3 DUP3 ADD SWAP1 POP DUP1 DUP3 GT ISZERO PUSH2 0xD45 JUMPI PUSH2 0xD44 PUSH2 0xCE8 JUMP JUMPDEST JUMPDEST SWAP3 SWAP2 POP POP JUMP INVALID LOG2 PUSH5 0x6970667358 0x22 SLT KECCAK256 0x1E SHL MSIZE 0xDF SWAP14 0xCC RETURNDATASIZE DUP1 PUSH10 0x33A82A9E2E2318D8F72C 0xAA CREATE2 EXP BYTE 0x2B SWAP3 REVERT 0xD9 0xDF PUSH3 0x54EAA2 PUSH5 0x736F6C6343 STOP ADDMOD SGT STOP CALLER "
		},
		"gasEstimates": {
			"creation": {
				"codeDepositCost": "691400",
				"executionCost": "infinite",
				"totalCost": "infinite"
			},
			"external": {
				"Ali()": "infinite",
				"Anahita()": "infinite",
				"add_friend(uint256,string,bool)": "infinite",
				"getFavoriteNumber()": "2481",
				"myFriends(uint256)": "infinite",
				"personToNumber(string)": "infinite",
				"staticMyFriends(uint256)": "infinite",
				"store(uint256)": "infinite"
			}
		},
		"methodIdentifiers": {
			"Ali()": "dacb88e2",
			"Anahita()": "8ca98874",
			"add_friend(uint256,string,bool)": "48a7ffb7",
			"getFavoriteNumber()": "a621d15e",
			"myFriends(uint256)": "6663e66d",
			"personToNumber(string)": "8ae6ccb4",
			"staticMyFriends(uint256)": "07511978",
			"store(uint256)": "6057361d"
		}
	},
	"abi": [
		{
			"inputs": [],
			"name": "Ali",
			"outputs": [
				{
					"internalType": "uint256",
					"name": "age",
					"type": "uint256"
				},
				{
					"internalType": "string",
					"name": "name",
					"type": "string"
				},
				{
					"internalType": "bool",
					"name": "isCool",
					"type": "bool"
				}
			],
			"stateMutability": "view",
			"type": "function"
		},
		{
			"inputs": [],
			"name": "Anahita",
			"outputs": [
				{
					"internalType": "uint256",
					"name": "age",
					"type": "uint256"
				},
				{
					"internalType": "string",
					"name": "name",
					"type": "string"
				},
				{
					"internalType": "bool",
					"name": "isCool",
					"type": "bool"
				}
			],
			"stateMutability": "view",
			"type": "function"
		},
		{
			"inputs": [
				{
					"internalType": "uint256",
					"name": "_age",
					"type": "uint256"
				},
				{
					"internalType": "string",
					"name": "_name",
					"type": "string"
				},
				{
					"internalType": "bool",
					"name": "_isCool",
					"type": "bool"
				}
			],
			"name": "add_friend",
			"outputs": [
				{
					"internalType": "bool",
					"name": "",
					"type": "bool"
				}
			],
			"stateMutability": "nonpayable",
			"type": "function"
		},
		{
			"inputs": [],
			"name": "getFavoriteNumber",
			"outputs": [
				{
					"internalType": "uint256",
					"name": "",
					"type": "uint256"
				}
			],
			"stateMutability": "view",
			"type": "function"
		},
		{
			"inputs": [
				{
					"internalType": "uint256",
					"name": "",
					"type": "uint256"
				}
			],
			"name": "myFriends",
			"outputs": [
				{
					"internalType": "uint256",
					"name": "age",
					"type": "uint256"
				},
				{
					"internalType": "string",
					"name": "name",
					"type": "string"
				},
				{
					"internalType": "bool",
					"name": "isCool",
					"type": "bool"
				}
			],
			"stateMutability": "view",
			"type": "function"
		},
		{
			"inputs": [
				{
					"internalType": "string",
					"name": "",
					"type": "string"
				}
			],
			"name": "personToNumber",
			"outputs": [
				{
					"internalType": "uint256",
					"name": "",
					"type": "uint256"
				}
			],
			"stateMutability": "view",
			"type": "function"
		},
		{
			"inputs": [
				{
					"internalType": "uint256",
					"name": "",
					"type": "uint256"
				}
			],
			"name": "staticMyFriends",
			"outputs": [
				{
					"internalType": "uint256",
					"name": "age",
					"type": "uint256"
				},
				{
					"internalType": "string",
					"name": "name",
					"type": "string"
				},
				{
					"internalType": "bool",
					"name": "isCool",
					"type": "bool"
				}
			],
			"stateMutability": "view",
			"type": "function"
		},
		{
			"inputs": [
				{
					"internalType": "uint256",
					"name": "_favoriteNumber",
					"type": "uint256"
				}
			],
			"name": "store",
			"outputs": [],
			"stateMutability": "nonpayable",
			"type": "function"
		}
	]
}